{
  "contractName": "FarmerProcessor",
  "abi": [
    {
      "inputs": [],
      "name": "nextOfferId",
      "outputs": [
        {
          "internalType": "uint256",
          "name": "",
          "type": "uint256"
        }
      ],
      "stateMutability": "view",
      "type": "function",
      "constant": true
    },
    {
      "inputs": [],
      "name": "nextOrderId",
      "outputs": [
        {
          "internalType": "uint256",
          "name": "",
          "type": "uint256"
        }
      ],
      "stateMutability": "view",
      "type": "function",
      "constant": true
    },
    {
      "inputs": [],
      "name": "nextTransactionId",
      "outputs": [
        {
          "internalType": "uint256",
          "name": "",
          "type": "uint256"
        }
      ],
      "stateMutability": "view",
      "type": "function",
      "constant": true
    },
    {
      "inputs": [
        {
          "internalType": "uint256",
          "name": "",
          "type": "uint256"
        }
      ],
      "name": "offers",
      "outputs": [
        {
          "internalType": "uint256",
          "name": "id",
          "type": "uint256"
        },
        {
          "internalType": "uint256",
          "name": "orderId",
          "type": "uint256"
        },
        {
          "internalType": "string",
          "name": "productionDate",
          "type": "string"
        },
        {
          "internalType": "uint256",
          "name": "pricePerLiter",
          "type": "uint256"
        },
        {
          "internalType": "string",
          "name": "origin",
          "type": "string"
        },
        {
          "internalType": "string",
          "name": "status",
          "type": "string"
        },
        {
          "internalType": "address",
          "name": "farmer",
          "type": "address"
        }
      ],
      "stateMutability": "view",
      "type": "function",
      "constant": true
    },
    {
      "inputs": [
        {
          "internalType": "uint256",
          "name": "",
          "type": "uint256"
        }
      ],
      "name": "orders",
      "outputs": [
        {
          "internalType": "uint256",
          "name": "id",
          "type": "uint256"
        },
        {
          "internalType": "uint256",
          "name": "quantity",
          "type": "uint256"
        },
        {
          "internalType": "string",
          "name": "status",
          "type": "string"
        },
        {
          "internalType": "address",
          "name": "processor",
          "type": "address"
        }
      ],
      "stateMutability": "view",
      "type": "function",
      "constant": true
    },
    {
      "inputs": [
        {
          "internalType": "uint256",
          "name": "",
          "type": "uint256"
        }
      ],
      "name": "transactions",
      "outputs": [
        {
          "internalType": "uint256",
          "name": "orderId",
          "type": "uint256"
        },
        {
          "internalType": "uint256",
          "name": "offerId",
          "type": "uint256"
        },
        {
          "internalType": "uint256",
          "name": "timestamp",
          "type": "uint256"
        },
        {
          "internalType": "address",
          "name": "farmer",
          "type": "address"
        },
        {
          "internalType": "address",
          "name": "processor",
          "type": "address"
        }
      ],
      "stateMutability": "view",
      "type": "function",
      "constant": true
    },
    {
      "inputs": [
        {
          "internalType": "uint256",
          "name": "_quantity",
          "type": "uint256"
        }
      ],
      "name": "createOrder",
      "outputs": [
        {
          "internalType": "uint256",
          "name": "",
          "type": "uint256"
        }
      ],
      "stateMutability": "nonpayable",
      "type": "function"
    },
    {
      "inputs": [
        {
          "internalType": "uint256",
          "name": "_orderId",
          "type": "uint256"
        }
      ],
      "name": "cancelOrder",
      "outputs": [
        {
          "internalType": "uint256",
          "name": "",
          "type": "uint256"
        }
      ],
      "stateMutability": "nonpayable",
      "type": "function"
    },
    {
      "inputs": [
        {
          "internalType": "uint256",
          "name": "_orderId",
          "type": "uint256"
        }
      ],
      "name": "viewOrder",
      "outputs": [
        {
          "internalType": "uint256",
          "name": "",
          "type": "uint256"
        },
        {
          "internalType": "uint256",
          "name": "",
          "type": "uint256"
        },
        {
          "internalType": "string",
          "name": "",
          "type": "string"
        },
        {
          "internalType": "address",
          "name": "",
          "type": "address"
        }
      ],
      "stateMutability": "view",
      "type": "function",
      "constant": true
    },
    {
      "inputs": [
        {
          "internalType": "uint256",
          "name": "_orderId",
          "type": "uint256"
        },
        {
          "internalType": "string",
          "name": "_productionDate",
          "type": "string"
        },
        {
          "internalType": "uint256",
          "name": "_pricePerLiter",
          "type": "uint256"
        },
        {
          "internalType": "string",
          "name": "_origin",
          "type": "string"
        }
      ],
      "name": "createOffer",
      "outputs": [
        {
          "internalType": "uint256",
          "name": "",
          "type": "uint256"
        }
      ],
      "stateMutability": "nonpayable",
      "type": "function"
    },
    {
      "inputs": [
        {
          "internalType": "uint256",
          "name": "_offerId",
          "type": "uint256"
        }
      ],
      "name": "cancelOffer",
      "outputs": [
        {
          "internalType": "uint256",
          "name": "",
          "type": "uint256"
        }
      ],
      "stateMutability": "nonpayable",
      "type": "function"
    },
    {
      "inputs": [
        {
          "internalType": "uint256",
          "name": "_orderId",
          "type": "uint256"
        }
      ],
      "name": "viewOffers",
      "outputs": [
        {
          "components": [
            {
              "internalType": "uint256",
              "name": "id",
              "type": "uint256"
            },
            {
              "internalType": "uint256",
              "name": "orderId",
              "type": "uint256"
            },
            {
              "internalType": "string",
              "name": "productionDate",
              "type": "string"
            },
            {
              "internalType": "uint256",
              "name": "pricePerLiter",
              "type": "uint256"
            },
            {
              "internalType": "string",
              "name": "origin",
              "type": "string"
            },
            {
              "internalType": "string",
              "name": "status",
              "type": "string"
            },
            {
              "internalType": "address",
              "name": "farmer",
              "type": "address"
            }
          ],
          "internalType": "struct FarmerProcessor.Offer[]",
          "name": "",
          "type": "tuple[]"
        }
      ],
      "stateMutability": "view",
      "type": "function",
      "constant": true
    },
    {
      "inputs": [
        {
          "internalType": "uint256",
          "name": "_orderId",
          "type": "uint256"
        },
        {
          "internalType": "uint256",
          "name": "_offerId",
          "type": "uint256"
        }
      ],
      "name": "acceptOffer",
      "outputs": [
        {
          "internalType": "uint256",
          "name": "",
          "type": "uint256"
        }
      ],
      "stateMutability": "nonpayable",
      "type": "function"
    },
    {
      "inputs": [],
      "name": "getAllTransactions",
      "outputs": [
        {
          "components": [
            {
              "internalType": "uint256",
              "name": "orderId",
              "type": "uint256"
            },
            {
              "internalType": "uint256",
              "name": "offerId",
              "type": "uint256"
            },
            {
              "internalType": "uint256",
              "name": "timestamp",
              "type": "uint256"
            },
            {
              "internalType": "address",
              "name": "farmer",
              "type": "address"
            },
            {
              "internalType": "address",
              "name": "processor",
              "type": "address"
            }
          ],
          "internalType": "struct FarmerProcessor.Transaction[]",
          "name": "",
          "type": "tuple[]"
        }
      ],
      "stateMutability": "view",
      "type": "function",
      "constant": true
    }
  ],
  "bytecode": "0x608060405260016003556001600455600160055534801561001e575f80fd5b506126a78061002c5f395ff3fe608060405234801561000f575f80fd5b50600436106100e8575f3560e01c806381257bd51161008a578063a85c38ef11610064578063a85c38ef146102a3578063d7ca38f3146102d6578063ef706adf146102f4578063f8ad8cd714610324576100e8565b806381257bd5146102095780638a72ea6a146102395780639ace38c21461026f576100e8565b8063514fcac7116100c6578063514fcac7146101585780635f5d06551461018857806361b80129146101a65780637c38d663146101d6576100e8565b8063133cc4fa146100ec57806327506f531461011c5780632a58b3301461013a575b5f80fd5b610106600480360381019061010191906118b5565b610354565b6040516101139190611960565b60405180910390f35b6101246104b8565b6040516101319190611ad5565b60405180910390f35b61014261064b565b60405161014f9190611960565b60405180910390f35b610172600480360381019061016d9190611af5565b610651565b60405161017f9190611960565b60405180910390f35b610190610750565b60405161019d9190611960565b60405180910390f35b6101c060048036038101906101bb9190611af5565b610756565b6040516101cd9190611cfc565b60405180910390f35b6101f060048036038101906101eb9190611af5565b610b86565b6040516102009493929190611d73565b60405180910390f35b610223600480360381019061021e9190611dbd565b610cc4565b6040516102309190611960565b60405180910390f35b610253600480360381019061024e9190611af5565b611142565b6040516102669796959493929190611dfb565b60405180910390f35b61028960048036038101906102849190611af5565b611331565b60405161029a959493929190611e7d565b60405180910390f35b6102bd60048036038101906102b89190611af5565b6113a1565b6040516102cd9493929190611d73565b60405180910390f35b6102de611471565b6040516102eb9190611960565b60405180910390f35b61030e60048036038101906103099190611af5565b611477565b60405161031b9190611960565b60405180910390f35b61033e60048036038101906103399190611af5565b611578565b60405161034b9190611960565b60405180910390f35b5f6040518060e0016040528060045481526020018681526020018581526020018481526020018381526020016040518060400160405280600b81526020017f496e2070726f677265737300000000000000000000000000000000000000000081525081526020013373ffffffffffffffffffffffffffffffffffffffff1681525060015f60045481526020019081526020015f205f820151815f015560208201518160010155604082015181600201908161040f91906120c8565b5060608201518160030155608082015181600401908161042f91906120c8565b5060a082015181600501908161044591906120c8565b5060c0820151816006015f6101000a81548173ffffffffffffffffffffffffffffffffffffffff021916908373ffffffffffffffffffffffffffffffffffffffff1602179055509050505f600454905060045f8154809291906104a7906121c4565b919050555080915050949350505050565b60605f60055467ffffffffffffffff8111156104d7576104d6611791565b5b60405190808252806020026020018201604052801561051057816020015b6104fd611690565b8152602001906001900390816104f55790505b5090505f600190505b6005548110156106435760025f8281526020019081526020015f206040518060a00160405290815f82015481526020016001820154815260200160028201548152602001600382015f9054906101000a900473ffffffffffffffffffffffffffffffffffffffff1673ffffffffffffffffffffffffffffffffffffffff1673ffffffffffffffffffffffffffffffffffffffff168152602001600482015f9054906101000a900473ffffffffffffffffffffffffffffffffffffffff1673ffffffffffffffffffffffffffffffffffffffff1673ffffffffffffffffffffffffffffffffffffffff168152505082600183610614919061220b565b815181106106255761062461223e565b5b6020026020010181905250808061063b906121c4565b915050610519565b508091505090565b60035481565b5f3373ffffffffffffffffffffffffffffffffffffffff165f808481526020019081526020015f206003015f9054906101000a900473ffffffffffffffffffffffffffffffffffffffff1673ffffffffffffffffffffffffffffffffffffffff16146106f2576040517f08c379a00000000000000000000000000000000000000000000000000000000081526004016106e9906122db565b60405180910390fd5b6040518060400160405280600981526020017f43616e63656c6c656400000000000000000000000000000000000000000000008152505f808481526020019081526020015f20600201908161074791906120c8565b50819050919050565b60045481565b60605f80600190505b60045481101561080f578360015f8381526020019081526020015f20600101541480156107e857506040516020016107969061234d565b6040516020818303038152906040528051906020012060015f8381526020019081526020015f206005016040516020016107d091906123e1565b60405160208183030381529060405280519060200120145b156107fc5781806107f8906121c4565b9250505b8080610807906121c4565b91505061075f565b505f8167ffffffffffffffff81111561082b5761082a611791565b5b60405190808252806020026020018201604052801561086457816020015b6108516116e6565b8152602001906001900390816108495790505b5090505f80600190505b600454811015610b7a578560015f8381526020019081526020015f20600101541480156108f757506040516020016108a59061234d565b6040516020818303038152906040528051906020012060015f8381526020019081526020015f206005016040516020016108df91906123e1565b60405160208183030381529060405280519060200120145b15610b675760015f8281526020019081526020015f206040518060e00160405290815f82015481526020016001820154815260200160028201805461093b90611efb565b80601f016020809104026020016040519081016040528092919081815260200182805461096790611efb565b80156109b25780601f10610989576101008083540402835291602001916109b2565b820191905f5260205f20905b81548152906001019060200180831161099557829003601f168201915b50505050508152602001600382015481526020016004820180546109d590611efb565b80601f0160208091040260200160405190810160405280929190818152602001828054610a0190611efb565b8015610a4c5780601f10610a2357610100808354040283529160200191610a4c565b820191905f5260205f20905b815481529060010190602001808311610a2f57829003601f168201915b50505050508152602001600582018054610a6590611efb565b80601f0160208091040260200160405190810160405280929190818152602001828054610a9190611efb565b8015610adc5780601f10610ab357610100808354040283529160200191610adc565b820191905f5260205f20905b815481529060010190602001808311610abf57829003601f168201915b50505050508152602001600682015f9054906101000a900473ffffffffffffffffffffffffffffffffffffffff1673ffffffffffffffffffffffffffffffffffffffff1673ffffffffffffffffffffffffffffffffffffffff1681525050838381518110610b4d57610b4c61223e565b5b60200260200101819052508180610b63906121c4565b9250505b8080610b72906121c4565b91505061086e565b50819350505050919050565b5f8060605f805f808781526020019081526020015f206040518060800160405290815f820154815260200160018201548152602001600282018054610bca90611efb565b80601f0160208091040260200160405190810160405280929190818152602001828054610bf690611efb565b8015610c415780601f10610c1857610100808354040283529160200191610c41565b820191905f5260205f20905b815481529060010190602001808311610c2457829003601f168201915b50505050508152602001600382015f9054906101000a900473ffffffffffffffffffffffffffffffffffffffff1673ffffffffffffffffffffffffffffffffffffffff1673ffffffffffffffffffffffffffffffffffffffff16815250509050805f01518160200151826040015183606001519450945094509450509193509193565b5f3373ffffffffffffffffffffffffffffffffffffffff165f808581526020019081526020015f206003015f9054906101000a900473ffffffffffffffffffffffffffffffffffffffff1673ffffffffffffffffffffffffffffffffffffffff1614610d65576040517f08c379a0000000000000000000000000000000000000000000000000000000008152600401610d5c90612467565b60405180910390fd5b604051602001610d749061234d565b604051602081830303815290604052805190602001205f808581526020019081526020015f20600201604051602001610dad91906123e1565b6040516020818303038152906040528051906020012014610e03576040517f08c379a0000000000000000000000000000000000000000000000000000000008152600401610dfa906124cf565b60405180910390fd5b604051602001610e129061234d565b6040516020818303038152906040528051906020012060015f8481526020019081526020015f20600501604051602001610e4c91906123e1565b6040516020818303038152906040528051906020012014610ea2576040517f08c379a0000000000000000000000000000000000000000000000000000000008152600401610e9990612537565b60405180910390fd5b8260015f8481526020019081526020015f206001015414610ef8576040517f08c379a0000000000000000000000000000000000000000000000000000000008152600401610eef906125c5565b60405180910390fd5b6040518060400160405280600981526020017f436f6d706c65746564000000000000000000000000000000000000000000000081525060015f8481526020019081526020015f206005019081610f4e91906120c8565b506040518060400160405280600981526020017f436f6d706c6574656400000000000000000000000000000000000000000000008152505f808581526020019081526020015f206002019081610fa491906120c8565b506040518060a0016040528084815260200183815260200142815260200160015f8581526020019081526020015f206006015f9054906101000a900473ffffffffffffffffffffffffffffffffffffffff1673ffffffffffffffffffffffffffffffffffffffff1681526020015f808681526020019081526020015f206003015f9054906101000a900473ffffffffffffffffffffffffffffffffffffffff1673ffffffffffffffffffffffffffffffffffffffff1681525060025f60055481526020019081526020015f205f820151815f015560208201518160010155604082015181600201556060820151816003015f6101000a81548173ffffffffffffffffffffffffffffffffffffffff021916908373ffffffffffffffffffffffffffffffffffffffff1602179055506080820151816004015f6101000a81548173ffffffffffffffffffffffffffffffffffffffff021916908373ffffffffffffffffffffffffffffffffffffffff1602179055509050505f600554905060055f815480929190611133906121c4565b91905055508091505092915050565b6001602052805f5260405f205f91509050805f01549080600101549080600201805461116d90611efb565b80601f016020809104026020016040519081016040528092919081815260200182805461119990611efb565b80156111e45780601f106111bb576101008083540402835291602001916111e4565b820191905f5260205f20905b8154815290600101906020018083116111c757829003601f168201915b5050505050908060030154908060040180546111ff90611efb565b80601f016020809104026020016040519081016040528092919081815260200182805461122b90611efb565b80156112765780601f1061124d57610100808354040283529160200191611276565b820191905f5260205f20905b81548152906001019060200180831161125957829003601f168201915b50505050509080600501805461128b90611efb565b80601f01602080910402602001604051908101604052809291908181526020018280546112b790611efb565b80156113025780601f106112d957610100808354040283529160200191611302565b820191905f5260205f20905b8154815290600101906020018083116112e557829003601f168201915b505050505090806006015f9054906101000a900473ffffffffffffffffffffffffffffffffffffffff16905087565b6002602052805f5260405f205f91509050805f015490806001015490806002015490806003015f9054906101000a900473ffffffffffffffffffffffffffffffffffffffff1690806004015f9054906101000a900473ffffffffffffffffffffffffffffffffffffffff16905085565b5f602052805f5260405f205f91509050805f0154908060010154908060020180546113cb90611efb565b80601f01602080910402602001604051908101604052809291908181526020018280546113f790611efb565b80156114425780601f1061141957610100808354040283529160200191611442565b820191905f5260205f20905b81548152906001019060200180831161142557829003601f168201915b505050505090806003015f9054906101000a900473ffffffffffffffffffffffffffffffffffffffff16905084565b60055481565b5f3373ffffffffffffffffffffffffffffffffffffffff1660015f8481526020019081526020015f206006015f9054906101000a900473ffffffffffffffffffffffffffffffffffffffff1673ffffffffffffffffffffffffffffffffffffffff1614611519576040517f08c379a000000000000000000000000000000000000000000000000000000000815260040161151090612653565b60405180910390fd5b6040518060400160405280600981526020017f43616e63656c6c6564000000000000000000000000000000000000000000000081525060015f8481526020019081526020015f20600501908161156f91906120c8565b50819050919050565b5f604051806080016040528060035481526020018381526020016040518060400160405280600b81526020017f496e2070726f677265737300000000000000000000000000000000000000000081525081526020013373ffffffffffffffffffffffffffffffffffffffff168152505f8060035481526020019081526020015f205f820151815f015560208201518160010155604082015181600201908161162091906120c8565b506060820151816003015f6101000a81548173ffffffffffffffffffffffffffffffffffffffff021916908373ffffffffffffffffffffffffffffffffffffffff1602179055509050505f600354905060035f815480929190611682906121c4565b919050555080915050919050565b6040518060a001604052805f81526020015f81526020015f81526020015f73ffffffffffffffffffffffffffffffffffffffff1681526020015f73ffffffffffffffffffffffffffffffffffffffff1681525090565b6040518060e001604052805f81526020015f8152602001606081526020015f815260200160608152602001606081526020015f73ffffffffffffffffffffffffffffffffffffffff1681525090565b5f604051905090565b5f80fd5b5f80fd5b5f819050919050565b61175881611746565b8114611762575f80fd5b50565b5f813590506117738161174f565b92915050565b5f80fd5b5f80fd5b5f601f19601f8301169050919050565b7f4e487b71000000000000000000000000000000000000000000000000000000005f52604160045260245ffd5b6117c782611781565b810181811067ffffffffffffffff821117156117e6576117e5611791565b5b80604052505050565b5f6117f8611735565b905061180482826117be565b919050565b5f67ffffffffffffffff82111561182357611822611791565b5b61182c82611781565b9050602081019050919050565b828183375f83830152505050565b5f61185961185484611809565b6117ef565b9050828152602081018484840111156118755761187461177d565b5b611880848285611839565b509392505050565b5f82601f83011261189c5761189b611779565b5b81356118ac848260208601611847565b91505092915050565b5f805f80608085870312156118cd576118cc61173e565b5b5f6118da87828801611765565b945050602085013567ffffffffffffffff8111156118fb576118fa611742565b5b61190787828801611888565b935050604061191887828801611765565b925050606085013567ffffffffffffffff81111561193957611938611742565b5b61194587828801611888565b91505092959194509250565b61195a81611746565b82525050565b5f6020820190506119735f830184611951565b92915050565b5f81519050919050565b5f82825260208201905092915050565b5f819050602082019050919050565b6119ab81611746565b82525050565b5f73ffffffffffffffffffffffffffffffffffffffff82169050919050565b5f6119da826119b1565b9050919050565b6119ea816119d0565b82525050565b60a082015f820151611a045f8501826119a2565b506020820151611a1760208501826119a2565b506040820151611a2a60408501826119a2565b506060820151611a3d60608501826119e1565b506080820151611a5060808501826119e1565b50505050565b5f611a6183836119f0565b60a08301905092915050565b5f602082019050919050565b5f611a8382611979565b611a8d8185611983565b9350611a9883611993565b805f5b83811015611ac8578151611aaf8882611a56565b9750611aba83611a6d565b925050600181019050611a9b565b5085935050505092915050565b5f6020820190508181035f830152611aed8184611a79565b905092915050565b5f60208284031215611b0a57611b0961173e565b5b5f611b1784828501611765565b91505092915050565b5f81519050919050565b5f82825260208201905092915050565b5f819050602082019050919050565b5f81519050919050565b5f82825260208201905092915050565b5f5b83811015611b80578082015181840152602081019050611b65565b5f8484015250505050565b5f611b9582611b49565b611b9f8185611b53565b9350611baf818560208601611b63565b611bb881611781565b840191505092915050565b5f60e083015f830151611bd85f8601826119a2565b506020830151611beb60208601826119a2565b5060408301518482036040860152611c038282611b8b565b9150506060830151611c1860608601826119a2565b5060808301518482036080860152611c308282611b8b565b91505060a083015184820360a0860152611c4a8282611b8b565b91505060c0830151611c5f60c08601826119e1565b508091505092915050565b5f611c758383611bc3565b905092915050565b5f602082019050919050565b5f611c9382611b20565b611c9d8185611b2a565b935083602082028501611caf85611b3a565b805f5b85811015611cea5784840389528151611ccb8582611c6a565b9450611cd683611c7d565b925060208a01995050600181019050611cb2565b50829750879550505050505092915050565b5f6020820190508181035f830152611d148184611c89565b905092915050565b5f82825260208201905092915050565b5f611d3682611b49565b611d408185611d1c565b9350611d50818560208601611b63565b611d5981611781565b840191505092915050565b611d6d816119d0565b82525050565b5f608082019050611d865f830187611951565b611d936020830186611951565b8181036040830152611da58185611d2c565b9050611db46060830184611d64565b95945050505050565b5f8060408385031215611dd357611dd261173e565b5b5f611de085828601611765565b9250506020611df185828601611765565b9150509250929050565b5f60e082019050611e0e5f83018a611951565b611e1b6020830189611951565b8181036040830152611e2d8188611d2c565b9050611e3c6060830187611951565b8181036080830152611e4e8186611d2c565b905081810360a0830152611e628185611d2c565b9050611e7160c0830184611d64565b98975050505050505050565b5f60a082019050611e905f830188611951565b611e9d6020830187611951565b611eaa6040830186611951565b611eb76060830185611d64565b611ec46080830184611d64565b9695505050505050565b7f4e487b71000000000000000000000000000000000000000000000000000000005f52602260045260245ffd5b5f6002820490506001821680611f1257607f821691505b602082108103611f2557611f24611ece565b5b50919050565b5f819050815f5260205f209050919050565b5f6020601f8301049050919050565b5f82821b905092915050565b5f60088302611f877fffffffffffffffffffffffffffffffffffffffffffffffffffffffffffffffff82611f4c565b611f918683611f4c565b95508019841693508086168417925050509392505050565b5f819050919050565b5f611fcc611fc7611fc284611746565b611fa9565b611746565b9050919050565b5f819050919050565b611fe583611fb2565b611ff9611ff182611fd3565b848454611f58565b825550505050565b5f90565b61200d612001565b612018818484611fdc565b505050565b5b8181101561203b576120305f82612005565b60018101905061201e565b5050565b601f8211156120805761205181611f2b565b61205a84611f3d565b81016020851015612069578190505b61207d61207585611f3d565b83018261201d565b50505b505050565b5f82821c905092915050565b5f6120a05f1984600802612085565b1980831691505092915050565b5f6120b88383612091565b9150826002028217905092915050565b6120d182611b49565b67ffffffffffffffff8111156120ea576120e9611791565b5b6120f48254611efb565b6120ff82828561203f565b5f60209050601f831160018114612130575f841561211e578287015190505b61212885826120ad565b86555061218f565b601f19841661213e86611f2b565b5f5b8281101561216557848901518255600182019150602085019450602081019050612140565b86831015612182578489015161217e601f891682612091565b8355505b6001600288020188555050505b505050505050565b7f4e487b71000000000000000000000000000000000000000000000000000000005f52601160045260245ffd5b5f6121ce82611746565b91507fffffffffffffffffffffffffffffffffffffffffffffffffffffffffffffffff8203612200576121ff612197565b5b600182019050919050565b5f61221582611746565b915061222083611746565b925082820390508181111561223857612237612197565b5b92915050565b7f4e487b71000000000000000000000000000000000000000000000000000000005f52603260045260245ffd5b7f4f6e6c79207468652070726f636573736f722077686f206372656174656420745f8201527f6865206f726465722063616e2063616e63656c20697400000000000000000000602082015250565b5f6122c5603683611d1c565b91506122d08261226b565b604082019050919050565b5f6020820190508181035f8301526122f2816122b9565b9050919050565b5f81905092915050565b7f496e2070726f67726573730000000000000000000000000000000000000000005f82015250565b5f612337600b836122f9565b915061234282612303565b600b82019050919050565b5f6123578261232b565b9150819050919050565b5f815461236d81611efb565b61237781866122f9565b9450600182165f811461239157600181146123a6576123d8565b60ff19831686528115158202860193506123d8565b6123af85611f2b565b5f5b838110156123d0578154818901526001820191506020810190506123b1565b838801955050505b50505092915050565b5f6123ec8284612361565b915081905092915050565b7f4f6e6c79207468652070726f636573736f722077686f206372656174656420745f8201527f6865206f726465722063616e20616363657074206f6666657273000000000000602082015250565b5f612451603a83611d1c565b915061245c826123f7565b604082019050919050565b5f6020820190508181035f83015261247e81612445565b9050919050565b7f4f72646572206d75737420626520696e2070726f6772657373000000000000005f82015250565b5f6124b9601983611d1c565b91506124c482612485565b602082019050919050565b5f6020820190508181035f8301526124e6816124ad565b9050919050565b7f4f66666572206d75737420626520696e2070726f6772657373000000000000005f82015250565b5f612521601983611d1c565b915061252c826124ed565b602082019050919050565b5f6020820190508181035f83015261254e81612515565b9050919050565b7f4f66666572206d75737420636f72726573706f6e6420746f20746865206f72645f8201527f6572000000000000000000000000000000000000000000000000000000000000602082015250565b5f6125af602283611d1c565b91506125ba82612555565b604082019050919050565b5f6020820190508181035f8301526125dc816125a3565b9050919050565b7f4f6e6c7920746865206661726d65722077686f206372656174656420746865205f8201527f6f666665722063616e2063616e63656c20697400000000000000000000000000602082015250565b5f61263d603383611d1c565b9150612648826125e3565b604082019050919050565b5f6020820190508181035f83015261266a81612631565b905091905056fea264697066735822122024df4542d51b4e5f006a2854f4dbbb81275dcbe71e89fc5494b667529c96ec2464736f6c63430008140033",
  "immutableReferences": {},
  "source": "// SPDX-License-Identifier: MIT\r\npragma solidity ^0.8.0;\r\n\r\ncontract FarmerProcessor {\r\n    struct Order {\r\n        uint id;\r\n        uint quantity;\r\n        string status;\r\n        address processor;\r\n    }\r\n\r\n    struct Offer {\r\n        uint id;\r\n        uint orderId;\r\n        string productionDate;\r\n        uint pricePerLiter;\r\n        string origin;\r\n        string status;\r\n        address farmer;\r\n    }\r\n\r\n    struct Transaction {\r\n        uint orderId;\r\n        uint offerId;\r\n        uint timestamp;\r\n        address farmer;\r\n        address processor;\r\n    }\r\n\r\n    mapping(uint => Order) public orders;\r\n    mapping(uint => Offer) public offers;\r\n    mapping(uint => Transaction) public transactions;\r\n    uint public nextOrderId = 1;\r\n    uint public nextOfferId = 1;\r\n    uint public nextTransactionId = 1;\r\n\r\n    /**\r\n     * @dev Processor can create a new order\r\n     * @param _quantity The quantity of milk (In Litre)\r\n     * @return The id of the created order\r\n     */\r\n    function createOrder(uint _quantity) public returns (uint) {\r\n        orders[nextOrderId] = Order(\r\n            nextOrderId,\r\n            _quantity,\r\n            \"In progress\",\r\n            msg.sender\r\n        );\r\n        uint current = nextOrderId;\r\n        nextOrderId++;\r\n        return current;\r\n    }\r\n\r\n    /**\r\n     * @dev Processor can cancel an existing order\r\n     * @param _orderId The id of the order to cancel\r\n     * @return The id of the cancelled order\r\n     */\r\n    function cancelOrder(uint _orderId) public returns (uint) {\r\n        require(\r\n            orders[_orderId].processor == msg.sender,\r\n            \"Only the processor who created the order can cancel it\"\r\n        );\r\n        orders[_orderId].status = \"Cancelled\";\r\n        return _orderId;\r\n    }\r\n\r\n    /**\r\n     * @dev Processor can view an existing order\r\n     * @param _orderId The id of the order\r\n     * @return Order information\r\n     */\r\n    function viewOrder(\r\n        uint _orderId\r\n    ) public view returns (uint, uint, string memory, address) {\r\n        Order memory order = orders[_orderId];\r\n        return (order.id, order.quantity, order.status, order.processor);\r\n    }\r\n\r\n    /**\r\n     * @dev Farmer can create a offer\r\n     * @param _orderId The id of the order this offer is related to\r\n     * @param _productionDate The production date of milk\r\n     * @param _pricePerLiter The price per liter of milk\r\n     * @param _origin The origin of the milk\r\n     * @return The id of the created offer\r\n     */\r\n    function createOffer(\r\n        uint _orderId,\r\n        string memory _productionDate,\r\n        uint _pricePerLiter,\r\n        string memory _origin\r\n    ) public returns (uint) {\r\n        offers[nextOfferId] = Offer(\r\n            nextOfferId,\r\n            _orderId,\r\n            _productionDate,\r\n            _pricePerLiter,\r\n            _origin,\r\n            \"In progress\",\r\n            msg.sender\r\n        );\r\n        uint current = nextOfferId;\r\n        nextOfferId++;\r\n        return current;\r\n    }\r\n\r\n    /**\r\n     * @dev Farmer can cancel an existing offer\r\n     * @param _offerId The id of the offer to cancel\r\n     * @return The id of the cancelled offer\r\n     */\r\n    function cancelOffer(uint _offerId) public returns (uint) {\r\n        require(\r\n            offers[_offerId].farmer == msg.sender,\r\n            \"Only the farmer who created the offer can cancel it\"\r\n        );\r\n        offers[_offerId].status = \"Cancelled\";\r\n        return _offerId;\r\n    }\r\n\r\n    /**\r\n     * @dev Processors can list all the offers for their specific order\r\n     * @param _orderId The id of the order\r\n     * @return An array of Offer structs for the given order\r\n     */\r\n    function viewOffers(uint _orderId) public view returns (Offer[] memory) {\r\n        uint offerCount = 0;\r\n        for (uint i = 1; i < nextOfferId; i++) {\r\n            if (\r\n                offers[i].orderId == _orderId &&\r\n                keccak256(abi.encodePacked(offers[i].status)) ==\r\n                keccak256(abi.encodePacked(\"In progress\"))\r\n            ) {\r\n                offerCount++;\r\n            }\r\n        }\r\n\r\n        Offer[] memory activeOffers = new Offer[](offerCount);\r\n        uint counter = 0;\r\n        for (uint i = 1; i < nextOfferId; i++) {\r\n            if (\r\n                offers[i].orderId == _orderId &&\r\n                keccak256(abi.encodePacked(offers[i].status)) ==\r\n                keccak256(abi.encodePacked(\"In progress\"))\r\n            ) {\r\n                activeOffers[counter] = offers[i];\r\n                counter++;\r\n            }\r\n        }\r\n\r\n        return activeOffers;\r\n    }\r\n\r\n    /**\r\n     * @dev Processor can accpet a satisfying offer and make a transaction\r\n     * @param _orderId The id of the order\r\n     * @param _offerId The id of the offer\r\n     * @return The id of the created transaction\r\n     */\r\n    function acceptOffer(uint _orderId, uint _offerId) public returns (uint) {\r\n        require(\r\n            orders[_orderId].processor == msg.sender,\r\n            \"Only the processor who created the order can accept offers\"\r\n        );\r\n        require(\r\n            keccak256(abi.encodePacked(orders[_orderId].status)) ==\r\n                keccak256(abi.encodePacked(\"In progress\")),\r\n            \"Order must be in progress\"\r\n        );\r\n        require(\r\n            keccak256(abi.encodePacked(offers[_offerId].status)) ==\r\n                keccak256(abi.encodePacked(\"In progress\")),\r\n            \"Offer must be in progress\"\r\n        );\r\n        require(\r\n            offers[_offerId].orderId == _orderId,\r\n            \"Offer must correspond to the order\"\r\n        );\r\n\r\n        offers[_offerId].status = \"Completed\";\r\n        orders[_orderId].status = \"Completed\";\r\n        transactions[nextTransactionId] = Transaction(\r\n            _orderId,\r\n            _offerId,\r\n            block.timestamp,\r\n            offers[_offerId].farmer,\r\n            orders[_orderId].processor\r\n        );\r\n        uint currentTransactionId = nextTransactionId;\r\n        nextTransactionId++;\r\n        return currentTransactionId;\r\n    }\r\n\r\n    /**\r\n     * @dev Returns all the transactions\r\n     * @return An array of all Transaction structs\r\n     */\r\n    function getAllTransactions() public view returns (Transaction[] memory) {\r\n        Transaction[] memory transactionsArray = new Transaction[](\r\n            nextTransactionId\r\n        );\r\n        for (uint i = 1; i < nextTransactionId; i++) {\r\n            transactionsArray[i - 1] = transactions[i];\r\n        }\r\n        return transactionsArray;\r\n    }\r\n}\r\n",
  "sourcePath": "/Users/kathysmbp/Desktop/comp6452Project2Final/contracts/FarmerProcessor.sol",
  "compiler": {
    "name": "solc",
    "version": "0.8.20+commit.a1b79de6.Emscripten.clang"
  },
  "schemaVersion": "3.4.14",
  "updatedAt": "2023-07-25T06:30:59.036Z",
  "networkType": "ethereum",
  "devdoc": {
    "kind": "dev",
    "methods": {
      "acceptOffer(uint256,uint256)": {
        "details": "Processor can accpet a satisfying offer and make a transaction",
        "params": {
          "_offerId": "The id of the offer",
          "_orderId": "The id of the order"
        },
        "returns": {
          "_0": "The id of the created transaction"
        }
      },
      "cancelOffer(uint256)": {
        "details": "Farmer can cancel an existing offer",
        "params": {
          "_offerId": "The id of the offer to cancel"
        },
        "returns": {
          "_0": "The id of the cancelled offer"
        }
      },
      "cancelOrder(uint256)": {
        "details": "Processor can cancel an existing order",
        "params": {
          "_orderId": "The id of the order to cancel"
        },
        "returns": {
          "_0": "The id of the cancelled order"
        }
      },
      "createOffer(uint256,string,uint256,string)": {
        "details": "Farmer can create a offer",
        "params": {
          "_orderId": "The id of the order this offer is related to",
          "_origin": "The origin of the milk",
          "_pricePerLiter": "The price per liter of milk",
          "_productionDate": "The production date of milk"
        },
        "returns": {
          "_0": "The id of the created offer"
        }
      },
      "createOrder(uint256)": {
        "details": "Processor can create a new order",
        "params": {
          "_quantity": "The quantity of milk (In Litre)"
        },
        "returns": {
          "_0": "The id of the created order"
        }
      },
      "getAllTransactions()": {
        "details": "Returns all the transactions",
        "returns": {
          "_0": "An array of all Transaction structs"
        }
      },
      "viewOffers(uint256)": {
        "details": "Processors can list all the offers for their specific order",
        "params": {
          "_orderId": "The id of the order"
        },
        "returns": {
          "_0": "An array of Offer structs for the given order"
        }
      },
      "viewOrder(uint256)": {
        "details": "Processor can view an existing order",
        "params": {
          "_orderId": "The id of the order"
        },
        "returns": {
          "_0": "Order information"
        }
      }
    },
    "version": 1
  },
  "userdoc": {
    "kind": "user",
    "methods": {},
    "version": 1
  }
}