{
  "contractName": "FarmerProcessorDelegate",
  "abi": [
    {
      "inputs": [
        {
          "internalType": "address",
          "name": "_farmerProcessorAddress",
          "type": "address"
        }
      ],
      "stateMutability": "nonpayable",
      "type": "constructor"
    },
    {
      "inputs": [],
      "name": "delegate",
      "outputs": [
        {
          "internalType": "contract FarmerProcessor",
          "name": "",
          "type": "address"
        }
      ],
      "stateMutability": "view",
      "type": "function",
      "constant": true
    },
    {
      "inputs": [
        {
          "internalType": "uint256",
          "name": "_quantity",
          "type": "uint256"
        }
      ],
      "name": "createOrder",
      "outputs": [
        {
          "internalType": "uint256",
          "name": "",
          "type": "uint256"
        }
      ],
      "stateMutability": "nonpayable",
      "type": "function"
    },
    {
      "inputs": [
        {
          "internalType": "uint256",
          "name": "_orderId",
          "type": "uint256"
        }
      ],
      "name": "cancelOrder",
      "outputs": [
        {
          "internalType": "uint256",
          "name": "",
          "type": "uint256"
        }
      ],
      "stateMutability": "nonpayable",
      "type": "function"
    },
    {
      "inputs": [
        {
          "internalType": "uint256",
          "name": "_orderId",
          "type": "uint256"
        }
      ],
      "name": "viewOrder",
      "outputs": [
        {
          "internalType": "uint256",
          "name": "",
          "type": "uint256"
        },
        {
          "internalType": "uint256",
          "name": "",
          "type": "uint256"
        },
        {
          "internalType": "string",
          "name": "",
          "type": "string"
        },
        {
          "internalType": "address",
          "name": "",
          "type": "address"
        }
      ],
      "stateMutability": "view",
      "type": "function",
      "constant": true
    },
    {
      "inputs": [
        {
          "internalType": "uint256",
          "name": "_orderId",
          "type": "uint256"
        },
        {
          "internalType": "string",
          "name": "_productionDate",
          "type": "string"
        },
        {
          "internalType": "uint256",
          "name": "_pricePerLiter",
          "type": "uint256"
        },
        {
          "internalType": "string",
          "name": "_origin",
          "type": "string"
        }
      ],
      "name": "createOffer",
      "outputs": [
        {
          "internalType": "uint256",
          "name": "",
          "type": "uint256"
        }
      ],
      "stateMutability": "nonpayable",
      "type": "function"
    },
    {
      "inputs": [
        {
          "internalType": "uint256",
          "name": "_offerId",
          "type": "uint256"
        }
      ],
      "name": "cancelOffer",
      "outputs": [
        {
          "internalType": "uint256",
          "name": "",
          "type": "uint256"
        }
      ],
      "stateMutability": "nonpayable",
      "type": "function"
    },
    {
      "inputs": [
        {
          "internalType": "uint256",
          "name": "_orderId",
          "type": "uint256"
        }
      ],
      "name": "viewOffers",
      "outputs": [
        {
          "components": [
            {
              "internalType": "uint256",
              "name": "id",
              "type": "uint256"
            },
            {
              "internalType": "uint256",
              "name": "orderId",
              "type": "uint256"
            },
            {
              "internalType": "string",
              "name": "productionDate",
              "type": "string"
            },
            {
              "internalType": "uint256",
              "name": "pricePerLiter",
              "type": "uint256"
            },
            {
              "internalType": "string",
              "name": "origin",
              "type": "string"
            },
            {
              "internalType": "string",
              "name": "status",
              "type": "string"
            },
            {
              "internalType": "address",
              "name": "farmer",
              "type": "address"
            }
          ],
          "internalType": "struct FarmerProcessor.Offer[]",
          "name": "",
          "type": "tuple[]"
        }
      ],
      "stateMutability": "view",
      "type": "function",
      "constant": true
    },
    {
      "inputs": [
        {
          "internalType": "uint256",
          "name": "_orderId",
          "type": "uint256"
        },
        {
          "internalType": "uint256",
          "name": "_offerId",
          "type": "uint256"
        }
      ],
      "name": "acceptOffer",
      "outputs": [
        {
          "internalType": "uint256",
          "name": "",
          "type": "uint256"
        }
      ],
      "stateMutability": "nonpayable",
      "type": "function"
    },
    {
      "inputs": [],
      "name": "getAllTransactions",
      "outputs": [
        {
          "components": [
            {
              "internalType": "uint256",
              "name": "orderId",
              "type": "uint256"
            },
            {
              "internalType": "uint256",
              "name": "offerId",
              "type": "uint256"
            },
            {
              "internalType": "uint256",
              "name": "timestamp",
              "type": "uint256"
            },
            {
              "internalType": "address",
              "name": "farmer",
              "type": "address"
            },
            {
              "internalType": "address",
              "name": "processor",
              "type": "address"
            }
          ],
          "internalType": "struct FarmerProcessor.Transaction[]",
          "name": "",
          "type": "tuple[]"
        }
      ],
      "stateMutability": "view",
      "type": "function",
      "constant": true
    }
  ],
  "bytecode": "0x608060405234801562000010575f80fd5b5060405162001584380380620015848339818101604052810190620000369190620000e1565b805f806101000a81548173ffffffffffffffffffffffffffffffffffffffff021916908373ffffffffffffffffffffffffffffffffffffffff1602179055505062000111565b5f80fd5b5f73ffffffffffffffffffffffffffffffffffffffff82169050919050565b5f620000ab8262000080565b9050919050565b620000bd816200009f565b8114620000c8575f80fd5b50565b5f81519050620000db81620000b2565b92915050565b5f60208284031215620000f957620000f86200007c565b5b5f6200010884828501620000cb565b91505092915050565b611465806200011f5f395ff3fe608060405234801561000f575f80fd5b5060043610610091575f3560e01c80637c38d663116100645780637c38d6631461014357806381257bd514610176578063c89e4361146101a6578063ef706adf146101c4578063f8ad8cd7146101f457610091565b8063133cc4fa1461009557806327506f53146100c5578063514fcac7146100e357806361b8012914610113575b5f80fd5b6100af60048036038101906100aa91906108e0565b610224565b6040516100bc919061098b565b60405180910390f35b6100cd6102ce565b6040516100da9190610b00565b60405180910390f35b6100fd60048036038101906100f89190610b20565b610364565b60405161010a919061098b565b60405180910390f35b61012d60048036038101906101289190610b20565b610405565b60405161013a9190610d27565b60405180910390f35b61015d60048036038101906101589190610b20565b6104a8565b60405161016d9493929190610d9e565b60405180910390f35b610190600480360381019061018b9190610de8565b610557565b60405161019d919061098b565b60405180910390f35b6101ae6105fb565b6040516101bb9190610e81565b60405180910390f35b6101de60048036038101906101d99190610b20565b61061e565b6040516101eb919061098b565b60405180910390f35b61020e60048036038101906102099190610b20565b6106bf565b60405161021b919061098b565b60405180910390f35b5f805f9054906101000a900473ffffffffffffffffffffffffffffffffffffffff1673ffffffffffffffffffffffffffffffffffffffff1663133cc4fa868686866040518563ffffffff1660e01b81526004016102849493929190610e9a565b6020604051808303815f875af11580156102a0573d5f803e3d5ffd5b505050506040513d601f19601f820116820180604052508101906102c49190610eff565b9050949350505050565b60605f8054906101000a900473ffffffffffffffffffffffffffffffffffffffff1673ffffffffffffffffffffffffffffffffffffffff166327506f536040518163ffffffff1660e01b81526004015f60405180830381865afa158015610337573d5f803e3d5ffd5b505050506040513d5f823e3d601f19601f8201168201806040525081019061035f91906110a9565b905090565b5f805f9054906101000a900473ffffffffffffffffffffffffffffffffffffffff1673ffffffffffffffffffffffffffffffffffffffff1663514fcac7836040518263ffffffff1660e01b81526004016103be919061098b565b6020604051808303815f875af11580156103da573d5f803e3d5ffd5b505050506040513d601f19601f820116820180604052508101906103fe9190610eff565b9050919050565b60605f8054906101000a900473ffffffffffffffffffffffffffffffffffffffff1673ffffffffffffffffffffffffffffffffffffffff166361b80129836040518263ffffffff1660e01b815260040161045f919061098b565b5f60405180830381865afa158015610479573d5f803e3d5ffd5b505050506040513d5f823e3d601f19601f820116820180604052508101906104a19190611341565b9050919050565b5f8060605f805f9054906101000a900473ffffffffffffffffffffffffffffffffffffffff1673ffffffffffffffffffffffffffffffffffffffff16637c38d663866040518263ffffffff1660e01b8152600401610506919061098b565b5f60405180830381865afa158015610520573d5f803e3d5ffd5b505050506040513d5f823e3d601f19601f820116820180604052508101906105489190611388565b93509350935093509193509193565b5f805f9054906101000a900473ffffffffffffffffffffffffffffffffffffffff1673ffffffffffffffffffffffffffffffffffffffff166381257bd584846040518363ffffffff1660e01b81526004016105b3929190611408565b6020604051808303815f875af11580156105cf573d5f803e3d5ffd5b505050506040513d601f19601f820116820180604052508101906105f39190610eff565b905092915050565b5f8054906101000a900473ffffffffffffffffffffffffffffffffffffffff1681565b5f805f9054906101000a900473ffffffffffffffffffffffffffffffffffffffff1673ffffffffffffffffffffffffffffffffffffffff1663ef706adf836040518263ffffffff1660e01b8152600401610678919061098b565b6020604051808303815f875af1158015610694573d5f803e3d5ffd5b505050506040513d601f19601f820116820180604052508101906106b89190610eff565b9050919050565b5f805f9054906101000a900473ffffffffffffffffffffffffffffffffffffffff1673ffffffffffffffffffffffffffffffffffffffff1663f8ad8cd7836040518263ffffffff1660e01b8152600401610719919061098b565b6020604051808303815f875af1158015610735573d5f803e3d5ffd5b505050506040513d601f19601f820116820180604052508101906107599190610eff565b9050919050565b5f604051905090565b5f80fd5b5f80fd5b5f819050919050565b61078381610771565b811461078d575f80fd5b50565b5f8135905061079e8161077a565b92915050565b5f80fd5b5f80fd5b5f601f19601f8301169050919050565b7f4e487b71000000000000000000000000000000000000000000000000000000005f52604160045260245ffd5b6107f2826107ac565b810181811067ffffffffffffffff82111715610811576108106107bc565b5b80604052505050565b5f610823610760565b905061082f82826107e9565b919050565b5f67ffffffffffffffff82111561084e5761084d6107bc565b5b610857826107ac565b9050602081019050919050565b828183375f83830152505050565b5f61088461087f84610834565b61081a565b9050828152602081018484840111156108a05761089f6107a8565b5b6108ab848285610864565b509392505050565b5f82601f8301126108c7576108c66107a4565b5b81356108d7848260208601610872565b91505092915050565b5f805f80608085870312156108f8576108f7610769565b5b5f61090587828801610790565b945050602085013567ffffffffffffffff8111156109265761092561076d565b5b610932878288016108b3565b935050604061094387828801610790565b925050606085013567ffffffffffffffff8111156109645761096361076d565b5b610970878288016108b3565b91505092959194509250565b61098581610771565b82525050565b5f60208201905061099e5f83018461097c565b92915050565b5f81519050919050565b5f82825260208201905092915050565b5f819050602082019050919050565b6109d681610771565b82525050565b5f73ffffffffffffffffffffffffffffffffffffffff82169050919050565b5f610a05826109dc565b9050919050565b610a15816109fb565b82525050565b60a082015f820151610a2f5f8501826109cd565b506020820151610a4260208501826109cd565b506040820151610a5560408501826109cd565b506060820151610a686060850182610a0c565b506080820151610a7b6080850182610a0c565b50505050565b5f610a8c8383610a1b565b60a08301905092915050565b5f602082019050919050565b5f610aae826109a4565b610ab881856109ae565b9350610ac3836109be565b805f5b83811015610af3578151610ada8882610a81565b9750610ae583610a98565b925050600181019050610ac6565b5085935050505092915050565b5f6020820190508181035f830152610b188184610aa4565b905092915050565b5f60208284031215610b3557610b34610769565b5b5f610b4284828501610790565b91505092915050565b5f81519050919050565b5f82825260208201905092915050565b5f819050602082019050919050565b5f81519050919050565b5f82825260208201905092915050565b5f5b83811015610bab578082015181840152602081019050610b90565b5f8484015250505050565b5f610bc082610b74565b610bca8185610b7e565b9350610bda818560208601610b8e565b610be3816107ac565b840191505092915050565b5f60e083015f830151610c035f8601826109cd565b506020830151610c1660208601826109cd565b5060408301518482036040860152610c2e8282610bb6565b9150506060830151610c4360608601826109cd565b5060808301518482036080860152610c5b8282610bb6565b91505060a083015184820360a0860152610c758282610bb6565b91505060c0830151610c8a60c0860182610a0c565b508091505092915050565b5f610ca08383610bee565b905092915050565b5f602082019050919050565b5f610cbe82610b4b565b610cc88185610b55565b935083602082028501610cda85610b65565b805f5b85811015610d155784840389528151610cf68582610c95565b9450610d0183610ca8565b925060208a01995050600181019050610cdd565b50829750879550505050505092915050565b5f6020820190508181035f830152610d3f8184610cb4565b905092915050565b5f82825260208201905092915050565b5f610d6182610b74565b610d6b8185610d47565b9350610d7b818560208601610b8e565b610d84816107ac565b840191505092915050565b610d98816109fb565b82525050565b5f608082019050610db15f83018761097c565b610dbe602083018661097c565b8181036040830152610dd08185610d57565b9050610ddf6060830184610d8f565b95945050505050565b5f8060408385031215610dfe57610dfd610769565b5b5f610e0b85828601610790565b9250506020610e1c85828601610790565b9150509250929050565b5f819050919050565b5f610e49610e44610e3f846109dc565b610e26565b6109dc565b9050919050565b5f610e5a82610e2f565b9050919050565b5f610e6b82610e50565b9050919050565b610e7b81610e61565b82525050565b5f602082019050610e945f830184610e72565b92915050565b5f608082019050610ead5f83018761097c565b8181036020830152610ebf8186610d57565b9050610ece604083018561097c565b8181036060830152610ee08184610d57565b905095945050505050565b5f81519050610ef98161077a565b92915050565b5f60208284031215610f1457610f13610769565b5b5f610f2184828501610eeb565b91505092915050565b5f67ffffffffffffffff821115610f4457610f436107bc565b5b602082029050602081019050919050565b5f80fd5b5f80fd5b5f80fd5b610f6a816109fb565b8114610f74575f80fd5b50565b5f81519050610f8581610f61565b92915050565b5f60a08284031215610fa057610f9f610f59565b5b610faa60a061081a565b90505f610fb984828501610eeb565b5f830152506020610fcc84828501610eeb565b6020830152506040610fe084828501610eeb565b6040830152506060610ff484828501610f77565b606083015250608061100884828501610f77565b60808301525092915050565b5f61102661102184610f2a565b61081a565b90508083825260208201905060a0840283018581111561104957611048610f55565b5b835b81811015611072578061105e8882610f8b565b84526020840193505060a08101905061104b565b5050509392505050565b5f82601f8301126110905761108f6107a4565b5b81516110a0848260208601611014565b91505092915050565b5f602082840312156110be576110bd610769565b5b5f82015167ffffffffffffffff8111156110db576110da61076d565b5b6110e78482850161107c565b91505092915050565b5f67ffffffffffffffff82111561110a576111096107bc565b5b602082029050602081019050919050565b5f61112d61112884610834565b61081a565b905082815260208101848484011115611149576111486107a8565b5b611154848285610b8e565b509392505050565b5f82601f8301126111705761116f6107a4565b5b815161118084826020860161111b565b91505092915050565b5f60e0828403121561119e5761119d610f59565b5b6111a860e061081a565b90505f6111b784828501610eeb565b5f8301525060206111ca84828501610eeb565b602083015250604082015167ffffffffffffffff8111156111ee576111ed610f5d565b5b6111fa8482850161115c565b604083015250606061120e84828501610eeb565b606083015250608082015167ffffffffffffffff81111561123257611231610f5d565b5b61123e8482850161115c565b60808301525060a082015167ffffffffffffffff81111561126257611261610f5d565b5b61126e8482850161115c565b60a08301525060c061128284828501610f77565b60c08301525092915050565b5f6112a061129b846110f0565b61081a565b905080838252602082019050602084028301858111156112c3576112c2610f55565b5b835b8181101561130a57805167ffffffffffffffff8111156112e8576112e76107a4565b5b8086016112f58982611189565b855260208501945050506020810190506112c5565b5050509392505050565b5f82601f830112611328576113276107a4565b5b815161133884826020860161128e565b91505092915050565b5f6020828403121561135657611355610769565b5b5f82015167ffffffffffffffff8111156113735761137261076d565b5b61137f84828501611314565b91505092915050565b5f805f80608085870312156113a05761139f610769565b5b5f6113ad87828801610eeb565b94505060206113be87828801610eeb565b935050604085015167ffffffffffffffff8111156113df576113de61076d565b5b6113eb8782880161115c565b92505060606113fc87828801610f77565b91505092959194509250565b5f60408201905061141b5f83018561097c565b611428602083018461097c565b939250505056fea26469706673582212201b520f1cd61cfd111b7175aea0dd92b93601e824086a1a53700b75e4b00fab3e64736f6c63430008140033",
  "immutableReferences": {},
  "source": "// SPDX-License-Identifier: MIT\r\npragma solidity ^0.8.0;\r\n\r\nimport \"./FarmerProcessor.sol\";\r\n\r\ncontract FarmerProcessorDelegate {\r\n    FarmerProcessor public delegate;\r\n\r\n    constructor(address _farmerProcessorAddress) {\r\n        delegate = FarmerProcessor(_farmerProcessorAddress);\r\n    }\r\n\r\n    function createOrder(uint _quantity) public returns(uint) {\r\n        return delegate.createOrder(_quantity);\r\n    }\r\n\r\n    function cancelOrder(uint _orderId) public returns (uint){\r\n        return delegate.cancelOrder(_orderId);\r\n    }\r\n\r\n    function viewOrder(\r\n        uint _orderId\r\n    ) public view returns (uint, uint, string memory, address) {\r\n        return delegate.viewOrder(_orderId);\r\n    }\r\n\r\n    function createOffer(uint _orderId, string memory _productionDate, uint _pricePerLiter, string memory _origin) public returns(uint){\r\n        return delegate.createOffer(_orderId, _productionDate, _pricePerLiter, _origin);\r\n    }\r\n\r\n    function cancelOffer(uint _offerId) public returns (uint){\r\n        return delegate.cancelOffer(_offerId);\r\n    }\r\n\r\n    function viewOffers(uint _orderId) public view returns (FarmerProcessor.Offer[] memory) {\r\n        return delegate.viewOffers(_orderId);\r\n    }\r\n\r\n    function acceptOffer(uint _orderId, uint _offerId) public returns (uint) {\r\n        return delegate.acceptOffer(_orderId, _offerId);\r\n    }\r\n\r\n    function getAllTransactions() public view returns (FarmerProcessor.Transaction[] memory) {\r\n        return delegate.getAllTransactions();\r\n    }\r\n}\r\n\r\n",
  "sourcePath": "/Users/kathysmbp/Desktop/comp6452Project2Final/contracts/FarmerProcessorDelegate.sol",
  "compiler": {
    "name": "solc",
    "version": "0.8.20+commit.a1b79de6.Emscripten.clang"
  },
  "schemaVersion": "3.4.14",
  "updatedAt": "2023-07-25T06:30:59.050Z",
  "networkType": "ethereum",
  "devdoc": {
    "kind": "dev",
    "methods": {},
    "version": 1
  },
  "userdoc": {
    "kind": "user",
    "methods": {},
    "version": 1
  }
}