{
  "contractName": "Incident",
  "abi": [
    {
      "inputs": [
        {
          "internalType": "address",
          "name": "_farmerProcessorAddress",
          "type": "address"
        },
        {
          "internalType": "address",
          "name": "_processorRetailerAddress",
          "type": "address"
        },
        {
          "internalType": "address",
          "name": "_retailerCustomerAddress",
          "type": "address"
        }
      ],
      "stateMutability": "nonpayable",
      "type": "constructor"
    },
    {
      "inputs": [],
      "name": "farmerProcessor",
      "outputs": [
        {
          "internalType": "contract FarmerProcessor",
          "name": "",
          "type": "address"
        }
      ],
      "stateMutability": "view",
      "type": "function"
    },
    {
      "inputs": [],
      "name": "processorRetailer",
      "outputs": [
        {
          "internalType": "contract ProcessorRetailer",
          "name": "",
          "type": "address"
        }
      ],
      "stateMutability": "view",
      "type": "function"
    },
    {
      "inputs": [],
      "name": "retailerCustomer",
      "outputs": [
        {
          "internalType": "contract RetailerCustomer",
          "name": "",
          "type": "address"
        }
      ],
      "stateMutability": "view",
      "type": "function"
    },
    {
      "inputs": [
        {
          "internalType": "uint256",
          "name": "offerId",
          "type": "uint256"
        }
      ],
      "name": "trace",
      "outputs": [
        {
          "components": [
            {
              "internalType": "uint256",
              "name": "orderId",
              "type": "uint256"
            },
            {
              "internalType": "uint256",
              "name": "offerId",
              "type": "uint256"
            },
            {
              "internalType": "uint256",
              "name": "timestamp",
              "type": "uint256"
            },
            {
              "internalType": "address",
              "name": "farmer",
              "type": "address"
            },
            {
              "internalType": "address",
              "name": "processor",
              "type": "address"
            }
          ],
          "internalType": "struct FarmerProcessor.Transaction",
          "name": "",
          "type": "tuple"
        },
        {
          "components": [
            {
              "internalType": "uint256",
              "name": "orderId",
              "type": "uint256"
            },
            {
              "internalType": "uint256",
              "name": "offerId",
              "type": "uint256"
            },
            {
              "internalType": "uint256[]",
              "name": "offerIds",
              "type": "uint256[]"
            },
            {
              "internalType": "uint256",
              "name": "timestamp",
              "type": "uint256"
            },
            {
              "internalType": "address",
              "name": "processor",
              "type": "address"
            },
            {
              "internalType": "address",
              "name": "retailer",
              "type": "address"
            }
          ],
          "internalType": "struct ProcessorRetailer.Transaction[]",
          "name": "",
          "type": "tuple[]"
        },
        {
          "components": [
            {
              "internalType": "uint256",
              "name": "productType",
              "type": "uint256"
            },
            {
              "internalType": "uint256",
              "name": "quantity",
              "type": "uint256"
            },
            {
              "internalType": "uint256[]",
              "name": "offerIds",
              "type": "uint256[]"
            },
            {
              "internalType": "string",
              "name": "status",
              "type": "string"
            },
            {
              "internalType": "address",
              "name": "customer",
              "type": "address"
            },
            {
              "internalType": "address",
              "name": "retailer",
              "type": "address"
            }
          ],
          "internalType": "struct RetailerCustomer.Transaction[]",
          "name": "",
          "type": "tuple[]"
        }
      ],
      "stateMutability": "view",
      "type": "function"
    }
  ],
  "bytecode": "0x608060405234801562000010575f80fd5b506040516200175c3803806200175c833981810160405281019062000036919062000163565b825f806101000a81548173ffffffffffffffffffffffffffffffffffffffff021916908373ffffffffffffffffffffffffffffffffffffffff1602179055508160015f6101000a81548173ffffffffffffffffffffffffffffffffffffffff021916908373ffffffffffffffffffffffffffffffffffffffff1602179055508060025f6101000a81548173ffffffffffffffffffffffffffffffffffffffff021916908373ffffffffffffffffffffffffffffffffffffffff160217905550505050620001bc565b5f80fd5b5f73ffffffffffffffffffffffffffffffffffffffff82169050919050565b5f6200012d8262000102565b9050919050565b6200013f8162000121565b81146200014a575f80fd5b50565b5f815190506200015d8162000134565b92915050565b5f805f606084860312156200017d576200017c620000fe565b5b5f6200018c868287016200014d565b93505060206200019f868287016200014d565b9250506040620001b2868287016200014d565b9150509250925092565b61159280620001ca5f395ff3fe608060405234801561000f575f80fd5b506004361061004a575f3560e01c8063a68a4fed1461004e578063ce48bce014610080578063d68405da1461009e578063e2e3b9c3146100bc575b5f80fd5b61006860048036038101906100639190610768565b6100da565b60405161007793929190610c02565b60405180910390f35b6100886105a6565b6040516100959190610ca0565b60405180910390f35b6100a66105cb565b6040516100b39190610cd9565b60405180910390f35b6100c46105f0565b6040516100d19190610d12565b60405180910390f35b6100e2610613565b6060805f805f9054906101000a900473ffffffffffffffffffffffffffffffffffffffff1673ffffffffffffffffffffffffffffffffffffffff166327506f536040518163ffffffff1660e01b81526004015f60405180830381865afa15801561014e573d5f803e3d5ffd5b505050506040513d5f823e3d601f19601f820116820180604052508101906101769190610f3a565b90505f60015f9054906101000a900473ffffffffffffffffffffffffffffffffffffffff1673ffffffffffffffffffffffffffffffffffffffff166327506f536040518163ffffffff1660e01b81526004015f60405180830381865afa1580156101e2573d5f803e3d5ffd5b505050506040513d5f823e3d601f19601f8201168201806040525081019061020a91906111d8565b90505f60025f9054906101000a900473ffffffffffffffffffffffffffffffffffffffff1673ffffffffffffffffffffffffffffffffffffffff166327506f536040518163ffffffff1660e01b81526004015f60405180830381865afa158015610276573d5f803e3d5ffd5b505050506040513d5f823e3d601f19601f8201168201806040525081019061029e9190611474565b90506102a8610613565b5f835167ffffffffffffffff8111156102c4576102c3610d2f565b5b6040519080825280602002602001820160405280156102fd57816020015b6102ea610669565b8152602001906001900390816102e25790505b5090505f835167ffffffffffffffff81111561031c5761031b610d2f565b5b60405190808252806020026020018201604052801561035557816020015b6103426106c6565b81526020019060019003908161033a5790505b5090505f805f5b88518110156103bf578c898281518110610379576103786114bb565b5b602002602001015160200151036103ac5788818151811061039d5761039c6114bb565b5b602002602001015195506103bf565b80806103b790611515565b91505061035c565b505f5b87518110156104a6575f5b8882815181106103e0576103df6114bb565b5b60200260200101516040015151811015610492578d898381518110610408576104076114bb565b5b6020026020010151604001518281518110610426576104256114bb565b5b60200260200101510361047f57888281518110610446576104456114bb565b5b6020026020010151868581518110610461576104606114bb565b5b6020026020010181905250838061047790611515565b945050610492565b808061048a90611515565b9150506103cd565b50808061049e90611515565b9150506103c2565b505f5b865181101561058d575f5b8782815181106104c7576104c66114bb565b5b60200260200101516040015151811015610579578d8883815181106104ef576104ee6114bb565b5b602002602001015160400151828151811061050d5761050c6114bb565b5b6020026020010151036105665787828151811061052d5761052c6114bb565b5b6020026020010151858481518110610548576105476114bb565b5b6020026020010181905250828061055e90611515565b935050610579565b808061057190611515565b9150506104b4565b50808061058590611515565b9150506104a9565b508484849a509a509a5050505050505050509193909250565b60015f9054906101000a900473ffffffffffffffffffffffffffffffffffffffff1681565b60025f9054906101000a900473ffffffffffffffffffffffffffffffffffffffff1681565b5f8054906101000a900473ffffffffffffffffffffffffffffffffffffffff1681565b6040518060a001604052805f81526020015f81526020015f81526020015f73ffffffffffffffffffffffffffffffffffffffff1681526020015f73ffffffffffffffffffffffffffffffffffffffff1681525090565b6040518060c001604052805f81526020015f8152602001606081526020015f81526020015f73ffffffffffffffffffffffffffffffffffffffff1681526020015f73ffffffffffffffffffffffffffffffffffffffff1681525090565b6040518060c001604052805f81526020015f815260200160608152602001606081526020015f73ffffffffffffffffffffffffffffffffffffffff1681526020015f73ffffffffffffffffffffffffffffffffffffffff1681525090565b5f604051905090565b5f80fd5b5f80fd5b5f819050919050565b61074781610735565b8114610751575f80fd5b50565b5f813590506107628161073e565b92915050565b5f6020828403121561077d5761077c61072d565b5b5f61078a84828501610754565b91505092915050565b61079c81610735565b82525050565b5f73ffffffffffffffffffffffffffffffffffffffff82169050919050565b5f6107cb826107a2565b9050919050565b6107db816107c1565b82525050565b60a082015f8201516107f55f850182610793565b5060208201516108086020850182610793565b50604082015161081b6040850182610793565b50606082015161082e60608501826107d2565b50608082015161084160808501826107d2565b50505050565b5f81519050919050565b5f82825260208201905092915050565b5f819050602082019050919050565b5f81519050919050565b5f82825260208201905092915050565b5f819050602082019050919050565b5f6108a48383610793565b60208301905092915050565b5f602082019050919050565b5f6108c682610870565b6108d0818561087a565b93506108db8361088a565b805f5b8381101561090b5781516108f28882610899565b97506108fd836108b0565b9250506001810190506108de565b5085935050505092915050565b5f60c083015f83015161092d5f860182610793565b5060208301516109406020860182610793565b506040830151848203604086015261095882826108bc565b915050606083015161096d6060860182610793565b50608083015161098060808601826107d2565b5060a083015161099360a08601826107d2565b508091505092915050565b5f6109a98383610918565b905092915050565b5f602082019050919050565b5f6109c782610847565b6109d18185610851565b9350836020820285016109e385610861565b805f5b85811015610a1e57848403895281516109ff858261099e565b9450610a0a836109b1565b925060208a019950506001810190506109e6565b50829750879550505050505092915050565b5f81519050919050565b5f82825260208201905092915050565b5f819050602082019050919050565b5f81519050919050565b5f82825260208201905092915050565b5f5b83811015610a90578082015181840152602081019050610a75565b5f8484015250505050565b5f601f19601f8301169050919050565b5f610ab582610a59565b610abf8185610a63565b9350610acf818560208601610a73565b610ad881610a9b565b840191505092915050565b5f60c083015f830151610af85f860182610793565b506020830151610b0b6020860182610793565b5060408301518482036040860152610b2382826108bc565b91505060608301518482036060860152610b3d8282610aab565b9150506080830151610b5260808601826107d2565b5060a0830151610b6560a08601826107d2565b508091505092915050565b5f610b7b8383610ae3565b905092915050565b5f602082019050919050565b5f610b9982610a30565b610ba38185610a3a565b935083602082028501610bb585610a4a565b805f5b85811015610bf05784840389528151610bd18582610b70565b9450610bdc83610b83565b925060208a01995050600181019050610bb8565b50829750879550505050505092915050565b5f60e082019050610c155f8301866107e1565b81810360a0830152610c2781856109bd565b905081810360c0830152610c3b8184610b8f565b9050949350505050565b5f819050919050565b5f610c68610c63610c5e846107a2565b610c45565b6107a2565b9050919050565b5f610c7982610c4e565b9050919050565b5f610c8a82610c6f565b9050919050565b610c9a81610c80565b82525050565b5f602082019050610cb35f830184610c91565b92915050565b5f610cc382610c6f565b9050919050565b610cd381610cb9565b82525050565b5f602082019050610cec5f830184610cca565b92915050565b5f610cfc82610c6f565b9050919050565b610d0c81610cf2565b82525050565b5f602082019050610d255f830184610d03565b92915050565b5f80fd5b7f4e487b71000000000000000000000000000000000000000000000000000000005f52604160045260245ffd5b610d6582610a9b565b810181811067ffffffffffffffff82111715610d8457610d83610d2f565b5b80604052505050565b5f610d96610724565b9050610da28282610d5c565b919050565b5f67ffffffffffffffff821115610dc157610dc0610d2f565b5b602082029050602081019050919050565b5f80fd5b5f80fd5b5f80fd5b5f81519050610dec8161073e565b92915050565b610dfb816107c1565b8114610e05575f80fd5b50565b5f81519050610e1681610df2565b92915050565b5f60a08284031215610e3157610e30610dd6565b5b610e3b60a0610d8d565b90505f610e4a84828501610dde565b5f830152506020610e5d84828501610dde565b6020830152506040610e7184828501610dde565b6040830152506060610e8584828501610e08565b6060830152506080610e9984828501610e08565b60808301525092915050565b5f610eb7610eb284610da7565b610d8d565b90508083825260208201905060a08402830185811115610eda57610ed9610dd2565b5b835b81811015610f035780610eef8882610e1c565b84526020840193505060a081019050610edc565b5050509392505050565b5f82601f830112610f2157610f20610d2b565b5b8151610f31848260208601610ea5565b91505092915050565b5f60208284031215610f4f57610f4e61072d565b5b5f82015167ffffffffffffffff811115610f6c57610f6b610731565b5b610f7884828501610f0d565b91505092915050565b5f67ffffffffffffffff821115610f9b57610f9a610d2f565b5b602082029050602081019050919050565b5f67ffffffffffffffff821115610fc657610fc5610d2f565b5b602082029050602081019050919050565b5f610fe9610fe484610fac565b610d8d565b9050808382526020820190506020840283018581111561100c5761100b610dd2565b5b835b8181101561103557806110218882610dde565b84526020840193505060208101905061100e565b5050509392505050565b5f82601f83011261105357611052610d2b565b5b8151611063848260208601610fd7565b91505092915050565b5f60c0828403121561108157611080610dd6565b5b61108b60c0610d8d565b90505f61109a84828501610dde565b5f8301525060206110ad84828501610dde565b602083015250604082015167ffffffffffffffff8111156110d1576110d0610dda565b5b6110dd8482850161103f565b60408301525060606110f184828501610dde565b606083015250608061110584828501610e08565b60808301525060a061111984828501610e08565b60a08301525092915050565b5f61113761113284610f81565b610d8d565b9050808382526020820190506020840283018581111561115a57611159610dd2565b5b835b818110156111a157805167ffffffffffffffff81111561117f5761117e610d2b565b5b80860161118c898261106c565b8552602085019450505060208101905061115c565b5050509392505050565b5f82601f8301126111bf576111be610d2b565b5b81516111cf848260208601611125565b91505092915050565b5f602082840312156111ed576111ec61072d565b5b5f82015167ffffffffffffffff81111561120a57611209610731565b5b611216848285016111ab565b91505092915050565b5f67ffffffffffffffff82111561123957611238610d2f565b5b602082029050602081019050919050565b5f80fd5b5f67ffffffffffffffff82111561126857611267610d2f565b5b61127182610a9b565b9050602081019050919050565b5f61129061128b8461124e565b610d8d565b9050828152602081018484840111156112ac576112ab61124a565b5b6112b7848285610a73565b509392505050565b5f82601f8301126112d3576112d2610d2b565b5b81516112e384826020860161127e565b91505092915050565b5f60c0828403121561130157611300610dd6565b5b61130b60c0610d8d565b90505f61131a84828501610dde565b5f83015250602061132d84828501610dde565b602083015250604082015167ffffffffffffffff81111561135157611350610dda565b5b61135d8482850161103f565b604083015250606082015167ffffffffffffffff81111561138157611380610dda565b5b61138d848285016112bf565b60608301525060806113a184828501610e08565b60808301525060a06113b584828501610e08565b60a08301525092915050565b5f6113d36113ce8461121f565b610d8d565b905080838252602082019050602084028301858111156113f6576113f5610dd2565b5b835b8181101561143d57805167ffffffffffffffff81111561141b5761141a610d2b565b5b80860161142889826112ec565b855260208501945050506020810190506113f8565b5050509392505050565b5f82601f83011261145b5761145a610d2b565b5b815161146b8482602086016113c1565b91505092915050565b5f602082840312156114895761148861072d565b5b5f82015167ffffffffffffffff8111156114a6576114a5610731565b5b6114b284828501611447565b91505092915050565b7f4e487b71000000000000000000000000000000000000000000000000000000005f52603260045260245ffd5b7f4e487b71000000000000000000000000000000000000000000000000000000005f52601160045260245ffd5b5f61151f82610735565b91507fffffffffffffffffffffffffffffffffffffffffffffffffffffffffffffffff8203611551576115506114e8565b5b60018201905091905056fea26469706673582212208c3f7d83f0b878d51c4f43b4e65e3c5cf4a4a8bfa70392986df446d3fe7a0c4464736f6c63430008140033",
  "immutableReferences": {},
  "source": "// SPDX-License-Identifier: MIT\r\npragma solidity ^0.8.0;\r\n\r\nimport \"./FarmerProcessor.sol\";\r\nimport \"./ProcessorRetailer.sol\";\r\nimport \"./RetailerCustomer.sol\";\r\n\r\ncontract Incident {\r\n    FarmerProcessor public farmerProcessor;\r\n    ProcessorRetailer public processorRetailer;\r\n    RetailerCustomer public retailerCustomer;\r\n\r\n    constructor(address _farmerProcessorAddress, address _processorRetailerAddress, address _retailerCustomerAddress) {\r\n        farmerProcessor = FarmerProcessor(_farmerProcessorAddress);\r\n        processorRetailer = ProcessorRetailer(_processorRetailerAddress);\r\n        retailerCustomer = RetailerCustomer(_retailerCustomerAddress);\r\n    }\r\n\r\n    /**\r\n     * @dev Give a farmer's order id, trace all the transactions record in all smart contracts which involves this farmer's order id.\r\n     * @param offerId The farmer's order id\r\n     * @return An array of Offer structs, including 0: transactions record in FarmerProcessor.sol, 1: transactions records in ProcessorRetailer.sol, 2: transactions records in RetailerCustomer.sol\r\n     */    \r\n    function trace(uint offerId) public view returns (\r\n        FarmerProcessor.Transaction memory, \r\n        ProcessorRetailer.Transaction[] memory, \r\n        RetailerCustomer.Transaction[] memory\r\n    ) {\r\n        // Get all transactions from each contract\r\n        FarmerProcessor.Transaction[] memory farmerTransactions = farmerProcessor.getAllTransactions();\r\n        ProcessorRetailer.Transaction[] memory processorTransactions = processorRetailer.getAllTransactions();\r\n        RetailerCustomer.Transaction[] memory retailerTransactions = retailerCustomer.getAllTransactions();\r\n\r\n        // Placeholder for the result\r\n        FarmerProcessor.Transaction memory farmerTransaction;\r\n        ProcessorRetailer.Transaction[] memory matchedProcessorTransactions = new ProcessorRetailer.Transaction[](processorTransactions.length);\r\n        RetailerCustomer.Transaction[] memory matchedRetailerTransactions = new RetailerCustomer.Transaction[](retailerTransactions.length);\r\n\r\n        uint processorCounter = 0;\r\n        uint retailerCounter = 0;\r\n\r\n        // Iterate over all transactions to find the ones that contain the offerId\r\n        for (uint i = 0; i < farmerTransactions.length; i++) {\r\n            if (farmerTransactions[i].offerId == offerId) {\r\n                farmerTransaction = farmerTransactions[i];\r\n                break;\r\n            }\r\n        }\r\n\r\n        for (uint i = 0; i < processorTransactions.length; i++) {\r\n            for (uint j = 0; j < processorTransactions[i].offerIds.length; j++) {\r\n                if (processorTransactions[i].offerIds[j] == offerId) {\r\n                    matchedProcessorTransactions[processorCounter] = processorTransactions[i];\r\n                    processorCounter++;\r\n                    break;\r\n                }\r\n            }\r\n        }\r\n\r\n        for (uint i = 0; i < retailerTransactions.length; i++) {\r\n            for (uint j = 0; j < retailerTransactions[i].offerIds.length; j++) {\r\n                if (retailerTransactions[i].offerIds[j] == offerId) {\r\n                    matchedRetailerTransactions[retailerCounter] = retailerTransactions[i];\r\n                    retailerCounter++;\r\n                    break;\r\n                }\r\n            }\r\n        }\r\n\r\n        return (farmerTransaction, matchedProcessorTransactions, matchedRetailerTransactions);\r\n    }\r\n}\r\n",
  "sourcePath": "/Users/kathysmbp/Desktop/comp6452Project2Final/contracts/Incident.sol",
  "compiler": {
    "name": "solc",
    "version": "0.8.20+commit.a1b79de6.Emscripten.clang"
  },
  "schemaVersion": "3.4.14",
  "updatedAt": "2023-07-25T03:57:50.521Z",
  "devdoc": {
    "kind": "dev",
    "methods": {
      "trace(uint256)": {
        "details": "Give a farmer's order id, trace all the transactions record in all smart contracts which involves this farmer's order id.",
        "params": {
          "offerId": "The farmer's order id"
        },
        "returns": {
          "_0": "An array of Offer structs, including 0: transactions record in FarmerProcessor.sol, 1: transactions records in ProcessorRetailer.sol, 2: transactions records in RetailerCustomer.sol"
        }
      }
    },
    "version": 1
  },
  "userdoc": {
    "kind": "user",
    "methods": {},
    "version": 1
  }
}