{
  "contractName": "IncidentDelegate",
  "abi": [
    {
      "inputs": [
        {
          "internalType": "address",
          "name": "_incidentAddress",
          "type": "address"
        }
      ],
      "stateMutability": "nonpayable",
      "type": "constructor"
    },
    {
      "inputs": [],
      "name": "delegate",
      "outputs": [
        {
          "internalType": "contract Incident",
          "name": "",
          "type": "address"
        }
      ],
      "stateMutability": "view",
      "type": "function"
    },
    {
      "inputs": [
        {
          "internalType": "uint256",
          "name": "offerId",
          "type": "uint256"
        }
      ],
      "name": "trace",
      "outputs": [
        {
          "components": [
            {
              "internalType": "uint256",
              "name": "orderId",
              "type": "uint256"
            },
            {
              "internalType": "uint256",
              "name": "offerId",
              "type": "uint256"
            },
            {
              "internalType": "uint256",
              "name": "timestamp",
              "type": "uint256"
            },
            {
              "internalType": "address",
              "name": "farmer",
              "type": "address"
            },
            {
              "internalType": "address",
              "name": "processor",
              "type": "address"
            }
          ],
          "internalType": "struct FarmerProcessor.Transaction",
          "name": "",
          "type": "tuple"
        },
        {
          "components": [
            {
              "internalType": "uint256",
              "name": "orderId",
              "type": "uint256"
            },
            {
              "internalType": "uint256",
              "name": "offerId",
              "type": "uint256"
            },
            {
              "internalType": "uint256[]",
              "name": "offerIds",
              "type": "uint256[]"
            },
            {
              "internalType": "uint256",
              "name": "timestamp",
              "type": "uint256"
            },
            {
              "internalType": "address",
              "name": "processor",
              "type": "address"
            },
            {
              "internalType": "address",
              "name": "retailer",
              "type": "address"
            }
          ],
          "internalType": "struct ProcessorRetailer.Transaction[]",
          "name": "",
          "type": "tuple[]"
        },
        {
          "components": [
            {
              "internalType": "uint256",
              "name": "productType",
              "type": "uint256"
            },
            {
              "internalType": "uint256",
              "name": "quantity",
              "type": "uint256"
            },
            {
              "internalType": "uint256[]",
              "name": "offerIds",
              "type": "uint256[]"
            },
            {
              "internalType": "string",
              "name": "status",
              "type": "string"
            },
            {
              "internalType": "address",
              "name": "customer",
              "type": "address"
            },
            {
              "internalType": "address",
              "name": "retailer",
              "type": "address"
            }
          ],
          "internalType": "struct RetailerCustomer.Transaction[]",
          "name": "",
          "type": "tuple[]"
        }
      ],
      "stateMutability": "view",
      "type": "function"
    }
  ],
  "bytecode": "0x608060405234801561000f575f80fd5b50604051610f35380380610f35833981810160405281019061003191906100d4565b805f806101000a81548173ffffffffffffffffffffffffffffffffffffffff021916908373ffffffffffffffffffffffffffffffffffffffff160217905550506100ff565b5f80fd5b5f73ffffffffffffffffffffffffffffffffffffffff82169050919050565b5f6100a38261007a565b9050919050565b6100b381610099565b81146100bd575f80fd5b50565b5f815190506100ce816100aa565b92915050565b5f602082840312156100e9576100e8610076565b5b5f6100f6848285016100c0565b91505092915050565b610e298061010c5f395ff3fe608060405234801561000f575f80fd5b5060043610610034575f3560e01c8063a68a4fed14610038578063c89e43611461006a575b5f80fd5b610052600480360381019061004d91906101f7565b610088565b60405161006193929190610691565b60405180910390f35b61007261013a565b60405161007f919061072f565b60405180910390f35b61009061015d565b6060805f8054906101000a900473ffffffffffffffffffffffffffffffffffffffff1673ffffffffffffffffffffffffffffffffffffffff1663a68a4fed856040518263ffffffff1660e01b81526004016100eb9190610757565b5f60405180830381865afa158015610105573d5f803e3d5ffd5b505050506040513d5f823e3d601f19601f8201168201806040525081019061012d9190610d6b565b9250925092509193909250565b5f8054906101000a900473ffffffffffffffffffffffffffffffffffffffff1681565b6040518060a001604052805f81526020015f81526020015f81526020015f73ffffffffffffffffffffffffffffffffffffffff1681526020015f73ffffffffffffffffffffffffffffffffffffffff1681525090565b5f604051905090565b5f80fd5b5f80fd5b5f819050919050565b6101d6816101c4565b81146101e0575f80fd5b50565b5f813590506101f1816101cd565b92915050565b5f6020828403121561020c5761020b6101bc565b5b5f610219848285016101e3565b91505092915050565b61022b816101c4565b82525050565b5f73ffffffffffffffffffffffffffffffffffffffff82169050919050565b5f61025a82610231565b9050919050565b61026a81610250565b82525050565b60a082015f8201516102845f850182610222565b5060208201516102976020850182610222565b5060408201516102aa6040850182610222565b5060608201516102bd6060850182610261565b5060808201516102d06080850182610261565b50505050565b5f81519050919050565b5f82825260208201905092915050565b5f819050602082019050919050565b5f81519050919050565b5f82825260208201905092915050565b5f819050602082019050919050565b5f6103338383610222565b60208301905092915050565b5f602082019050919050565b5f610355826102ff565b61035f8185610309565b935061036a83610319565b805f5b8381101561039a5781516103818882610328565b975061038c8361033f565b92505060018101905061036d565b5085935050505092915050565b5f60c083015f8301516103bc5f860182610222565b5060208301516103cf6020860182610222565b50604083015184820360408601526103e7828261034b565b91505060608301516103fc6060860182610222565b50608083015161040f6080860182610261565b5060a083015161042260a0860182610261565b508091505092915050565b5f61043883836103a7565b905092915050565b5f602082019050919050565b5f610456826102d6565b61046081856102e0565b935083602082028501610472856102f0565b805f5b858110156104ad578484038952815161048e858261042d565b945061049983610440565b925060208a01995050600181019050610475565b50829750879550505050505092915050565b5f81519050919050565b5f82825260208201905092915050565b5f819050602082019050919050565b5f81519050919050565b5f82825260208201905092915050565b5f5b8381101561051f578082015181840152602081019050610504565b5f8484015250505050565b5f601f19601f8301169050919050565b5f610544826104e8565b61054e81856104f2565b935061055e818560208601610502565b6105678161052a565b840191505092915050565b5f60c083015f8301516105875f860182610222565b50602083015161059a6020860182610222565b50604083015184820360408601526105b2828261034b565b915050606083015184820360608601526105cc828261053a565b91505060808301516105e16080860182610261565b5060a08301516105f460a0860182610261565b508091505092915050565b5f61060a8383610572565b905092915050565b5f602082019050919050565b5f610628826104bf565b61063281856104c9565b935083602082028501610644856104d9565b805f5b8581101561067f578484038952815161066085826105ff565b945061066b83610612565b925060208a01995050600181019050610647565b50829750879550505050505092915050565b5f60e0820190506106a45f830186610270565b81810360a08301526106b6818561044c565b905081810360c08301526106ca818461061e565b9050949350505050565b5f819050919050565b5f6106f76106f26106ed84610231565b6106d4565b610231565b9050919050565b5f610708826106dd565b9050919050565b5f610719826106fe565b9050919050565b6107298161070f565b82525050565b5f6020820190506107425f830184610720565b92915050565b610751816101c4565b82525050565b5f60208201905061076a5f830184610748565b92915050565b5f80fd5b7f4e487b71000000000000000000000000000000000000000000000000000000005f52604160045260245ffd5b6107aa8261052a565b810181811067ffffffffffffffff821117156107c9576107c8610774565b5b80604052505050565b5f6107db6101b3565b90506107e782826107a1565b919050565b5f80fd5b5f815190506107fe816101cd565b92915050565b61080d81610250565b8114610817575f80fd5b50565b5f8151905061082881610804565b92915050565b5f60a0828403121561084357610842610770565b5b61084d60a06107d2565b90505f61085c848285016107f0565b5f83015250602061086f848285016107f0565b6020830152506040610883848285016107f0565b60408301525060606108978482850161081a565b60608301525060806108ab8482850161081a565b60808301525092915050565b5f80fd5b5f67ffffffffffffffff8211156108d5576108d4610774565b5b602082029050602081019050919050565b5f80fd5b5f67ffffffffffffffff82111561090457610903610774565b5b602082029050602081019050919050565b5f610927610922846108ea565b6107d2565b9050808382526020820190506020840283018581111561094a576109496108e6565b5b835b81811015610973578061095f88826107f0565b84526020840193505060208101905061094c565b5050509392505050565b5f82601f830112610991576109906108b7565b5b81516109a1848260208601610915565b91505092915050565b5f60c082840312156109bf576109be610770565b5b6109c960c06107d2565b90505f6109d8848285016107f0565b5f8301525060206109eb848285016107f0565b602083015250604082015167ffffffffffffffff811115610a0f57610a0e6107ec565b5b610a1b8482850161097d565b6040830152506060610a2f848285016107f0565b6060830152506080610a438482850161081a565b60808301525060a0610a578482850161081a565b60a08301525092915050565b5f610a75610a70846108bb565b6107d2565b90508083825260208201905060208402830185811115610a9857610a976108e6565b5b835b81811015610adf57805167ffffffffffffffff811115610abd57610abc6108b7565b5b808601610aca89826109aa565b85526020850194505050602081019050610a9a565b5050509392505050565b5f82601f830112610afd57610afc6108b7565b5b8151610b0d848260208601610a63565b91505092915050565b5f67ffffffffffffffff821115610b3057610b2f610774565b5b602082029050602081019050919050565b5f80fd5b5f67ffffffffffffffff821115610b5f57610b5e610774565b5b610b688261052a565b9050602081019050919050565b5f610b87610b8284610b45565b6107d2565b905082815260208101848484011115610ba357610ba2610b41565b5b610bae848285610502565b509392505050565b5f82601f830112610bca57610bc96108b7565b5b8151610bda848260208601610b75565b91505092915050565b5f60c08284031215610bf857610bf7610770565b5b610c0260c06107d2565b90505f610c11848285016107f0565b5f830152506020610c24848285016107f0565b602083015250604082015167ffffffffffffffff811115610c4857610c476107ec565b5b610c548482850161097d565b604083015250606082015167ffffffffffffffff811115610c7857610c776107ec565b5b610c8484828501610bb6565b6060830152506080610c988482850161081a565b60808301525060a0610cac8482850161081a565b60a08301525092915050565b5f610cca610cc584610b16565b6107d2565b90508083825260208201905060208402830185811115610ced57610cec6108e6565b5b835b81811015610d3457805167ffffffffffffffff811115610d1257610d116108b7565b5b808601610d1f8982610be3565b85526020850194505050602081019050610cef565b5050509392505050565b5f82601f830112610d5257610d516108b7565b5b8151610d62848260208601610cb8565b91505092915050565b5f805f60e08486031215610d8257610d816101bc565b5b5f610d8f8682870161082e565b93505060a084015167ffffffffffffffff811115610db057610daf6101c0565b5b610dbc86828701610ae9565b92505060c084015167ffffffffffffffff811115610ddd57610ddc6101c0565b5b610de986828701610d3e565b915050925092509256fea26469706673582212201de12b3e198ad3ff083db26e912a745c6bb8dcb95b9fbe1086f0841c18df66ad64736f6c63430008140033",
  "immutableReferences": {},
  "source": "// SPDX-License-Identifier: MIT\r\npragma solidity ^0.8.0;\r\n\r\nimport \"./Incident.sol\";\r\n\r\ncontract IncidentDelegate {\r\n    Incident public delegate;\r\n\r\n    constructor(address _incidentAddress) {\r\n        delegate = Incident(_incidentAddress);\r\n    }\r\n\r\n    function trace(uint offerId) public view returns (\r\n        FarmerProcessor.Transaction memory, \r\n        ProcessorRetailer.Transaction[] memory, \r\n        RetailerCustomer.Transaction[] memory\r\n    ) {\r\n        return delegate.trace(offerId);\r\n    }\r\n}\r\n",
  "sourcePath": "/Users/kathysmbp/Desktop/comp6452Project2Final/contracts/IncidentDelegate.sol",
  "compiler": {
    "name": "solc",
    "version": "0.8.20+commit.a1b79de6.Emscripten.clang"
  },
  "schemaVersion": "3.4.14",
  "updatedAt": "2023-07-25T03:57:50.526Z",
  "devdoc": {
    "kind": "dev",
    "methods": {},
    "version": 1
  },
  "userdoc": {
    "kind": "user",
    "methods": {},
    "version": 1
  }
}