{
  "contractName": "Oracle",
  "abi": [
    {
      "inputs": [
        {
          "internalType": "address",
          "name": "",
          "type": "address"
        }
      ],
      "name": "data",
      "outputs": [
        {
          "internalType": "uint256",
          "name": "temperature",
          "type": "uint256"
        },
        {
          "internalType": "uint256",
          "name": "nitrogenContent",
          "type": "uint256"
        },
        {
          "internalType": "uint256",
          "name": "sterilizationTime",
          "type": "uint256"
        }
      ],
      "stateMutability": "view",
      "type": "function"
    },
    {
      "inputs": [
        {
          "internalType": "address",
          "name": "processorAddress",
          "type": "address"
        },
        {
          "internalType": "uint256",
          "name": "temperature",
          "type": "uint256"
        },
        {
          "internalType": "uint256",
          "name": "nitrogenContent",
          "type": "uint256"
        },
        {
          "internalType": "uint256",
          "name": "sterilizationTime",
          "type": "uint256"
        }
      ],
      "name": "provide",
      "outputs": [],
      "stateMutability": "nonpayable",
      "type": "function"
    },
    {
      "inputs": [
        {
          "internalType": "address",
          "name": "processorAddress",
          "type": "address"
        }
      ],
      "name": "getData",
      "outputs": [
        {
          "internalType": "uint256",
          "name": "",
          "type": "uint256"
        },
        {
          "internalType": "uint256",
          "name": "",
          "type": "uint256"
        },
        {
          "internalType": "uint256",
          "name": "",
          "type": "uint256"
        }
      ],
      "stateMutability": "view",
      "type": "function"
    }
  ],
  "bytecode": "0x608060405234801561000f575f80fd5b506103cc8061001d5f395ff3fe608060405234801561000f575f80fd5b506004361061003e575f3560e01c80626e2c841461004257806338266b221461005e578063b90d3d0c14610090575b5f80fd5b61005c600480360381019061005791906102c3565b6100c2565b005b61007860048036038101906100739190610327565b61013e565b60405161008793929190610361565b60405180910390f35b6100aa60048036038101906100a59190610327565b61020d565b6040516100b993929190610361565b60405180910390f35b6040518060600160405280848152602001838152602001828152505f808673ffffffffffffffffffffffffffffffffffffffff1673ffffffffffffffffffffffffffffffffffffffff1681526020019081526020015f205f820151815f0155602082015181600101556040820151816002015590505050505050565b5f805f805f8573ffffffffffffffffffffffffffffffffffffffff1673ffffffffffffffffffffffffffffffffffffffff1681526020019081526020015f205f01545f808673ffffffffffffffffffffffffffffffffffffffff1673ffffffffffffffffffffffffffffffffffffffff1681526020019081526020015f20600101545f808773ffffffffffffffffffffffffffffffffffffffff1673ffffffffffffffffffffffffffffffffffffffff1681526020019081526020015f20600201549250925092509193909250565b5f602052805f5260405f205f91509050805f0154908060010154908060020154905083565b5f80fd5b5f73ffffffffffffffffffffffffffffffffffffffff82169050919050565b5f61025f82610236565b9050919050565b61026f81610255565b8114610279575f80fd5b50565b5f8135905061028a81610266565b92915050565b5f819050919050565b6102a281610290565b81146102ac575f80fd5b50565b5f813590506102bd81610299565b92915050565b5f805f80608085870312156102db576102da610232565b5b5f6102e88782880161027c565b94505060206102f9878288016102af565b935050604061030a878288016102af565b925050606061031b878288016102af565b91505092959194509250565b5f6020828403121561033c5761033b610232565b5b5f6103498482850161027c565b91505092915050565b61035b81610290565b82525050565b5f6060820190506103745f830186610352565b6103816020830185610352565b61038e6040830184610352565b94935050505056fea2646970667358221220a9a550ea4cb584396b38441b987fab7a138db0e875578d0eaf13e519b3e2e33764736f6c63430008140033",
  "immutableReferences": {},
  "source": "// SPDX-License-Identifier: MIT\r\npragma solidity ^0.8.0;\r\n\r\ncontract Oracle {\r\n    struct Data {\r\n        uint temperature;\r\n        uint nitrogenContent;\r\n        uint sterilizationTime;\r\n    }\r\n\r\n    mapping(address => Data) public data;\r\n\r\n    function provide(address processorAddress, uint temperature, uint nitrogenContent, uint sterilizationTime) public {\r\n        data[processorAddress] = Data(temperature, nitrogenContent, sterilizationTime);\r\n    }\r\n\r\n    function getData(address processorAddress) public view returns (uint, uint, uint) {\r\n        return (data[processorAddress].temperature, data[processorAddress].nitrogenContent, data[processorAddress].sterilizationTime);\r\n    }\r\n}\r\n",
  "sourcePath": "/Users/kathysmbp/Desktop/comp6452Project2Final/contracts/Oracle.sol",
  "compiler": {
    "name": "solc",
    "version": "0.8.20+commit.a1b79de6.Emscripten.clang"
  },
  "schemaVersion": "3.4.14",
  "updatedAt": "2023-07-24T12:47:15.388Z",
  "devdoc": {
    "kind": "dev",
    "methods": {},
    "version": 1
  },
  "userdoc": {
    "kind": "user",
    "methods": {},
    "version": 1
  }
}