{
  "contractName": "ProcessorRetailer",
  "abi": [
    {
      "inputs": [
        {
          "internalType": "address",
          "name": "_oracleAddress",
          "type": "address"
        }
      ],
      "stateMutability": "nonpayable",
      "type": "constructor"
    },
    {
      "inputs": [],
      "name": "nextOfferId",
      "outputs": [
        {
          "internalType": "uint256",
          "name": "",
          "type": "uint256"
        }
      ],
      "stateMutability": "view",
      "type": "function"
    },
    {
      "inputs": [],
      "name": "nextOrderId",
      "outputs": [
        {
          "internalType": "uint256",
          "name": "",
          "type": "uint256"
        }
      ],
      "stateMutability": "view",
      "type": "function"
    },
    {
      "inputs": [],
      "name": "nextTransactionId",
      "outputs": [
        {
          "internalType": "uint256",
          "name": "",
          "type": "uint256"
        }
      ],
      "stateMutability": "view",
      "type": "function"
    },
    {
      "inputs": [
        {
          "internalType": "uint256",
          "name": "",
          "type": "uint256"
        }
      ],
      "name": "offers",
      "outputs": [
        {
          "internalType": "uint256",
          "name": "price",
          "type": "uint256"
        },
        {
          "internalType": "string",
          "name": "bestBeforeDate",
          "type": "string"
        },
        {
          "internalType": "string",
          "name": "milkType",
          "type": "string"
        },
        {
          "internalType": "string",
          "name": "productionDate",
          "type": "string"
        },
        {
          "internalType": "uint256",
          "name": "temperature",
          "type": "uint256"
        },
        {
          "internalType": "uint256",
          "name": "nitrogenContent",
          "type": "uint256"
        },
        {
          "internalType": "uint256",
          "name": "sterilizationTime",
          "type": "uint256"
        },
        {
          "internalType": "string",
          "name": "origin",
          "type": "string"
        },
        {
          "internalType": "uint256",
          "name": "orderId",
          "type": "uint256"
        },
        {
          "internalType": "string",
          "name": "status",
          "type": "string"
        },
        {
          "internalType": "address",
          "name": "processor",
          "type": "address"
        }
      ],
      "stateMutability": "view",
      "type": "function"
    },
    {
      "inputs": [],
      "name": "oracle",
      "outputs": [
        {
          "internalType": "contract Oracle",
          "name": "",
          "type": "address"
        }
      ],
      "stateMutability": "view",
      "type": "function"
    },
    {
      "inputs": [
        {
          "internalType": "uint256",
          "name": "",
          "type": "uint256"
        }
      ],
      "name": "orders",
      "outputs": [
        {
          "internalType": "address",
          "name": "processorAddress",
          "type": "address"
        },
        {
          "internalType": "uint256",
          "name": "productId",
          "type": "uint256"
        },
        {
          "internalType": "uint256",
          "name": "quantity",
          "type": "uint256"
        },
        {
          "internalType": "string",
          "name": "status",
          "type": "string"
        },
        {
          "internalType": "address",
          "name": "retailer",
          "type": "address"
        }
      ],
      "stateMutability": "view",
      "type": "function"
    },
    {
      "inputs": [
        {
          "internalType": "uint256",
          "name": "",
          "type": "uint256"
        }
      ],
      "name": "transactions",
      "outputs": [
        {
          "internalType": "uint256",
          "name": "orderId",
          "type": "uint256"
        },
        {
          "internalType": "uint256",
          "name": "offerId",
          "type": "uint256"
        },
        {
          "internalType": "uint256",
          "name": "timestamp",
          "type": "uint256"
        },
        {
          "internalType": "address",
          "name": "processor",
          "type": "address"
        },
        {
          "internalType": "address",
          "name": "retailer",
          "type": "address"
        }
      ],
      "stateMutability": "view",
      "type": "function"
    },
    {
      "inputs": [
        {
          "internalType": "address",
          "name": "_processorAddress",
          "type": "address"
        },
        {
          "internalType": "uint256",
          "name": "_productId",
          "type": "uint256"
        },
        {
          "internalType": "uint256",
          "name": "_quantity",
          "type": "uint256"
        }
      ],
      "name": "createOrder",
      "outputs": [
        {
          "internalType": "uint256",
          "name": "",
          "type": "uint256"
        }
      ],
      "stateMutability": "nonpayable",
      "type": "function"
    },
    {
      "inputs": [
        {
          "internalType": "uint256",
          "name": "_orderId",
          "type": "uint256"
        }
      ],
      "name": "cancelOrder",
      "outputs": [
        {
          "internalType": "uint256",
          "name": "",
          "type": "uint256"
        }
      ],
      "stateMutability": "nonpayable",
      "type": "function"
    },
    {
      "inputs": [
        {
          "internalType": "uint256",
          "name": "_price",
          "type": "uint256"
        },
        {
          "internalType": "uint256[]",
          "name": "_offerIds",
          "type": "uint256[]"
        },
        {
          "internalType": "string",
          "name": "_bestBeforeDate",
          "type": "string"
        },
        {
          "internalType": "string",
          "name": "_milkType",
          "type": "string"
        },
        {
          "internalType": "string",
          "name": "_productionDate",
          "type": "string"
        },
        {
          "internalType": "string",
          "name": "_origin",
          "type": "string"
        },
        {
          "internalType": "uint256",
          "name": "_orderId",
          "type": "uint256"
        }
      ],
      "name": "createOffer",
      "outputs": [
        {
          "internalType": "uint256",
          "name": "",
          "type": "uint256"
        }
      ],
      "stateMutability": "nonpayable",
      "type": "function"
    },
    {
      "inputs": [
        {
          "internalType": "uint256",
          "name": "_offerId",
          "type": "uint256"
        }
      ],
      "name": "cancelOffer",
      "outputs": [
        {
          "internalType": "uint256",
          "name": "",
          "type": "uint256"
        }
      ],
      "stateMutability": "nonpayable",
      "type": "function"
    },
    {
      "inputs": [
        {
          "internalType": "address",
          "name": "_processorAddress",
          "type": "address"
        }
      ],
      "name": "viewOrders",
      "outputs": [
        {
          "components": [
            {
              "internalType": "address",
              "name": "processorAddress",
              "type": "address"
            },
            {
              "internalType": "uint256",
              "name": "productId",
              "type": "uint256"
            },
            {
              "internalType": "uint256",
              "name": "quantity",
              "type": "uint256"
            },
            {
              "internalType": "string",
              "name": "status",
              "type": "string"
            },
            {
              "internalType": "address",
              "name": "retailer",
              "type": "address"
            }
          ],
          "internalType": "struct ProcessorRetailer.Order[]",
          "name": "",
          "type": "tuple[]"
        }
      ],
      "stateMutability": "view",
      "type": "function"
    },
    {
      "inputs": [
        {
          "internalType": "uint256",
          "name": "_orderId",
          "type": "uint256"
        }
      ],
      "name": "viewOffers",
      "outputs": [
        {
          "components": [
            {
              "internalType": "uint256",
              "name": "price",
              "type": "uint256"
            },
            {
              "internalType": "uint256[]",
              "name": "offerIds",
              "type": "uint256[]"
            },
            {
              "internalType": "string",
              "name": "bestBeforeDate",
              "type": "string"
            },
            {
              "internalType": "string",
              "name": "milkType",
              "type": "string"
            },
            {
              "internalType": "string",
              "name": "productionDate",
              "type": "string"
            },
            {
              "internalType": "uint256",
              "name": "temperature",
              "type": "uint256"
            },
            {
              "internalType": "uint256",
              "name": "nitrogenContent",
              "type": "uint256"
            },
            {
              "internalType": "uint256",
              "name": "sterilizationTime",
              "type": "uint256"
            },
            {
              "internalType": "string",
              "name": "origin",
              "type": "string"
            },
            {
              "internalType": "uint256",
              "name": "orderId",
              "type": "uint256"
            },
            {
              "internalType": "string",
              "name": "status",
              "type": "string"
            },
            {
              "internalType": "address",
              "name": "processor",
              "type": "address"
            }
          ],
          "internalType": "struct ProcessorRetailer.Offer[]",
          "name": "",
          "type": "tuple[]"
        }
      ],
      "stateMutability": "view",
      "type": "function"
    },
    {
      "inputs": [
        {
          "internalType": "uint256",
          "name": "_orderId",
          "type": "uint256"
        },
        {
          "internalType": "uint256",
          "name": "_offerId",
          "type": "uint256"
        }
      ],
      "name": "acceptOffer",
      "outputs": [
        {
          "internalType": "uint256",
          "name": "",
          "type": "uint256"
        }
      ],
      "stateMutability": "nonpayable",
      "type": "function"
    },
    {
      "inputs": [],
      "name": "getAllTransactions",
      "outputs": [
        {
          "components": [
            {
              "internalType": "uint256",
              "name": "orderId",
              "type": "uint256"
            },
            {
              "internalType": "uint256",
              "name": "offerId",
              "type": "uint256"
            },
            {
              "internalType": "uint256[]",
              "name": "offerIds",
              "type": "uint256[]"
            },
            {
              "internalType": "uint256",
              "name": "timestamp",
              "type": "uint256"
            },
            {
              "internalType": "address",
              "name": "processor",
              "type": "address"
            },
            {
              "internalType": "address",
              "name": "retailer",
              "type": "address"
            }
          ],
          "internalType": "struct ProcessorRetailer.Transaction[]",
          "name": "",
          "type": "tuple[]"
        }
      ],
      "stateMutability": "view",
      "type": "function"
    }
  ],
  "bytecode": "0x60806040526001600455600160055560016006553480156200001f575f80fd5b506040516200385c3803806200385c8339818101604052810190620000459190620000f0565b805f806101000a81548173ffffffffffffffffffffffffffffffffffffffff021916908373ffffffffffffffffffffffffffffffffffffffff1602179055505062000120565b5f80fd5b5f73ffffffffffffffffffffffffffffffffffffffff82169050919050565b5f620000ba826200008f565b9050919050565b620000cc81620000ae565b8114620000d7575f80fd5b50565b5f81519050620000ea81620000c1565b92915050565b5f602082840312156200010857620001076200008b565b5b5f6200011784828501620000da565b91505092915050565b61372e806200012e5f395ff3fe608060405234801561000f575f80fd5b50600436106100f3575f3560e01c806381257bd511610095578063acfee8ed11610064578063acfee8ed146102d1578063c7ba836814610301578063d7ca38f314610331578063ef706adf1461034f576100f3565b806381257bd5146101ff5780638a72ea6a1461022f5780639ace38c214610269578063a85c38ef1461029d576100f3565b80635f5d0655116100d15780635f5d06551461016357806361b801291461018157806372e0ade5146101b15780637dc0d1d0146101e1576100f3565b806327506f53146100f75780632a58b33014610115578063514fcac714610133575b5f80fd5b6100ff61037f565b60405161010c9190612334565b60405180910390f35b61011d610568565b60405161012a9190612363565b60405180910390f35b61014d600480360381019061014891906123b7565b61056e565b60405161015a9190612363565b60405180910390f35b61016b61070e565b6040516101789190612363565b60405180910390f35b61019b600480360381019061019691906123b7565b610714565b6040516101a8919061264b565b60405180910390f35b6101cb60048036038101906101c6919061285b565b610ccf565b6040516101d89190612363565b60405180910390f35b6101e9610f57565b6040516101f691906129df565b60405180910390f35b610219600480360381019061021491906129f8565b610f7a565b6040516102269190612363565b60405180910390f35b610249600480360381019061024491906123b7565b61147f565b6040516102609b9a99989796959493929190612a8d565b60405180910390f35b610283600480360381019061027e91906123b7565b611792565b604051610294959493929190612b59565b60405180910390f35b6102b760048036038101906102b291906123b7565b611802565b6040516102c8959493929190612baa565b60405180910390f35b6102eb60048036038101906102e69190612c2c565b6118f8565b6040516102f89190612363565b60405180910390f35b61031b60048036038101906103169190612c7c565b611a73565b6040516103289190612dd5565b60405180910390f35b610339611e62565b6040516103469190612363565b60405180910390f35b610369600480360381019061036491906123b7565b611e68565b6040516103769190612363565b60405180910390f35b60605f60065467ffffffffffffffff81111561039e5761039d61266f565b5b6040519080825280602002602001820160405280156103d757816020015b6103c4611f69565b8152602001906001900390816103bc5790505b5090505f600190505b6006548110156105605760035f8281526020019081526020015f206040518060c00160405290815f8201548152602001600182015481526020016002820180548060200260200160405190810160405280929190818152602001828054801561046657602002820191905f5260205f20905b815481526020019060010190808311610452575b5050505050815260200160038201548152602001600482015f9054906101000a900473ffffffffffffffffffffffffffffffffffffffff1673ffffffffffffffffffffffffffffffffffffffff1673ffffffffffffffffffffffffffffffffffffffff168152602001600582015f9054906101000a900473ffffffffffffffffffffffffffffffffffffffff1673ffffffffffffffffffffffffffffffffffffffff1673ffffffffffffffffffffffffffffffffffffffff1681525050826001836105319190612e22565b8151811061054257610541612e55565b5b6020026020010181905250808061055890612e82565b9150506103e0565b508091505090565b60045481565b5f3373ffffffffffffffffffffffffffffffffffffffff1660015f8481526020019081526020015f206004015f9054906101000a900473ffffffffffffffffffffffffffffffffffffffff1673ffffffffffffffffffffffffffffffffffffffff1614610610576040517f08c379a000000000000000000000000000000000000000000000000000000000815260040161060790612f39565b60405180910390fd5b60405160200161061f90612fab565b6040516020818303038152906040528051906020012060015f8481526020019081526020015f2060030160405160200161065991906130ae565b60405160208183030381529060405280519060200120146106af576040517f08c379a00000000000000000000000000000000000000000000000000000000081526004016106a690613134565b60405180910390fd5b6040518060400160405280600981526020017f43616e63656c6c6564000000000000000000000000000000000000000000000081525060015f8481526020019081526020015f20600301908161070591906132d4565b50819050919050565b60055481565b60605f80600190505b6005548110156107cd578360025f8381526020019081526020015f20600901541480156107a65750604051602001610754906133ed565b6040516020818303038152906040528051906020012060025f8381526020019081526020015f20600a0160405160200161078e91906130ae565b60405160208183030381529060405280519060200120145b156107ba5781806107b690612e82565b9250505b80806107c590612e82565b91505061071d565b505f8167ffffffffffffffff8111156107e9576107e861266f565b5b60405190808252806020026020018201604052801561082257816020015b61080f611fc6565b8152602001906001900390816108075790505b5090505f80600190505b600554811015610cc3578560025f8381526020019081526020015f20600901541480156108b55750604051602001610863906133ed565b6040516020818303038152906040528051906020012060025f8381526020019081526020015f20600a0160405160200161089d91906130ae565b60405160208183030381529060405280519060200120145b15610cb05760025f8281526020019081526020015f20604051806101800160405290815f82015481526020016001820180548060200260200160405190810160405280929190818152602001828054801561092d57602002820191905f5260205f20905b815481526020019060010190808311610919575b5050505050815260200160028201805461094690612fec565b80601f016020809104026020016040519081016040528092919081815260200182805461097290612fec565b80156109bd5780601f10610994576101008083540402835291602001916109bd565b820191905f5260205f20905b8154815290600101906020018083116109a057829003601f168201915b505050505081526020016003820180546109d690612fec565b80601f0160208091040260200160405190810160405280929190818152602001828054610a0290612fec565b8015610a4d5780601f10610a2457610100808354040283529160200191610a4d565b820191905f5260205f20905b815481529060010190602001808311610a3057829003601f168201915b50505050508152602001600482018054610a6690612fec565b80601f0160208091040260200160405190810160405280929190818152602001828054610a9290612fec565b8015610add5780601f10610ab457610100808354040283529160200191610add565b820191905f5260205f20905b815481529060010190602001808311610ac057829003601f168201915b50505050508152602001600582015481526020016006820154815260200160078201548152602001600882018054610b1490612fec565b80601f0160208091040260200160405190810160405280929190818152602001828054610b4090612fec565b8015610b8b5780601f10610b6257610100808354040283529160200191610b8b565b820191905f5260205f20905b815481529060010190602001808311610b6e57829003601f168201915b5050505050815260200160098201548152602001600a82018054610bae90612fec565b80601f0160208091040260200160405190810160405280929190818152602001828054610bda90612fec565b8015610c255780601f10610bfc57610100808354040283529160200191610c25565b820191905f5260205f20905b815481529060010190602001808311610c0857829003601f168201915b50505050508152602001600b82015f9054906101000a900473ffffffffffffffffffffffffffffffffffffffff1673ffffffffffffffffffffffffffffffffffffffff1673ffffffffffffffffffffffffffffffffffffffff1681525050838381518110610c9657610c95612e55565b5b60200260200101819052508180610cac90612e82565b9250505b8080610cbb90612e82565b91505061082c565b50819350505050919050565b5f805f805f8054906101000a900473ffffffffffffffffffffffffffffffffffffffff1673ffffffffffffffffffffffffffffffffffffffff166338266b22326040518263ffffffff1660e01b8152600401610d2b9190613401565b606060405180830381865afa158015610d46573d5f803e3d5ffd5b505050506040513d601f19601f82011682018060405250810190610d6a919061342e565b9250925092506040518061018001604052808c81526020018b81526020018a81526020018981526020018881526020018481526020018381526020018281526020018781526020018681526020016040518060400160405280600b81526020017f496e2070726f677265737300000000000000000000000000000000000000000081525081526020013373ffffffffffffffffffffffffffffffffffffffff1681525060025f60055481526020019081526020015f205f820151815f01556020820151816001019080519060200190610e44929190612037565b506040820151816002019081610e5a91906132d4565b506060820151816003019081610e7091906132d4565b506080820151816004019081610e8691906132d4565b5060a0820151816005015560c0820151816006015560e08201518160070155610100820151816008019081610ebb91906132d4565b50610120820151816009015561014082015181600a019081610edd91906132d4565b5061016082015181600b015f6101000a81548173ffffffffffffffffffffffffffffffffffffffff021916908373ffffffffffffffffffffffffffffffffffffffff1602179055509050505f600554905060055f815480929190610f4090612e82565b919050555080945050505050979650505050505050565b5f8054906101000a900473ffffffffffffffffffffffffffffffffffffffff1681565b5f3373ffffffffffffffffffffffffffffffffffffffff1660015f8581526020019081526020015f206004015f9054906101000a900473ffffffffffffffffffffffffffffffffffffffff1673ffffffffffffffffffffffffffffffffffffffff161461101c576040517f08c379a0000000000000000000000000000000000000000000000000000000008152600401611013906134ee565b60405180910390fd5b60405160200161102b906133ed565b6040516020818303038152906040528051906020012060015f8581526020019081526020015f2060030160405160200161106591906130ae565b60405160208183030381529060405280519060200120146110bb576040517f08c379a00000000000000000000000000000000000000000000000000000000081526004016110b290613556565b60405180910390fd5b6040516020016110ca906133ed565b6040516020818303038152906040528051906020012060025f8481526020019081526020015f20600a0160405160200161110491906130ae565b604051602081830303815290604052805190602001201461115a576040517f08c379a0000000000000000000000000000000000000000000000000000000008152600401611151906135be565b60405180910390fd5b8260025f8481526020019081526020015f2060090154146111b0576040517f08c379a00000000000000000000000000000000000000000000000000000000081526004016111a79061364c565b60405180910390fd5b6040518060400160405280600981526020017f436f6d706c65746564000000000000000000000000000000000000000000000081525060025f8481526020019081526020015f20600a01908161120691906132d4565b506040518060400160405280600981526020017f436f6d706c65746564000000000000000000000000000000000000000000000081525060015f8581526020019081526020015f20600301908161125d91906132d4565b506040518060c0016040528084815260200183815260200160025f8581526020019081526020015f206001018054806020026020016040519081016040528092919081815260200182805480156112d157602002820191905f5260205f20905b8154815260200190600101908083116112bd575b5050505050815260200142815260200160025f8581526020019081526020015f20600b015f9054906101000a900473ffffffffffffffffffffffffffffffffffffffff1673ffffffffffffffffffffffffffffffffffffffff16815260200160015f8681526020019081526020015f206004015f9054906101000a900473ffffffffffffffffffffffffffffffffffffffff1673ffffffffffffffffffffffffffffffffffffffff1681525060035f60065481526020019081526020015f205f820151815f01556020820151816001015560408201518160020190805190602001906113be929190612037565b50606082015181600301556080820151816004015f6101000a81548173ffffffffffffffffffffffffffffffffffffffff021916908373ffffffffffffffffffffffffffffffffffffffff16021790555060a0820151816005015f6101000a81548173ffffffffffffffffffffffffffffffffffffffff021916908373ffffffffffffffffffffffffffffffffffffffff1602179055509050505f600654905060065f81548092919061147090612e82565b91905055508091505092915050565b6002602052805f5260405f205f91509050805f0154908060020180546114a490612fec565b80601f01602080910402602001604051908101604052809291908181526020018280546114d090612fec565b801561151b5780601f106114f25761010080835404028352916020019161151b565b820191905f5260205f20905b8154815290600101906020018083116114fe57829003601f168201915b50505050509080600301805461153090612fec565b80601f016020809104026020016040519081016040528092919081815260200182805461155c90612fec565b80156115a75780601f1061157e576101008083540402835291602001916115a7565b820191905f5260205f20905b81548152906001019060200180831161158a57829003601f168201915b5050505050908060040180546115bc90612fec565b80601f01602080910402602001604051908101604052809291908181526020018280546115e890612fec565b80156116335780601f1061160a57610100808354040283529160200191611633565b820191905f5260205f20905b81548152906001019060200180831161161657829003601f168201915b50505050509080600501549080600601549080600701549080600801805461165a90612fec565b80601f016020809104026020016040519081016040528092919081815260200182805461168690612fec565b80156116d15780601f106116a8576101008083540402835291602001916116d1565b820191905f5260205f20905b8154815290600101906020018083116116b457829003601f168201915b50505050509080600901549080600a0180546116ec90612fec565b80601f016020809104026020016040519081016040528092919081815260200182805461171890612fec565b80156117635780601f1061173a57610100808354040283529160200191611763565b820191905f5260205f20905b81548152906001019060200180831161174657829003601f168201915b50505050509080600b015f9054906101000a900473ffffffffffffffffffffffffffffffffffffffff1690508b565b6003602052805f5260405f205f91509050805f015490806001015490806003015490806004015f9054906101000a900473ffffffffffffffffffffffffffffffffffffffff1690806005015f9054906101000a900473ffffffffffffffffffffffffffffffffffffffff16905085565b6001602052805f5260405f205f91509050805f015f9054906101000a900473ffffffffffffffffffffffffffffffffffffffff169080600101549080600201549080600301805461185290612fec565b80601f016020809104026020016040519081016040528092919081815260200182805461187e90612fec565b80156118c95780601f106118a0576101008083540402835291602001916118c9565b820191905f5260205f20905b8154815290600101906020018083116118ac57829003601f168201915b505050505090806004015f9054906101000a900473ffffffffffffffffffffffffffffffffffffffff16905085565b5f6040518060a001604052808573ffffffffffffffffffffffffffffffffffffffff1681526020018481526020018381526020016040518060400160405280600b81526020017f496e2070726f677265737300000000000000000000000000000000000000000081525081526020013373ffffffffffffffffffffffffffffffffffffffff1681525060015f60045481526020019081526020015f205f820151815f015f6101000a81548173ffffffffffffffffffffffffffffffffffffffff021916908373ffffffffffffffffffffffffffffffffffffffff16021790555060208201518160010155604082015181600201556060820151816003019081611a0191906132d4565b506080820151816004015f6101000a81548173ffffffffffffffffffffffffffffffffffffffff021916908373ffffffffffffffffffffffffffffffffffffffff1602179055509050505f600454905060045f815480929190611a6390612e82565b9190505550809150509392505050565b60605f80600190505b600454811015611b76578373ffffffffffffffffffffffffffffffffffffffff1660015f8381526020019081526020015f205f015f9054906101000a900473ffffffffffffffffffffffffffffffffffffffff1673ffffffffffffffffffffffffffffffffffffffff16148015611b4f5750604051602001611afd906133ed565b6040516020818303038152906040528051906020012060015f8381526020019081526020015f20600301604051602001611b3791906130ae565b60405160208183030381529060405280519060200120145b15611b63578180611b5f90612e82565b9250505b8080611b6e90612e82565b915050611a7c565b505f8167ffffffffffffffff811115611b9257611b9161266f565b5b604051908082528060200260200182016040528015611bcb57816020015b611bb8612082565b815260200190600190039081611bb05790505b5090505f80600190505b600454811015611e56578573ffffffffffffffffffffffffffffffffffffffff1660015f8381526020019081526020015f205f015f9054906101000a900473ffffffffffffffffffffffffffffffffffffffff1673ffffffffffffffffffffffffffffffffffffffff16148015611ca85750604051602001611c56906133ed565b6040516020818303038152906040528051906020012060015f8381526020019081526020015f20600301604051602001611c9091906130ae565b60405160208183030381529060405280519060200120145b15611e435760015f8281526020019081526020015f206040518060a00160405290815f82015f9054906101000a900473ffffffffffffffffffffffffffffffffffffffff1673ffffffffffffffffffffffffffffffffffffffff1673ffffffffffffffffffffffffffffffffffffffff1681526020016001820154815260200160028201548152602001600382018054611d4190612fec565b80601f0160208091040260200160405190810160405280929190818152602001828054611d6d90612fec565b8015611db85780601f10611d8f57610100808354040283529160200191611db8565b820191905f5260205f20905b815481529060010190602001808311611d9b57829003601f168201915b50505050508152602001600482015f9054906101000a900473ffffffffffffffffffffffffffffffffffffffff1673ffffffffffffffffffffffffffffffffffffffff1673ffffffffffffffffffffffffffffffffffffffff1681525050838381518110611e2957611e28612e55565b5b60200260200101819052508180611e3f90612e82565b9250505b8080611e4e90612e82565b915050611bd5565b50819350505050919050565b60065481565b5f3373ffffffffffffffffffffffffffffffffffffffff1660025f8481526020019081526020015f20600b015f9054906101000a900473ffffffffffffffffffffffffffffffffffffffff1673ffffffffffffffffffffffffffffffffffffffff1614611f0a576040517f08c379a0000000000000000000000000000000000000000000000000000000008152600401611f01906136da565b60405180910390fd5b6040518060400160405280600981526020017f43616e63656c6c6564000000000000000000000000000000000000000000000081525060025f8481526020019081526020015f20600a019081611f6091906132d4565b50819050919050565b6040518060c001604052805f81526020015f8152602001606081526020015f81526020015f73ffffffffffffffffffffffffffffffffffffffff1681526020015f73ffffffffffffffffffffffffffffffffffffffff1681525090565b6040518061018001604052805f8152602001606081526020016060815260200160608152602001606081526020015f81526020015f81526020015f8152602001606081526020015f8152602001606081526020015f73ffffffffffffffffffffffffffffffffffffffff1681525090565b828054828255905f5260205f20908101928215612071579160200282015b82811115612070578251825591602001919060010190612055565b5b50905061207e91906120d9565b5090565b6040518060a001604052805f73ffffffffffffffffffffffffffffffffffffffff1681526020015f81526020015f8152602001606081526020015f73ffffffffffffffffffffffffffffffffffffffff1681525090565b5b808211156120f0575f815f9055506001016120da565b5090565b5f81519050919050565b5f82825260208201905092915050565b5f819050602082019050919050565b5f819050919050565b61212f8161211d565b82525050565b5f81519050919050565b5f82825260208201905092915050565b5f819050602082019050919050565b5f6121698383612126565b60208301905092915050565b5f602082019050919050565b5f61218b82612135565b612195818561213f565b93506121a08361214f565b805f5b838110156121d05781516121b7888261215e565b97506121c283612175565b9250506001810190506121a3565b5085935050505092915050565b5f73ffffffffffffffffffffffffffffffffffffffff82169050919050565b5f612206826121dd565b9050919050565b612216816121fc565b82525050565b5f60c083015f8301516122315f860182612126565b5060208301516122446020860182612126565b506040830151848203604086015261225c8282612181565b91505060608301516122716060860182612126565b506080830151612284608086018261220d565b5060a083015161229760a086018261220d565b508091505092915050565b5f6122ad838361221c565b905092915050565b5f602082019050919050565b5f6122cb826120f4565b6122d581856120fe565b9350836020820285016122e78561210e565b805f5b85811015612322578484038952815161230385826122a2565b945061230e836122b5565b925060208a019950506001810190506122ea565b50829750879550505050505092915050565b5f6020820190508181035f83015261234c81846122c1565b905092915050565b61235d8161211d565b82525050565b5f6020820190506123765f830184612354565b92915050565b5f604051905090565b5f80fd5b5f80fd5b6123968161211d565b81146123a0575f80fd5b50565b5f813590506123b18161238d565b92915050565b5f602082840312156123cc576123cb612385565b5b5f6123d9848285016123a3565b91505092915050565b5f81519050919050565b5f82825260208201905092915050565b5f819050602082019050919050565b5f81519050919050565b5f82825260208201905092915050565b5f5b83811015612442578082015181840152602081019050612427565b5f8484015250505050565b5f601f19601f8301169050919050565b5f6124678261240b565b6124718185612415565b9350612481818560208601612425565b61248a8161244d565b840191505092915050565b5f61018083015f8301516124ab5f860182612126565b50602083015184820360208601526124c38282612181565b915050604083015184820360408601526124dd828261245d565b915050606083015184820360608601526124f7828261245d565b91505060808301518482036080860152612511828261245d565b91505060a083015161252660a0860182612126565b5060c083015161253960c0860182612126565b5060e083015161254c60e0860182612126565b50610100830151848203610100860152612566828261245d565b91505061012083015161257d610120860182612126565b50610140830151848203610140860152612597828261245d565b9150506101608301516125ae61016086018261220d565b508091505092915050565b5f6125c48383612495565b905092915050565b5f602082019050919050565b5f6125e2826123e2565b6125ec81856123ec565b9350836020820285016125fe856123fc565b805f5b85811015612639578484038952815161261a85826125b9565b9450612625836125cc565b925060208a01995050600181019050612601565b50829750879550505050505092915050565b5f6020820190508181035f83015261266381846125d8565b905092915050565b5f80fd5b7f4e487b71000000000000000000000000000000000000000000000000000000005f52604160045260245ffd5b6126a58261244d565b810181811067ffffffffffffffff821117156126c4576126c361266f565b5b80604052505050565b5f6126d661237c565b90506126e2828261269c565b919050565b5f67ffffffffffffffff8211156127015761270061266f565b5b602082029050602081019050919050565b5f80fd5b5f612728612723846126e7565b6126cd565b9050808382526020820190506020840283018581111561274b5761274a612712565b5b835b81811015612774578061276088826123a3565b84526020840193505060208101905061274d565b5050509392505050565b5f82601f8301126127925761279161266b565b5b81356127a2848260208601612716565b91505092915050565b5f80fd5b5f67ffffffffffffffff8211156127c9576127c861266f565b5b6127d28261244d565b9050602081019050919050565b828183375f83830152505050565b5f6127ff6127fa846127af565b6126cd565b90508281526020810184848401111561281b5761281a6127ab565b5b6128268482856127df565b509392505050565b5f82601f8301126128425761284161266b565b5b81356128528482602086016127ed565b91505092915050565b5f805f805f805f60e0888a03121561287657612875612385565b5b5f6128838a828b016123a3565b975050602088013567ffffffffffffffff8111156128a4576128a3612389565b5b6128b08a828b0161277e565b965050604088013567ffffffffffffffff8111156128d1576128d0612389565b5b6128dd8a828b0161282e565b955050606088013567ffffffffffffffff8111156128fe576128fd612389565b5b61290a8a828b0161282e565b945050608088013567ffffffffffffffff81111561292b5761292a612389565b5b6129378a828b0161282e565b93505060a088013567ffffffffffffffff81111561295857612957612389565b5b6129648a828b0161282e565b92505060c06129758a828b016123a3565b91505092959891949750929550565b5f819050919050565b5f6129a76129a261299d846121dd565b612984565b6121dd565b9050919050565b5f6129b88261298d565b9050919050565b5f6129c9826129ae565b9050919050565b6129d9816129bf565b82525050565b5f6020820190506129f25f8301846129d0565b92915050565b5f8060408385031215612a0e57612a0d612385565b5b5f612a1b858286016123a3565b9250506020612a2c858286016123a3565b9150509250929050565b5f82825260208201905092915050565b5f612a508261240b565b612a5a8185612a36565b9350612a6a818560208601612425565b612a738161244d565b840191505092915050565b612a87816121fc565b82525050565b5f61016082019050612aa15f83018e612354565b8181036020830152612ab3818d612a46565b90508181036040830152612ac7818c612a46565b90508181036060830152612adb818b612a46565b9050612aea608083018a612354565b612af760a0830189612354565b612b0460c0830188612354565b81810360e0830152612b168187612a46565b9050612b26610100830186612354565b818103610120830152612b398185612a46565b9050612b49610140830184612a7e565b9c9b505050505050505050505050565b5f60a082019050612b6c5f830188612354565b612b796020830187612354565b612b866040830186612354565b612b936060830185612a7e565b612ba06080830184612a7e565b9695505050505050565b5f60a082019050612bbd5f830188612a7e565b612bca6020830187612354565b612bd76040830186612354565b8181036060830152612be98185612a46565b9050612bf86080830184612a7e565b9695505050505050565b612c0b816121fc565b8114612c15575f80fd5b50565b5f81359050612c2681612c02565b92915050565b5f805f60608486031215612c4357612c42612385565b5b5f612c5086828701612c18565b9350506020612c61868287016123a3565b9250506040612c72868287016123a3565b9150509250925092565b5f60208284031215612c9157612c90612385565b5b5f612c9e84828501612c18565b91505092915050565b5f81519050919050565b5f82825260208201905092915050565b5f819050602082019050919050565b5f60a083015f830151612ce55f86018261220d565b506020830151612cf86020860182612126565b506040830151612d0b6040860182612126565b5060608301518482036060860152612d23828261245d565b9150506080830151612d38608086018261220d565b508091505092915050565b5f612d4e8383612cd0565b905092915050565b5f602082019050919050565b5f612d6c82612ca7565b612d768185612cb1565b935083602082028501612d8885612cc1565b805f5b85811015612dc35784840389528151612da48582612d43565b9450612daf83612d56565b925060208a01995050600181019050612d8b565b50829750879550505050505092915050565b5f6020820190508181035f830152612ded8184612d62565b905092915050565b7f4e487b71000000000000000000000000000000000000000000000000000000005f52601160045260245ffd5b5f612e2c8261211d565b9150612e378361211d565b9250828203905081811115612e4f57612e4e612df5565b5b92915050565b7f4e487b71000000000000000000000000000000000000000000000000000000005f52603260045260245ffd5b5f612e8c8261211d565b91507fffffffffffffffffffffffffffffffffffffffffffffffffffffffffffffffff8203612ebe57612ebd612df5565b5b600182019050919050565b7f4f6e6c79207468652072657461696c65722077686f20637265617465642074685f8201527f65206f726465722063616e2063616e63656c2069740000000000000000000000602082015250565b5f612f23603583612a36565b9150612f2e82612ec9565b604082019050919050565b5f6020820190508181035f830152612f5081612f17565b9050919050565b5f81905092915050565b7f436f6d706c6574656400000000000000000000000000000000000000000000005f82015250565b5f612f95600983612f57565b9150612fa082612f61565b600982019050919050565b5f612fb582612f89565b9150819050919050565b7f4e487b71000000000000000000000000000000000000000000000000000000005f52602260045260245ffd5b5f600282049050600182168061300357607f821691505b60208210810361301657613015612fbf565b5b50919050565b5f819050815f5260205f209050919050565b5f815461303a81612fec565b6130448186612f57565b9450600182165f811461305e5760018114613073576130a5565b60ff19831686528115158202860193506130a5565b61307c8561301c565b5f5b8381101561309d5781548189015260018201915060208101905061307e565b838801955050505b50505092915050565b5f6130b9828461302e565b915081905092915050565b7f54686973207472616e73616374696f6e20686173206265656e2066696e616c695f8201527f7365642e20596f75206d6179206e6f742063616e63656c206974000000000000602082015250565b5f61311e603a83612a36565b9150613129826130c4565b604082019050919050565b5f6020820190508181035f83015261314b81613112565b9050919050565b5f6020601f8301049050919050565b5f82821b905092915050565b5f6008830261319c7fffffffffffffffffffffffffffffffffffffffffffffffffffffffffffffffff82613161565b6131a68683613161565b95508019841693508086168417925050509392505050565b5f6131d86131d36131ce8461211d565b612984565b61211d565b9050919050565b5f819050919050565b6131f1836131be565b6132056131fd826131df565b84845461316d565b825550505050565b5f90565b61321961320d565b6132248184846131e8565b505050565b5b818110156132475761323c5f82613211565b60018101905061322a565b5050565b601f82111561328c5761325d8161301c565b61326684613152565b81016020851015613275578190505b61328961328185613152565b830182613229565b50505b505050565b5f82821c905092915050565b5f6132ac5f1984600802613291565b1980831691505092915050565b5f6132c4838361329d565b9150826002028217905092915050565b6132dd8261240b565b67ffffffffffffffff8111156132f6576132f561266f565b5b6133008254612fec565b61330b82828561324b565b5f60209050601f83116001811461333c575f841561332a578287015190505b61333485826132b9565b86555061339b565b601f19841661334a8661301c565b5f5b828110156133715784890151825560018201915060208501945060208101905061334c565b8683101561338e578489015161338a601f89168261329d565b8355505b6001600288020188555050505b505050505050565b7f496e2070726f67726573730000000000000000000000000000000000000000005f82015250565b5f6133d7600b83612f57565b91506133e2826133a3565b600b82019050919050565b5f6133f7826133cb565b9150819050919050565b5f6020820190506134145f830184612a7e565b92915050565b5f815190506134288161238d565b92915050565b5f805f6060848603121561344557613444612385565b5b5f6134528682870161341a565b93505060206134638682870161341a565b92505060406134748682870161341a565b9150509250925092565b7f4f6e6c79207468652072657461696c65722077686f20637265617465642074685f8201527f65206f726465722063616e20616363657074206f666665727300000000000000602082015250565b5f6134d8603983612a36565b91506134e38261347e565b604082019050919050565b5f6020820190508181035f830152613505816134cc565b9050919050565b7f4f72646572206d75737420626520696e2070726f6772657373000000000000005f82015250565b5f613540601983612a36565b915061354b8261350c565b602082019050919050565b5f6020820190508181035f83015261356d81613534565b9050919050565b7f4f66666572206d75737420626520696e2070726f6772657373000000000000005f82015250565b5f6135a8601983612a36565b91506135b382613574565b602082019050919050565b5f6020820190508181035f8301526135d58161359c565b9050919050565b7f4f66666572206d75737420636f72726573706f6e6420746f20746865206f72645f8201527f6572000000000000000000000000000000000000000000000000000000000000602082015250565b5f613636602283612a36565b9150613641826135dc565b604082019050919050565b5f6020820190508181035f8301526136638161362a565b9050919050565b7f4f6e6c79207468652070726f636573736f722077686f206372656174656420745f8201527f6865206f666665722063616e2063616e63656c20697400000000000000000000602082015250565b5f6136c4603683612a36565b91506136cf8261366a565b604082019050919050565b5f6020820190508181035f8301526136f1816136b8565b905091905056fea264697066735822122032b9b0a769c2f2858d5cf8295205b155c04584f493786b037746a79ec01ff88964736f6c63430008140033",
  "immutableReferences": {},
  "source": "// SPDX-License-Identifier: MIT\r\npragma solidity ^0.8.0;\r\n\r\nimport \"./Oracle.sol\";\r\n\r\ncontract ProcessorRetailer {\r\n    Oracle public oracle;\r\n\r\n    constructor(address _oracleAddress) {\r\n        oracle = Oracle(_oracleAddress);\r\n    }\r\n\r\n    struct Order {\r\n        address processorAddress;\r\n        uint productId;\r\n        uint quantity;\r\n        string status;\r\n        address retailer;\r\n    }\r\n\r\n    struct Offer {\r\n        uint price;\r\n        uint[] offerIds;\r\n        string bestBeforeDate;\r\n        string milkType;\r\n        string productionDate;\r\n        uint temperature;\r\n        uint nitrogenContent;\r\n        uint sterilizationTime;\r\n        string origin;\r\n        uint orderId;\r\n        string status;\r\n        address processor;\r\n    }\r\n\r\n    struct Transaction {\r\n        uint orderId;\r\n        uint offerId;\r\n        uint[] offerIds;\r\n        uint timestamp;\r\n        address processor;\r\n        address retailer;\r\n    }\r\n\r\n    mapping(uint => Order) public orders;\r\n    mapping(uint => Offer) public offers;\r\n    mapping(uint => Transaction) public transactions;\r\n    uint public nextOrderId = 1;\r\n    uint public nextOfferId = 1;\r\n    uint public nextTransactionId = 1;\r\n\r\n    /**\r\n     * @dev Retailer can create a new order\r\n     * @param _processorAddress The address of the processor(Milk brand)\r\n     * @param _productId The product id(Universal Product Code) of the milk product\r\n     * @param _quantity The quantity of the milk product\r\n     * @return The id of the created order\r\n     */\r\n    function createOrder(\r\n        address _processorAddress,\r\n        uint _productId,\r\n        uint _quantity\r\n    ) public returns (uint) {\r\n        orders[nextOrderId] = Order(\r\n            _processorAddress,\r\n            _productId,\r\n            _quantity,\r\n            \"In progress\",\r\n            msg.sender\r\n        );\r\n        uint currentOrderId = nextOrderId;\r\n        nextOrderId++;\r\n        return currentOrderId;\r\n    }\r\n\r\n    /**\r\n     * @dev Retailer can cancel an existing order\r\n     * @param _orderId The id of the order to cancel\r\n     * @return The id of the cancelled order\r\n     */\r\n    function cancelOrder(uint _orderId) public returns (uint) {\r\n        require(\r\n            orders[_orderId].retailer == msg.sender,\r\n            \"Only the retailer who created the order can cancel it\"\r\n        );\r\n        require(\r\n            keccak256(abi.encodePacked(orders[_orderId].status)) ==\r\n                keccak256(abi.encodePacked(\"Completed\")),\r\n            \"This transaction has been finalised. You may not cancel it\"\r\n        );\r\n        orders[_orderId].status = \"Cancelled\";\r\n        return _orderId;\r\n    }\r\n\r\n    /**\r\n     * @dev Processor can create a new offer\r\n     * @param _price The price of the milk product\r\n     * @param _offerIds The array of offer_ids from the farmers.\r\n     * @param _bestBeforeDate The best before date of the milk product\r\n     * @param _milkType The milk type of the milk product(i.e Full cream, Skimmed, Low fat)\r\n     * @param _productionDate The production date of the milk product\r\n     * @param _origin The origin of the milk product\r\n     * @param _orderId The id of the order\r\n     * @return The id of the created offer\r\n     */\r\n    function createOffer(\r\n        uint _price,\r\n        uint[] memory _offerIds,\r\n        string memory _bestBeforeDate,\r\n        string memory _milkType,\r\n        string memory _productionDate,\r\n        string memory _origin,\r\n        uint _orderId\r\n    ) public returns (uint) {\r\n        (\r\n            uint _temperature,\r\n            uint _nitrogenContent,\r\n            uint _sterilizationTime\r\n        ) = oracle.getData(tx.origin);\r\n        offers[nextOfferId] = Offer(\r\n            _price,\r\n            _offerIds,\r\n            _bestBeforeDate,\r\n            _milkType,\r\n            _productionDate,\r\n            _temperature,\r\n            _nitrogenContent,\r\n            _sterilizationTime,\r\n            _origin,\r\n            _orderId,\r\n            \"In progress\",\r\n            msg.sender\r\n        );\r\n        uint current = nextOfferId;\r\n        nextOfferId++;\r\n        return current;\r\n    }\r\n\r\n    /**\r\n     * @dev Processor can cancel an existing offer\r\n     * @param _offerId The id of the offer to cancel\r\n     * @return The id of the cancelled offer\r\n     */\r\n    function cancelOffer(uint _offerId) public returns (uint) {\r\n        require(\r\n            offers[_offerId].processor == msg.sender,\r\n            \"Only the processor who created the offer can cancel it\"\r\n        );\r\n        offers[_offerId].status = \"Cancelled\";\r\n        return _offerId;\r\n    }\r\n\r\n    /**\r\n     * @notice Processor views all orders from different retailer\r\n     * @dev Returns all the orders for a specific processor address\r\n     * @param _processorAddress The address of the processor\r\n     * @return An array of Order structs for the given processor address\r\n     */\r\n    function viewOrders(\r\n        address _processorAddress\r\n    ) public view returns (Order[] memory) {\r\n        uint orderCount = 0;\r\n        for (uint i = 1; i < nextOrderId; i++) {\r\n            if (\r\n                orders[i].processorAddress == _processorAddress &&\r\n                keccak256(abi.encodePacked(orders[i].status)) ==\r\n                keccak256(abi.encodePacked(\"In progress\"))\r\n            ) {\r\n                orderCount++;\r\n            }\r\n        }\r\n\r\n        Order[] memory myOrders = new Order[](orderCount);\r\n        uint counter = 0;\r\n        for (uint i = 1; i < nextOrderId; i++) {\r\n            if (\r\n                orders[i].processorAddress == _processorAddress &&\r\n                keccak256(abi.encodePacked(orders[i].status)) ==\r\n                keccak256(abi.encodePacked(\"In progress\"))\r\n            ) {\r\n                myOrders[counter] = orders[i];\r\n                counter++;\r\n            }\r\n        }\r\n\r\n        return myOrders;\r\n    }\r\n\r\n    /**\r\n     * @dev Returns all the offers for a specific order to a Retailer\r\n     * @param _orderId The id of the order\r\n     * @return An array of Offer structs for the given order\r\n     */\r\n    function viewOffers(uint _orderId) public view returns (Offer[] memory) {\r\n        uint offerCount = 0;\r\n        for (uint i = 1; i < nextOfferId; i++) {\r\n            if (\r\n                offers[i].orderId == _orderId &&\r\n                keccak256(abi.encodePacked(offers[i].status)) ==\r\n                keccak256(abi.encodePacked(\"In progress\"))\r\n            ) {\r\n                offerCount++;\r\n            }\r\n        }\r\n\r\n        Offer[] memory myOffers = new Offer[](offerCount);\r\n        uint counter = 0;\r\n        for (uint i = 1; i < nextOfferId; i++) {\r\n            if (\r\n                offers[i].orderId == _orderId &&\r\n                keccak256(abi.encodePacked(offers[i].status)) ==\r\n                keccak256(abi.encodePacked(\"In progress\"))\r\n            ) {\r\n                myOffers[counter] = offers[i];\r\n                counter++;\r\n            }\r\n        }\r\n\r\n        return myOffers;\r\n    }\r\n\r\n    /**\r\n     * @dev Retailer can accept an offer and creates a transaction\r\n     * @param _orderId The id of the order\r\n     * @param _offerId The id of the offer\r\n     * @return The id of the created transaction\r\n     */\r\n    function acceptOffer(uint _orderId, uint _offerId) public returns (uint) {\r\n        require(\r\n            orders[_orderId].retailer == msg.sender,\r\n            \"Only the retailer who created the order can accept offers\"\r\n        );\r\n        require(\r\n            keccak256(abi.encodePacked(orders[_orderId].status)) ==\r\n                keccak256(abi.encodePacked(\"In progress\")),\r\n            \"Order must be in progress\"\r\n        );\r\n        require(\r\n            keccak256(abi.encodePacked(offers[_offerId].status)) ==\r\n                keccak256(abi.encodePacked(\"In progress\")),\r\n            \"Offer must be in progress\"\r\n        );\r\n        require(\r\n            offers[_offerId].orderId == _orderId,\r\n            \"Offer must correspond to the order\"\r\n        );\r\n\r\n        offers[_offerId].status = \"Completed\";\r\n        orders[_orderId].status = \"Completed\";\r\n        transactions[nextTransactionId] = Transaction(\r\n            _orderId,\r\n            _offerId,\r\n            offers[_offerId].offerIds,\r\n            block.timestamp,\r\n            offers[_offerId].processor,\r\n            orders[_orderId].retailer\r\n        );\r\n        uint currentTransactionId = nextTransactionId;\r\n        nextTransactionId++;\r\n        return currentTransactionId;\r\n    }\r\n\r\n    /**\r\n     * @dev Returns all the transactions\r\n     * @return An array of all Transaction structs\r\n     */\r\n    function getAllTransactions() public view returns (Transaction[] memory) {\r\n        Transaction[] memory transactionsArray = new Transaction[](\r\n            nextTransactionId\r\n        );\r\n        for (uint i = 1; i < nextTransactionId; i++) {\r\n            transactionsArray[i - 1] = transactions[i];\r\n        }\r\n        return transactionsArray;\r\n    }\r\n}\r\n",
  "sourcePath": "/Users/kathysmbp/Desktop/comp6452Project2Final/contracts/ProcessorRetailer.sol",
  "compiler": {
    "name": "solc",
    "version": "0.8.20+commit.a1b79de6.Emscripten.clang"
  },
  "schemaVersion": "3.4.14",
  "updatedAt": "2023-07-25T03:57:50.538Z",
  "devdoc": {
    "kind": "dev",
    "methods": {
      "acceptOffer(uint256,uint256)": {
        "details": "Retailer can accept an offer and creates a transaction",
        "params": {
          "_offerId": "The id of the offer",
          "_orderId": "The id of the order"
        },
        "returns": {
          "_0": "The id of the created transaction"
        }
      },
      "cancelOffer(uint256)": {
        "details": "Processor can cancel an existing offer",
        "params": {
          "_offerId": "The id of the offer to cancel"
        },
        "returns": {
          "_0": "The id of the cancelled offer"
        }
      },
      "cancelOrder(uint256)": {
        "details": "Retailer can cancel an existing order",
        "params": {
          "_orderId": "The id of the order to cancel"
        },
        "returns": {
          "_0": "The id of the cancelled order"
        }
      },
      "createOffer(uint256,uint256[],string,string,string,string,uint256)": {
        "details": "Processor can create a new offer",
        "params": {
          "_bestBeforeDate": "The best before date of the milk product",
          "_milkType": "The milk type of the milk product(i.e Full cream, Skimmed, Low fat)",
          "_offerIds": "The array of offer_ids from the farmers.",
          "_orderId": "The id of the order",
          "_origin": "The origin of the milk product",
          "_price": "The price of the milk product",
          "_productionDate": "The production date of the milk product"
        },
        "returns": {
          "_0": "The id of the created offer"
        }
      },
      "createOrder(address,uint256,uint256)": {
        "details": "Retailer can create a new order",
        "params": {
          "_processorAddress": "The address of the processor(Milk brand)",
          "_productId": "The product id(Universal Product Code) of the milk product",
          "_quantity": "The quantity of the milk product"
        },
        "returns": {
          "_0": "The id of the created order"
        }
      },
      "getAllTransactions()": {
        "details": "Returns all the transactions",
        "returns": {
          "_0": "An array of all Transaction structs"
        }
      },
      "viewOffers(uint256)": {
        "details": "Returns all the offers for a specific order to a Retailer",
        "params": {
          "_orderId": "The id of the order"
        },
        "returns": {
          "_0": "An array of Offer structs for the given order"
        }
      },
      "viewOrders(address)": {
        "details": "Returns all the orders for a specific processor address",
        "params": {
          "_processorAddress": "The address of the processor"
        },
        "returns": {
          "_0": "An array of Order structs for the given processor address"
        }
      }
    },
    "version": 1
  },
  "userdoc": {
    "kind": "user",
    "methods": {
      "viewOrders(address)": {
        "notice": "Processor views all orders from different retailer"
      }
    },
    "version": 1
  }
}