{
  "contractName": "ProcessorRetailerDelegate",
  "abi": [
    {
      "inputs": [
        {
          "internalType": "address",
          "name": "_processorRetailerAddress",
          "type": "address"
        }
      ],
      "stateMutability": "nonpayable",
      "type": "constructor"
    },
    {
      "inputs": [],
      "name": "delegate",
      "outputs": [
        {
          "internalType": "contract ProcessorRetailer",
          "name": "",
          "type": "address"
        }
      ],
      "stateMutability": "view",
      "type": "function"
    },
    {
      "inputs": [
        {
          "internalType": "address",
          "name": "_processorAddress",
          "type": "address"
        },
        {
          "internalType": "uint256",
          "name": "_productId",
          "type": "uint256"
        },
        {
          "internalType": "uint256",
          "name": "_quantity",
          "type": "uint256"
        }
      ],
      "name": "createOrder",
      "outputs": [
        {
          "internalType": "uint256",
          "name": "",
          "type": "uint256"
        }
      ],
      "stateMutability": "nonpayable",
      "type": "function"
    },
    {
      "inputs": [
        {
          "internalType": "uint256",
          "name": "_orderId",
          "type": "uint256"
        }
      ],
      "name": "cancelOrder",
      "outputs": [
        {
          "internalType": "uint256",
          "name": "",
          "type": "uint256"
        }
      ],
      "stateMutability": "nonpayable",
      "type": "function"
    },
    {
      "inputs": [
        {
          "internalType": "uint256",
          "name": "_price",
          "type": "uint256"
        },
        {
          "internalType": "uint256[]",
          "name": "_offerIds",
          "type": "uint256[]"
        },
        {
          "internalType": "string",
          "name": "_bestBeforeDate",
          "type": "string"
        },
        {
          "internalType": "string",
          "name": "_milkType",
          "type": "string"
        },
        {
          "internalType": "string",
          "name": "_productionDate",
          "type": "string"
        },
        {
          "internalType": "string",
          "name": "_origin",
          "type": "string"
        },
        {
          "internalType": "uint256",
          "name": "_orderId",
          "type": "uint256"
        }
      ],
      "name": "createOffer",
      "outputs": [
        {
          "internalType": "uint256",
          "name": "",
          "type": "uint256"
        }
      ],
      "stateMutability": "nonpayable",
      "type": "function"
    },
    {
      "inputs": [
        {
          "internalType": "uint256",
          "name": "_offerId",
          "type": "uint256"
        }
      ],
      "name": "cancelOffer",
      "outputs": [
        {
          "internalType": "uint256",
          "name": "",
          "type": "uint256"
        }
      ],
      "stateMutability": "nonpayable",
      "type": "function"
    },
    {
      "inputs": [
        {
          "internalType": "address",
          "name": "_processorAddress",
          "type": "address"
        }
      ],
      "name": "viewOrders",
      "outputs": [
        {
          "components": [
            {
              "internalType": "address",
              "name": "processorAddress",
              "type": "address"
            },
            {
              "internalType": "uint256",
              "name": "productId",
              "type": "uint256"
            },
            {
              "internalType": "uint256",
              "name": "quantity",
              "type": "uint256"
            },
            {
              "internalType": "string",
              "name": "status",
              "type": "string"
            },
            {
              "internalType": "address",
              "name": "retailer",
              "type": "address"
            }
          ],
          "internalType": "struct ProcessorRetailer.Order[]",
          "name": "",
          "type": "tuple[]"
        }
      ],
      "stateMutability": "view",
      "type": "function"
    },
    {
      "inputs": [
        {
          "internalType": "uint256",
          "name": "_orderId",
          "type": "uint256"
        }
      ],
      "name": "viewOffers",
      "outputs": [
        {
          "components": [
            {
              "internalType": "uint256",
              "name": "price",
              "type": "uint256"
            },
            {
              "internalType": "uint256[]",
              "name": "offerIds",
              "type": "uint256[]"
            },
            {
              "internalType": "string",
              "name": "bestBeforeDate",
              "type": "string"
            },
            {
              "internalType": "string",
              "name": "milkType",
              "type": "string"
            },
            {
              "internalType": "string",
              "name": "productionDate",
              "type": "string"
            },
            {
              "internalType": "uint256",
              "name": "temperature",
              "type": "uint256"
            },
            {
              "internalType": "uint256",
              "name": "nitrogenContent",
              "type": "uint256"
            },
            {
              "internalType": "uint256",
              "name": "sterilizationTime",
              "type": "uint256"
            },
            {
              "internalType": "string",
              "name": "origin",
              "type": "string"
            },
            {
              "internalType": "uint256",
              "name": "orderId",
              "type": "uint256"
            },
            {
              "internalType": "string",
              "name": "status",
              "type": "string"
            },
            {
              "internalType": "address",
              "name": "processor",
              "type": "address"
            }
          ],
          "internalType": "struct ProcessorRetailer.Offer[]",
          "name": "",
          "type": "tuple[]"
        }
      ],
      "stateMutability": "view",
      "type": "function"
    },
    {
      "inputs": [
        {
          "internalType": "uint256",
          "name": "_orderId",
          "type": "uint256"
        },
        {
          "internalType": "uint256",
          "name": "_offerId",
          "type": "uint256"
        }
      ],
      "name": "acceptOffer",
      "outputs": [
        {
          "internalType": "uint256",
          "name": "",
          "type": "uint256"
        }
      ],
      "stateMutability": "nonpayable",
      "type": "function"
    },
    {
      "inputs": [],
      "name": "getAllTransactions",
      "outputs": [
        {
          "components": [
            {
              "internalType": "uint256",
              "name": "orderId",
              "type": "uint256"
            },
            {
              "internalType": "uint256",
              "name": "offerId",
              "type": "uint256"
            },
            {
              "internalType": "uint256[]",
              "name": "offerIds",
              "type": "uint256[]"
            },
            {
              "internalType": "uint256",
              "name": "timestamp",
              "type": "uint256"
            },
            {
              "internalType": "address",
              "name": "processor",
              "type": "address"
            },
            {
              "internalType": "address",
              "name": "retailer",
              "type": "address"
            }
          ],
          "internalType": "struct ProcessorRetailer.Transaction[]",
          "name": "",
          "type": "tuple[]"
        }
      ],
      "stateMutability": "view",
      "type": "function"
    }
  ],
  "bytecode": "0x608060405234801562000010575f80fd5b5060405162001da438038062001da48339818101604052810190620000369190620000e1565b805f806101000a81548173ffffffffffffffffffffffffffffffffffffffff021916908373ffffffffffffffffffffffffffffffffffffffff1602179055505062000111565b5f80fd5b5f73ffffffffffffffffffffffffffffffffffffffff82169050919050565b5f620000ab8262000080565b9050919050565b620000bd816200009f565b8114620000c8575f80fd5b50565b5f81519050620000db81620000b2565b92915050565b5f60208284031215620000f957620000f86200007c565b5b5f6200010884828501620000cb565b91505092915050565b611c85806200011f5f395ff3fe608060405234801561000f575f80fd5b5060043610610091575f3560e01c806381257bd51161006457806381257bd514610143578063acfee8ed14610173578063c7ba8368146101a3578063c89e4361146101d3578063ef706adf146101f157610091565b806327506f5314610095578063514fcac7146100b357806361b80129146100e357806372e0ade514610113575b5f80fd5b61009d610221565b6040516100aa91906109a0565b60405180910390f35b6100cd60048036038101906100c891906109fb565b6102b7565b6040516100da9190610a35565b60405180910390f35b6100fd60048036038101906100f891906109fb565b610358565b60405161010a9190610cb7565b60405180910390f35b61012d60048036038101906101289190610ec7565b6103fb565b60405161013a9190610a35565b60405180910390f35b61015d60048036038101906101589190610ff0565b6104ae565b60405161016a9190610a35565b60405180910390f35b61018d60048036038101906101889190611058565b610552565b60405161019a9190610a35565b60405180910390f35b6101bd60048036038101906101b891906110a8565b6105f9565b6040516101ca9190611201565b60405180910390f35b6101db61069c565b6040516101e8919061127c565b60405180910390f35b61020b600480360381019061020691906109fb565b6106bf565b6040516102189190610a35565b60405180910390f35b60605f8054906101000a900473ffffffffffffffffffffffffffffffffffffffff1673ffffffffffffffffffffffffffffffffffffffff166327506f536040518163ffffffff1660e01b81526004015f60405180830381865afa15801561028a573d5f803e3d5ffd5b505050506040513d5f823e3d601f19601f820116820180604052508101906102b291906114f1565b905090565b5f805f9054906101000a900473ffffffffffffffffffffffffffffffffffffffff1673ffffffffffffffffffffffffffffffffffffffff1663514fcac7836040518263ffffffff1660e01b81526004016103119190610a35565b6020604051808303815f875af115801561032d573d5f803e3d5ffd5b505050506040513d601f19601f820116820180604052508101906103519190611538565b9050919050565b60605f8054906101000a900473ffffffffffffffffffffffffffffffffffffffff1673ffffffffffffffffffffffffffffffffffffffff166361b80129836040518263ffffffff1660e01b81526004016103b29190610a35565b5f60405180830381865afa1580156103cc573d5f803e3d5ffd5b505050506040513d5f823e3d601f19601f820116820180604052508101906103f49190611876565b9050919050565b5f805f9054906101000a900473ffffffffffffffffffffffffffffffffffffffff1673ffffffffffffffffffffffffffffffffffffffff166372e0ade5898989898989896040518863ffffffff1660e01b81526004016104619796959493929190611971565b6020604051808303815f875af115801561047d573d5f803e3d5ffd5b505050506040513d601f19601f820116820180604052508101906104a19190611538565b9050979650505050505050565b5f805f9054906101000a900473ffffffffffffffffffffffffffffffffffffffff1673ffffffffffffffffffffffffffffffffffffffff166381257bd584846040518363ffffffff1660e01b815260040161050a929190611a01565b6020604051808303815f875af1158015610526573d5f803e3d5ffd5b505050506040513d601f19601f8201168201806040525081019061054a9190611538565b905092915050565b5f805f9054906101000a900473ffffffffffffffffffffffffffffffffffffffff1673ffffffffffffffffffffffffffffffffffffffff1663acfee8ed8585856040518463ffffffff1660e01b81526004016105b093929190611a37565b6020604051808303815f875af11580156105cc573d5f803e3d5ffd5b505050506040513d601f19601f820116820180604052508101906105f09190611538565b90509392505050565b60605f8054906101000a900473ffffffffffffffffffffffffffffffffffffffff1673ffffffffffffffffffffffffffffffffffffffff1663c7ba8368836040518263ffffffff1660e01b81526004016106539190611a6c565b5f60405180830381865afa15801561066d573d5f803e3d5ffd5b505050506040513d5f823e3d601f19601f820116820180604052508101906106959190611c08565b9050919050565b5f8054906101000a900473ffffffffffffffffffffffffffffffffffffffff1681565b5f805f9054906101000a900473ffffffffffffffffffffffffffffffffffffffff1673ffffffffffffffffffffffffffffffffffffffff1663ef706adf836040518263ffffffff1660e01b81526004016107199190610a35565b6020604051808303815f875af1158015610735573d5f803e3d5ffd5b505050506040513d601f19601f820116820180604052508101906107599190611538565b9050919050565b5f81519050919050565b5f82825260208201905092915050565b5f819050602082019050919050565b5f819050919050565b61079b81610789565b82525050565b5f81519050919050565b5f82825260208201905092915050565b5f819050602082019050919050565b5f6107d58383610792565b60208301905092915050565b5f602082019050919050565b5f6107f7826107a1565b61080181856107ab565b935061080c836107bb565b805f5b8381101561083c57815161082388826107ca565b975061082e836107e1565b92505060018101905061080f565b5085935050505092915050565b5f73ffffffffffffffffffffffffffffffffffffffff82169050919050565b5f61087282610849565b9050919050565b61088281610868565b82525050565b5f60c083015f83015161089d5f860182610792565b5060208301516108b06020860182610792565b50604083015184820360408601526108c882826107ed565b91505060608301516108dd6060860182610792565b5060808301516108f06080860182610879565b5060a083015161090360a0860182610879565b508091505092915050565b5f6109198383610888565b905092915050565b5f602082019050919050565b5f61093782610760565b610941818561076a565b9350836020820285016109538561077a565b805f5b8581101561098e578484038952815161096f858261090e565b945061097a83610921565b925060208a01995050600181019050610956565b50829750879550505050505092915050565b5f6020820190508181035f8301526109b8818461092d565b905092915050565b5f604051905090565b5f80fd5b5f80fd5b6109da81610789565b81146109e4575f80fd5b50565b5f813590506109f5816109d1565b92915050565b5f60208284031215610a1057610a0f6109c9565b5b5f610a1d848285016109e7565b91505092915050565b610a2f81610789565b82525050565b5f602082019050610a485f830184610a26565b92915050565b5f81519050919050565b5f82825260208201905092915050565b5f819050602082019050919050565b5f81519050919050565b5f82825260208201905092915050565b5f5b83811015610aae578082015181840152602081019050610a93565b5f8484015250505050565b5f601f19601f8301169050919050565b5f610ad382610a77565b610add8185610a81565b9350610aed818560208601610a91565b610af681610ab9565b840191505092915050565b5f61018083015f830151610b175f860182610792565b5060208301518482036020860152610b2f82826107ed565b91505060408301518482036040860152610b498282610ac9565b91505060608301518482036060860152610b638282610ac9565b91505060808301518482036080860152610b7d8282610ac9565b91505060a0830151610b9260a0860182610792565b5060c0830151610ba560c0860182610792565b5060e0830151610bb860e0860182610792565b50610100830151848203610100860152610bd28282610ac9565b915050610120830151610be9610120860182610792565b50610140830151848203610140860152610c038282610ac9565b915050610160830151610c1a610160860182610879565b508091505092915050565b5f610c308383610b01565b905092915050565b5f602082019050919050565b5f610c4e82610a4e565b610c588185610a58565b935083602082028501610c6a85610a68565b805f5b85811015610ca55784840389528151610c868582610c25565b9450610c9183610c38565b925060208a01995050600181019050610c6d565b50829750879550505050505092915050565b5f6020820190508181035f830152610ccf8184610c44565b905092915050565b5f80fd5b7f4e487b71000000000000000000000000000000000000000000000000000000005f52604160045260245ffd5b610d1182610ab9565b810181811067ffffffffffffffff82111715610d3057610d2f610cdb565b5b80604052505050565b5f610d426109c0565b9050610d4e8282610d08565b919050565b5f67ffffffffffffffff821115610d6d57610d6c610cdb565b5b602082029050602081019050919050565b5f80fd5b5f610d94610d8f84610d53565b610d39565b90508083825260208201905060208402830185811115610db757610db6610d7e565b5b835b81811015610de05780610dcc88826109e7565b845260208401935050602081019050610db9565b5050509392505050565b5f82601f830112610dfe57610dfd610cd7565b5b8135610e0e848260208601610d82565b91505092915050565b5f80fd5b5f67ffffffffffffffff821115610e3557610e34610cdb565b5b610e3e82610ab9565b9050602081019050919050565b828183375f83830152505050565b5f610e6b610e6684610e1b565b610d39565b905082815260208101848484011115610e8757610e86610e17565b5b610e92848285610e4b565b509392505050565b5f82601f830112610eae57610ead610cd7565b5b8135610ebe848260208601610e59565b91505092915050565b5f805f805f805f60e0888a031215610ee257610ee16109c9565b5b5f610eef8a828b016109e7565b975050602088013567ffffffffffffffff811115610f1057610f0f6109cd565b5b610f1c8a828b01610dea565b965050604088013567ffffffffffffffff811115610f3d57610f3c6109cd565b5b610f498a828b01610e9a565b955050606088013567ffffffffffffffff811115610f6a57610f696109cd565b5b610f768a828b01610e9a565b945050608088013567ffffffffffffffff811115610f9757610f966109cd565b5b610fa38a828b01610e9a565b93505060a088013567ffffffffffffffff811115610fc457610fc36109cd565b5b610fd08a828b01610e9a565b92505060c0610fe18a828b016109e7565b91505092959891949750929550565b5f8060408385031215611006576110056109c9565b5b5f611013858286016109e7565b9250506020611024858286016109e7565b9150509250929050565b61103781610868565b8114611041575f80fd5b50565b5f813590506110528161102e565b92915050565b5f805f6060848603121561106f5761106e6109c9565b5b5f61107c86828701611044565b935050602061108d868287016109e7565b925050604061109e868287016109e7565b9150509250925092565b5f602082840312156110bd576110bc6109c9565b5b5f6110ca84828501611044565b91505092915050565b5f81519050919050565b5f82825260208201905092915050565b5f819050602082019050919050565b5f60a083015f8301516111115f860182610879565b5060208301516111246020860182610792565b5060408301516111376040860182610792565b506060830151848203606086015261114f8282610ac9565b91505060808301516111646080860182610879565b508091505092915050565b5f61117a83836110fc565b905092915050565b5f602082019050919050565b5f611198826110d3565b6111a281856110dd565b9350836020820285016111b4856110ed565b805f5b858110156111ef57848403895281516111d0858261116f565b94506111db83611182565b925060208a019950506001810190506111b7565b50829750879550505050505092915050565b5f6020820190508181035f830152611219818461118e565b905092915050565b5f819050919050565b5f61124461123f61123a84610849565b611221565b610849565b9050919050565b5f6112558261122a565b9050919050565b5f6112668261124b565b9050919050565b6112768161125c565b82525050565b5f60208201905061128f5f83018461126d565b92915050565b5f67ffffffffffffffff8211156112af576112ae610cdb565b5b602082029050602081019050919050565b5f80fd5b5f80fd5b5f815190506112d6816109d1565b92915050565b5f6112ee6112e984610d53565b610d39565b9050808382526020820190506020840283018581111561131157611310610d7e565b5b835b8181101561133a578061132688826112c8565b845260208401935050602081019050611313565b5050509392505050565b5f82601f83011261135857611357610cd7565b5b81516113688482602086016112dc565b91505092915050565b5f8151905061137f8161102e565b92915050565b5f60c0828403121561139a576113996112c0565b5b6113a460c0610d39565b90505f6113b3848285016112c8565b5f8301525060206113c6848285016112c8565b602083015250604082015167ffffffffffffffff8111156113ea576113e96112c4565b5b6113f684828501611344565b604083015250606061140a848285016112c8565b606083015250608061141e84828501611371565b60808301525060a061143284828501611371565b60a08301525092915050565b5f61145061144b84611295565b610d39565b9050808382526020820190506020840283018581111561147357611472610d7e565b5b835b818110156114ba57805167ffffffffffffffff81111561149857611497610cd7565b5b8086016114a58982611385565b85526020850194505050602081019050611475565b5050509392505050565b5f82601f8301126114d8576114d7610cd7565b5b81516114e884826020860161143e565b91505092915050565b5f60208284031215611506576115056109c9565b5b5f82015167ffffffffffffffff811115611523576115226109cd565b5b61152f848285016114c4565b91505092915050565b5f6020828403121561154d5761154c6109c9565b5b5f61155a848285016112c8565b91505092915050565b5f67ffffffffffffffff82111561157d5761157c610cdb565b5b602082029050602081019050919050565b5f6115a061159b84610e1b565b610d39565b9050828152602081018484840111156115bc576115bb610e17565b5b6115c7848285610a91565b509392505050565b5f82601f8301126115e3576115e2610cd7565b5b81516115f384826020860161158e565b91505092915050565b5f6101808284031215611612576116116112c0565b5b61161d610180610d39565b90505f61162c848285016112c8565b5f83015250602082015167ffffffffffffffff81111561164f5761164e6112c4565b5b61165b84828501611344565b602083015250604082015167ffffffffffffffff81111561167f5761167e6112c4565b5b61168b848285016115cf565b604083015250606082015167ffffffffffffffff8111156116af576116ae6112c4565b5b6116bb848285016115cf565b606083015250608082015167ffffffffffffffff8111156116df576116de6112c4565b5b6116eb848285016115cf565b60808301525060a06116ff848285016112c8565b60a08301525060c0611713848285016112c8565b60c08301525060e0611727848285016112c8565b60e08301525061010082015167ffffffffffffffff81111561174c5761174b6112c4565b5b611758848285016115cf565b6101008301525061012061176e848285016112c8565b6101208301525061014082015167ffffffffffffffff811115611794576117936112c4565b5b6117a0848285016115cf565b610140830152506101606117b684828501611371565b6101608301525092915050565b5f6117d56117d084611563565b610d39565b905080838252602082019050602084028301858111156117f8576117f7610d7e565b5b835b8181101561183f57805167ffffffffffffffff81111561181d5761181c610cd7565b5b80860161182a89826115fc565b855260208501945050506020810190506117fa565b5050509392505050565b5f82601f83011261185d5761185c610cd7565b5b815161186d8482602086016117c3565b91505092915050565b5f6020828403121561188b5761188a6109c9565b5b5f82015167ffffffffffffffff8111156118a8576118a76109cd565b5b6118b484828501611849565b91505092915050565b5f82825260208201905092915050565b5f6118d7826107a1565b6118e181856118bd565b93506118ec836107bb565b805f5b8381101561191c57815161190388826107ca565b975061190e836107e1565b9250506001810190506118ef565b5085935050505092915050565b5f82825260208201905092915050565b5f61194382610a77565b61194d8185611929565b935061195d818560208601610a91565b61196681610ab9565b840191505092915050565b5f60e0820190506119845f83018a610a26565b818103602083015261199681896118cd565b905081810360408301526119aa8188611939565b905081810360608301526119be8187611939565b905081810360808301526119d28186611939565b905081810360a08301526119e68185611939565b90506119f560c0830184610a26565b98975050505050505050565b5f604082019050611a145f830185610a26565b611a216020830184610a26565b9392505050565b611a3181610868565b82525050565b5f606082019050611a4a5f830186611a28565b611a576020830185610a26565b611a646040830184610a26565b949350505050565b5f602082019050611a7f5f830184611a28565b92915050565b5f67ffffffffffffffff821115611a9f57611a9e610cdb565b5b602082029050602081019050919050565b5f60a08284031215611ac557611ac46112c0565b5b611acf60a0610d39565b90505f611ade84828501611371565b5f830152506020611af1848285016112c8565b6020830152506040611b05848285016112c8565b604083015250606082015167ffffffffffffffff811115611b2957611b286112c4565b5b611b35848285016115cf565b6060830152506080611b4984828501611371565b60808301525092915050565b5f611b67611b6284611a85565b610d39565b90508083825260208201905060208402830185811115611b8a57611b89610d7e565b5b835b81811015611bd157805167ffffffffffffffff811115611baf57611bae610cd7565b5b808601611bbc8982611ab0565b85526020850194505050602081019050611b8c565b5050509392505050565b5f82601f830112611bef57611bee610cd7565b5b8151611bff848260208601611b55565b91505092915050565b5f60208284031215611c1d57611c1c6109c9565b5b5f82015167ffffffffffffffff811115611c3a57611c396109cd565b5b611c4684828501611bdb565b9150509291505056fea2646970667358221220e95a443980c0b081101f3b3c5b8b5f6b5849214cfb187da67bbe3c58fbba057264736f6c63430008140033",
  "immutableReferences": {},
  "source": "// SPDX-License-Identifier: MIT\r\npragma solidity ^0.8.0;\r\n\r\nimport \"./ProcessorRetailer.sol\";\r\n\r\ncontract ProcessorRetailerDelegate {\r\n    ProcessorRetailer public delegate;\r\n\r\n    constructor(address _processorRetailerAddress) {\r\n        delegate = ProcessorRetailer(_processorRetailerAddress);\r\n    }\r\n\r\n    function createOrder(address _processorAddress, uint _productId, uint _quantity) public returns (uint) {\r\n        return delegate.createOrder(_processorAddress, _productId, _quantity);\r\n    }\r\n\r\n    function cancelOrder(uint _orderId) public returns (uint){\r\n        return delegate.cancelOrder(_orderId);\r\n    }\r\n\r\n    function createOffer(\r\n        uint _price, \r\n        uint[] memory _offerIds, \r\n        string memory _bestBeforeDate, \r\n        string memory _milkType, \r\n        string memory _productionDate, \r\n        string memory _origin, \r\n        uint _orderId\r\n    ) public returns(uint){\r\n        return delegate.createOffer(_price, _offerIds, _bestBeforeDate, _milkType, _productionDate, _origin, _orderId);\r\n    }\r\n\r\n    function cancelOffer(uint _offerId) public returns (uint){\r\n        return delegate.cancelOffer(_offerId);\r\n    }\r\n\r\n    function viewOrders(address _processorAddress) public view returns (ProcessorRetailer.Order[] memory) {\r\n        return delegate.viewOrders(_processorAddress);\r\n    }\r\n\r\n    function viewOffers(uint _orderId) public view returns (ProcessorRetailer.Offer[] memory) {\r\n        return delegate.viewOffers(_orderId);\r\n    }\r\n\r\n    function acceptOffer(uint _orderId, uint _offerId) public returns (uint){\r\n        return delegate.acceptOffer(_orderId, _offerId);\r\n    }\r\n\r\n    function getAllTransactions() public view returns (ProcessorRetailer.Transaction[] memory) {\r\n        return delegate.getAllTransactions();\r\n    }\r\n}\r\n",
  "sourcePath": "/Users/kathysmbp/Desktop/comp6452Project2Final/contracts/ProcessorRetailerDelegate.sol",
  "compiler": {
    "name": "solc",
    "version": "0.8.20+commit.a1b79de6.Emscripten.clang"
  },
  "schemaVersion": "3.4.14",
  "updatedAt": "2023-07-25T03:57:50.550Z",
  "devdoc": {
    "kind": "dev",
    "methods": {},
    "version": 1
  },
  "userdoc": {
    "kind": "user",
    "methods": {},
    "version": 1
  }
}