{
  "contractName": "RetailerCustomerDelegate",
  "abi": [
    {
      "inputs": [
        {
          "internalType": "address",
          "name": "_retailerCustomerAddress",
          "type": "address"
        }
      ],
      "stateMutability": "nonpayable",
      "type": "constructor"
    },
    {
      "inputs": [],
      "name": "delegate",
      "outputs": [
        {
          "internalType": "contract RetailerCustomer",
          "name": "",
          "type": "address"
        }
      ],
      "stateMutability": "view",
      "type": "function"
    },
    {
      "inputs": [
        {
          "internalType": "uint256",
          "name": "_productType",
          "type": "uint256"
        },
        {
          "internalType": "string",
          "name": "_milkType",
          "type": "string"
        },
        {
          "internalType": "string",
          "name": "_brand",
          "type": "string"
        },
        {
          "internalType": "string",
          "name": "_origin",
          "type": "string"
        },
        {
          "internalType": "uint256",
          "name": "_price",
          "type": "uint256"
        },
        {
          "internalType": "string",
          "name": "_description",
          "type": "string"
        },
        {
          "internalType": "uint256",
          "name": "_stock",
          "type": "uint256"
        }
      ],
      "name": "createProduct",
      "outputs": [],
      "stateMutability": "nonpayable",
      "type": "function"
    },
    {
      "inputs": [
        {
          "internalType": "uint256",
          "name": "_productType",
          "type": "uint256"
        },
        {
          "internalType": "string",
          "name": "_milkType",
          "type": "string"
        },
        {
          "internalType": "string",
          "name": "_brand",
          "type": "string"
        },
        {
          "internalType": "string",
          "name": "_origin",
          "type": "string"
        },
        {
          "internalType": "uint256",
          "name": "_price",
          "type": "uint256"
        },
        {
          "internalType": "string",
          "name": "_description",
          "type": "string"
        },
        {
          "internalType": "uint256",
          "name": "_stock",
          "type": "uint256"
        }
      ],
      "name": "updateProduct",
      "outputs": [],
      "stateMutability": "nonpayable",
      "type": "function"
    },
    {
      "inputs": [
        {
          "internalType": "uint256",
          "name": "_productType",
          "type": "uint256"
        }
      ],
      "name": "removeProduct",
      "outputs": [],
      "stateMutability": "nonpayable",
      "type": "function"
    },
    {
      "inputs": [
        {
          "internalType": "uint256",
          "name": "_productType",
          "type": "uint256"
        }
      ],
      "name": "viewProduct",
      "outputs": [
        {
          "components": [
            {
              "internalType": "uint256",
              "name": "productType",
              "type": "uint256"
            },
            {
              "internalType": "string",
              "name": "milkType",
              "type": "string"
            },
            {
              "internalType": "string",
              "name": "brand",
              "type": "string"
            },
            {
              "internalType": "string",
              "name": "origin",
              "type": "string"
            },
            {
              "internalType": "uint256",
              "name": "price",
              "type": "uint256"
            },
            {
              "internalType": "string",
              "name": "description",
              "type": "string"
            },
            {
              "internalType": "uint256",
              "name": "stock",
              "type": "uint256"
            },
            {
              "internalType": "address",
              "name": "retailer",
              "type": "address"
            }
          ],
          "internalType": "struct RetailerCustomer.MilkProduct[]",
          "name": "",
          "type": "tuple[]"
        }
      ],
      "stateMutability": "view",
      "type": "function"
    },
    {
      "inputs": [
        {
          "internalType": "uint256",
          "name": "_productType",
          "type": "uint256"
        },
        {
          "internalType": "uint256",
          "name": "_quantity",
          "type": "uint256"
        }
      ],
      "name": "buyProduct",
      "outputs": [],
      "stateMutability": "nonpayable",
      "type": "function"
    },
    {
      "inputs": [
        {
          "internalType": "uint256",
          "name": "_transactionId",
          "type": "uint256"
        },
        {
          "internalType": "uint256[]",
          "name": "_offerIds",
          "type": "uint256[]"
        }
      ],
      "name": "updateTransaction",
      "outputs": [],
      "stateMutability": "nonpayable",
      "type": "function"
    },
    {
      "inputs": [],
      "name": "getAllTransactions",
      "outputs": [
        {
          "components": [
            {
              "internalType": "uint256",
              "name": "productType",
              "type": "uint256"
            },
            {
              "internalType": "uint256",
              "name": "quantity",
              "type": "uint256"
            },
            {
              "internalType": "uint256[]",
              "name": "offerIds",
              "type": "uint256[]"
            },
            {
              "internalType": "string",
              "name": "status",
              "type": "string"
            },
            {
              "internalType": "address",
              "name": "customer",
              "type": "address"
            },
            {
              "internalType": "address",
              "name": "retailer",
              "type": "address"
            }
          ],
          "internalType": "struct RetailerCustomer.Transaction[]",
          "name": "",
          "type": "tuple[]"
        }
      ],
      "stateMutability": "view",
      "type": "function"
    }
  ],
  "bytecode": "0x608060405234801562000010575f80fd5b506040516200175b3803806200175b8339818101604052810190620000369190620000e1565b805f806101000a81548173ffffffffffffffffffffffffffffffffffffffff021916908373ffffffffffffffffffffffffffffffffffffffff1602179055505062000111565b5f80fd5b5f73ffffffffffffffffffffffffffffffffffffffff82169050919050565b5f620000ab8262000080565b9050919050565b620000bd816200009f565b8114620000c8575f80fd5b50565b5f81519050620000db81620000b2565b92915050565b5f60208284031215620000f957620000f86200007c565b5b5f6200010884828501620000cb565b91505092915050565b61163c806200011f5f395ff3fe608060405234801561000f575f80fd5b5060043610610086575f3560e01c80636732c3e7116100595780636732c3e7146100fc578063abf0ebc614610118578063c89e436114610134578063eafd4bbd1461015257610086565b806327506f531461008a5780633597b2fe146100a857806353b62866146100c45780635ee95cae146100e0575b5f80fd5b610092610182565b60405161009f9190610881565b60405180910390f35b6100c260048036038101906100bd9190610a08565b610218565b005b6100de60048036038101906100d99190610b15565b6102b2565b005b6100fa60048036038101906100f59190610b53565b61033d565b005b61011660048036038101906101119190610c42565b6103c5565b005b610132600480360381019061012d9190610a08565b610450565b005b61013c6104ea565b6040516101499190610cf7565b60405180910390f35b61016c60048036038101906101679190610b53565b61050d565b6040516101799190610e8d565b60405180910390f35b60605f8054906101000a900473ffffffffffffffffffffffffffffffffffffffff1673ffffffffffffffffffffffffffffffffffffffff166327506f536040518163ffffffff1660e01b81526004015f60405180830381865afa1580156101eb573d5f803e3d5ffd5b505050506040513d5f823e3d601f19601f8201168201806040525081019061021391906111a9565b905090565b5f8054906101000a900473ffffffffffffffffffffffffffffffffffffffff1673ffffffffffffffffffffffffffffffffffffffff16633597b2fe888888888888886040518863ffffffff1660e01b815260040161027c9796959493929190611247565b5f604051808303815f87803b158015610293575f80fd5b505af11580156102a5573d5f803e3d5ffd5b5050505050505050505050565b5f8054906101000a900473ffffffffffffffffffffffffffffffffffffffff1673ffffffffffffffffffffffffffffffffffffffff166353b6286683836040518363ffffffff1660e01b815260040161030c9291906112d0565b5f604051808303815f87803b158015610323575f80fd5b505af1158015610335573d5f803e3d5ffd5b505050505050565b5f8054906101000a900473ffffffffffffffffffffffffffffffffffffffff1673ffffffffffffffffffffffffffffffffffffffff16635ee95cae826040518263ffffffff1660e01b815260040161039591906112f7565b5f604051808303815f87803b1580156103ac575f80fd5b505af11580156103be573d5f803e3d5ffd5b5050505050565b5f8054906101000a900473ffffffffffffffffffffffffffffffffffffffff1673ffffffffffffffffffffffffffffffffffffffff16636732c3e783836040518363ffffffff1660e01b815260040161041f92919061137c565b5f604051808303815f87803b158015610436575f80fd5b505af1158015610448573d5f803e3d5ffd5b505050505050565b5f8054906101000a900473ffffffffffffffffffffffffffffffffffffffff1673ffffffffffffffffffffffffffffffffffffffff1663abf0ebc6888888888888886040518863ffffffff1660e01b81526004016104b49796959493929190611247565b5f604051808303815f87803b1580156104cb575f80fd5b505af11580156104dd573d5f803e3d5ffd5b5050505050505050505050565b5f8054906101000a900473ffffffffffffffffffffffffffffffffffffffff1681565b60605f8054906101000a900473ffffffffffffffffffffffffffffffffffffffff1673ffffffffffffffffffffffffffffffffffffffff1663eafd4bbd836040518263ffffffff1660e01b815260040161056791906112f7565b5f60405180830381865afa158015610581573d5f803e3d5ffd5b505050506040513d5f823e3d601f19601f820116820180604052508101906105a991906115bf565b9050919050565b5f81519050919050565b5f82825260208201905092915050565b5f819050602082019050919050565b5f819050919050565b6105eb816105d9565b82525050565b5f81519050919050565b5f82825260208201905092915050565b5f819050602082019050919050565b5f61062583836105e2565b60208301905092915050565b5f602082019050919050565b5f610647826105f1565b61065181856105fb565b935061065c8361060b565b805f5b8381101561068c578151610673888261061a565b975061067e83610631565b92505060018101905061065f565b5085935050505092915050565b5f81519050919050565b5f82825260208201905092915050565b5f5b838110156106d05780820151818401526020810190506106b5565b5f8484015250505050565b5f601f19601f8301169050919050565b5f6106f582610699565b6106ff81856106a3565b935061070f8185602086016106b3565b610718816106db565b840191505092915050565b5f73ffffffffffffffffffffffffffffffffffffffff82169050919050565b5f61074c82610723565b9050919050565b61075c81610742565b82525050565b5f60c083015f8301516107775f8601826105e2565b50602083015161078a60208601826105e2565b50604083015184820360408601526107a2828261063d565b915050606083015184820360608601526107bc82826106eb565b91505060808301516107d16080860182610753565b5060a08301516107e460a0860182610753565b508091505092915050565b5f6107fa8383610762565b905092915050565b5f602082019050919050565b5f610818826105b0565b61082281856105ba565b935083602082028501610834856105ca565b805f5b8581101561086f578484038952815161085085826107ef565b945061085b83610802565b925060208a01995050600181019050610837565b50829750879550505050505092915050565b5f6020820190508181035f830152610899818461080e565b905092915050565b5f604051905090565b5f80fd5b5f80fd5b6108bb816105d9565b81146108c5575f80fd5b50565b5f813590506108d6816108b2565b92915050565b5f80fd5b5f80fd5b7f4e487b71000000000000000000000000000000000000000000000000000000005f52604160045260245ffd5b61091a826106db565b810181811067ffffffffffffffff82111715610939576109386108e4565b5b80604052505050565b5f61094b6108a1565b90506109578282610911565b919050565b5f67ffffffffffffffff821115610976576109756108e4565b5b61097f826106db565b9050602081019050919050565b828183375f83830152505050565b5f6109ac6109a78461095c565b610942565b9050828152602081018484840111156109c8576109c76108e0565b5b6109d384828561098c565b509392505050565b5f82601f8301126109ef576109ee6108dc565b5b81356109ff84826020860161099a565b91505092915050565b5f805f805f805f60e0888a031215610a2357610a226108aa565b5b5f610a308a828b016108c8565b975050602088013567ffffffffffffffff811115610a5157610a506108ae565b5b610a5d8a828b016109db565b965050604088013567ffffffffffffffff811115610a7e57610a7d6108ae565b5b610a8a8a828b016109db565b955050606088013567ffffffffffffffff811115610aab57610aaa6108ae565b5b610ab78a828b016109db565b9450506080610ac88a828b016108c8565b93505060a088013567ffffffffffffffff811115610ae957610ae86108ae565b5b610af58a828b016109db565b92505060c0610b068a828b016108c8565b91505092959891949750929550565b5f8060408385031215610b2b57610b2a6108aa565b5b5f610b38858286016108c8565b9250506020610b49858286016108c8565b9150509250929050565b5f60208284031215610b6857610b676108aa565b5b5f610b75848285016108c8565b91505092915050565b5f67ffffffffffffffff821115610b9857610b976108e4565b5b602082029050602081019050919050565b5f80fd5b5f610bbf610bba84610b7e565b610942565b90508083825260208201905060208402830185811115610be257610be1610ba9565b5b835b81811015610c0b5780610bf788826108c8565b845260208401935050602081019050610be4565b5050509392505050565b5f82601f830112610c2957610c286108dc565b5b8135610c39848260208601610bad565b91505092915050565b5f8060408385031215610c5857610c576108aa565b5b5f610c65858286016108c8565b925050602083013567ffffffffffffffff811115610c8657610c856108ae565b5b610c9285828601610c15565b9150509250929050565b5f819050919050565b5f610cbf610cba610cb584610723565b610c9c565b610723565b9050919050565b5f610cd082610ca5565b9050919050565b5f610ce182610cc6565b9050919050565b610cf181610cd7565b82525050565b5f602082019050610d0a5f830184610ce8565b92915050565b5f81519050919050565b5f82825260208201905092915050565b5f819050602082019050919050565b5f61010083015f830151610d4f5f8601826105e2565b5060208301518482036020860152610d6782826106eb565b91505060408301518482036040860152610d8182826106eb565b91505060608301518482036060860152610d9b82826106eb565b9150506080830151610db060808601826105e2565b5060a083015184820360a0860152610dc882826106eb565b91505060c0830151610ddd60c08601826105e2565b5060e0830151610df060e0860182610753565b508091505092915050565b5f610e068383610d39565b905092915050565b5f602082019050919050565b5f610e2482610d10565b610e2e8185610d1a565b935083602082028501610e4085610d2a565b805f5b85811015610e7b5784840389528151610e5c8582610dfb565b9450610e6783610e0e565b925060208a01995050600181019050610e43565b50829750879550505050505092915050565b5f6020820190508181035f830152610ea58184610e1a565b905092915050565b5f67ffffffffffffffff821115610ec757610ec66108e4565b5b602082029050602081019050919050565b5f80fd5b5f80fd5b5f81519050610eee816108b2565b92915050565b5f610f06610f0184610b7e565b610942565b90508083825260208201905060208402830185811115610f2957610f28610ba9565b5b835b81811015610f525780610f3e8882610ee0565b845260208401935050602081019050610f2b565b5050509392505050565b5f82601f830112610f7057610f6f6108dc565b5b8151610f80848260208601610ef4565b91505092915050565b5f610f9b610f968461095c565b610942565b905082815260208101848484011115610fb757610fb66108e0565b5b610fc28482856106b3565b509392505050565b5f82601f830112610fde57610fdd6108dc565b5b8151610fee848260208601610f89565b91505092915050565b61100081610742565b811461100a575f80fd5b50565b5f8151905061101b81610ff7565b92915050565b5f60c0828403121561103657611035610ed8565b5b61104060c0610942565b90505f61104f84828501610ee0565b5f83015250602061106284828501610ee0565b602083015250604082015167ffffffffffffffff81111561108657611085610edc565b5b61109284828501610f5c565b604083015250606082015167ffffffffffffffff8111156110b6576110b5610edc565b5b6110c284828501610fca565b60608301525060806110d68482850161100d565b60808301525060a06110ea8482850161100d565b60a08301525092915050565b5f61110861110384610ead565b610942565b9050808382526020820190506020840283018581111561112b5761112a610ba9565b5b835b8181101561117257805167ffffffffffffffff8111156111505761114f6108dc565b5b80860161115d8982611021565b8552602085019450505060208101905061112d565b5050509392505050565b5f82601f8301126111905761118f6108dc565b5b81516111a08482602086016110f6565b91505092915050565b5f602082840312156111be576111bd6108aa565b5b5f82015167ffffffffffffffff8111156111db576111da6108ae565b5b6111e78482850161117c565b91505092915050565b6111f9816105d9565b82525050565b5f82825260208201905092915050565b5f61121982610699565b61122381856111ff565b93506112338185602086016106b3565b61123c816106db565b840191505092915050565b5f60e08201905061125a5f83018a6111f0565b818103602083015261126c818961120f565b90508181036040830152611280818861120f565b90508181036060830152611294818761120f565b90506112a360808301866111f0565b81810360a08301526112b5818561120f565b90506112c460c08301846111f0565b98975050505050505050565b5f6040820190506112e35f8301856111f0565b6112f060208301846111f0565b9392505050565b5f60208201905061130a5f8301846111f0565b92915050565b5f82825260208201905092915050565b5f61132a826105f1565b6113348185611310565b935061133f8361060b565b805f5b8381101561136f578151611356888261061a565b975061136183610631565b925050600181019050611342565b5085935050505092915050565b5f60408201905061138f5f8301856111f0565b81810360208301526113a18184611320565b90509392505050565b5f67ffffffffffffffff8211156113c4576113c36108e4565b5b602082029050602081019050919050565b5f61010082840312156113eb576113ea610ed8565b5b6113f6610100610942565b90505f61140584828501610ee0565b5f83015250602082015167ffffffffffffffff81111561142857611427610edc565b5b61143484828501610fca565b602083015250604082015167ffffffffffffffff81111561145857611457610edc565b5b61146484828501610fca565b604083015250606082015167ffffffffffffffff81111561148857611487610edc565b5b61149484828501610fca565b60608301525060806114a884828501610ee0565b60808301525060a082015167ffffffffffffffff8111156114cc576114cb610edc565b5b6114d884828501610fca565b60a08301525060c06114ec84828501610ee0565b60c08301525060e06115008482850161100d565b60e08301525092915050565b5f61151e611519846113aa565b610942565b9050808382526020820190506020840283018581111561154157611540610ba9565b5b835b8181101561158857805167ffffffffffffffff811115611566576115656108dc565b5b80860161157389826113d5565b85526020850194505050602081019050611543565b5050509392505050565b5f82601f8301126115a6576115a56108dc565b5b81516115b684826020860161150c565b91505092915050565b5f602082840312156115d4576115d36108aa565b5b5f82015167ffffffffffffffff8111156115f1576115f06108ae565b5b6115fd84828501611592565b9150509291505056fea26469706673582212204911a79edcde34050f33b4cfe536f6fb5e896f555f15c7d2b8207a586a2e80df64736f6c63430008140033",
  "immutableReferences": {},
  "source": "// SPDX-License-Identifier: MIT\r\npragma solidity ^0.8.0;\r\n\r\nimport \"./RetailerCustomer.sol\";\r\n\r\ncontract RetailerCustomerDelegate {\r\n    RetailerCustomer public delegate;\r\n\r\n    constructor(address _retailerCustomerAddress) {\r\n        delegate = RetailerCustomer(_retailerCustomerAddress);\r\n    }\r\n\r\n    function createProduct(\r\n        uint _productType, \r\n        string memory _milkType, \r\n        string memory _brand, \r\n        string memory _origin, \r\n        uint _price, \r\n        string memory _description, \r\n        uint _stock\r\n    ) public {\r\n        delegate.createProduct(_productType, _milkType, _brand, _origin, _price, _description, _stock);\r\n    }\r\n\r\n    function updateProduct(\r\n        uint _productType, \r\n        string memory _milkType, \r\n        string memory _brand, \r\n        string memory _origin, \r\n        uint _price, \r\n        string memory _description, \r\n        uint _stock\r\n    ) public {\r\n        delegate.updateProduct(_productType, _milkType, _brand, _origin, _price, _description, _stock);\r\n    }\r\n\r\n    function removeProduct(uint _productType) public {\r\n        delegate.removeProduct(_productType);\r\n    }\r\n\r\n    function viewProduct(uint _productType) public view returns (RetailerCustomer.MilkProduct[] memory) {\r\n        return delegate.viewProduct(_productType);\r\n    }\r\n\r\n    function buyProduct(uint _productType, uint _quantity) public {\r\n        delegate.buyProduct(_productType, _quantity);\r\n    }\r\n\r\n    function updateTransaction(uint _transactionId, uint[] memory _offerIds) public {\r\n        delegate.updateTransaction(_transactionId, _offerIds);\r\n    }\r\n\r\n    function getAllTransactions() public view returns (RetailerCustomer.Transaction[] memory) {\r\n        return delegate.getAllTransactions();\r\n    }\r\n}\r\n",
  "sourcePath": "/Users/kathysmbp/Desktop/comp6452Project2Final/contracts/RetailerCustomerDelegate.sol",
  "compiler": {
    "name": "solc",
    "version": "0.8.20+commit.a1b79de6.Emscripten.clang"
  },
  "schemaVersion": "3.4.14",
  "updatedAt": "2023-07-24T12:47:15.415Z",
  "devdoc": {
    "kind": "dev",
    "methods": {},
    "version": 1
  },
  "userdoc": {
    "kind": "user",
    "methods": {},
    "version": 1
  }
}