{
  "contractName": "RetailerCustomer",
  "abi": [
    {
      "inputs": [],
      "name": "nextTransactionId",
      "outputs": [
        {
          "internalType": "uint256",
          "name": "",
          "type": "uint256"
        }
      ],
      "stateMutability": "view",
      "type": "function"
    },
    {
      "inputs": [
        {
          "internalType": "uint256",
          "name": "",
          "type": "uint256"
        }
      ],
      "name": "productTypes",
      "outputs": [
        {
          "internalType": "uint256",
          "name": "",
          "type": "uint256"
        }
      ],
      "stateMutability": "view",
      "type": "function"
    },
    {
      "inputs": [
        {
          "internalType": "uint256",
          "name": "",
          "type": "uint256"
        }
      ],
      "name": "products",
      "outputs": [
        {
          "internalType": "uint256",
          "name": "productType",
          "type": "uint256"
        },
        {
          "internalType": "string",
          "name": "milkType",
          "type": "string"
        },
        {
          "internalType": "string",
          "name": "brand",
          "type": "string"
        },
        {
          "internalType": "string",
          "name": "origin",
          "type": "string"
        },
        {
          "internalType": "uint256",
          "name": "price",
          "type": "uint256"
        },
        {
          "internalType": "string",
          "name": "description",
          "type": "string"
        },
        {
          "internalType": "uint256",
          "name": "stock",
          "type": "uint256"
        },
        {
          "internalType": "address",
          "name": "retailer",
          "type": "address"
        }
      ],
      "stateMutability": "view",
      "type": "function"
    },
    {
      "inputs": [
        {
          "internalType": "uint256",
          "name": "",
          "type": "uint256"
        }
      ],
      "name": "transactions",
      "outputs": [
        {
          "internalType": "uint256",
          "name": "productType",
          "type": "uint256"
        },
        {
          "internalType": "uint256",
          "name": "quantity",
          "type": "uint256"
        },
        {
          "internalType": "string",
          "name": "status",
          "type": "string"
        },
        {
          "internalType": "address",
          "name": "customer",
          "type": "address"
        },
        {
          "internalType": "address",
          "name": "retailer",
          "type": "address"
        }
      ],
      "stateMutability": "view",
      "type": "function"
    },
    {
      "inputs": [
        {
          "internalType": "uint256",
          "name": "_productType",
          "type": "uint256"
        },
        {
          "internalType": "string",
          "name": "_milkType",
          "type": "string"
        },
        {
          "internalType": "string",
          "name": "_brand",
          "type": "string"
        },
        {
          "internalType": "string",
          "name": "_origin",
          "type": "string"
        },
        {
          "internalType": "uint256",
          "name": "_price",
          "type": "uint256"
        },
        {
          "internalType": "string",
          "name": "_description",
          "type": "string"
        },
        {
          "internalType": "uint256",
          "name": "_stock",
          "type": "uint256"
        }
      ],
      "name": "createProduct",
      "outputs": [],
      "stateMutability": "nonpayable",
      "type": "function"
    },
    {
      "inputs": [
        {
          "internalType": "uint256",
          "name": "_productType",
          "type": "uint256"
        },
        {
          "internalType": "string",
          "name": "_milkType",
          "type": "string"
        },
        {
          "internalType": "string",
          "name": "_brand",
          "type": "string"
        },
        {
          "internalType": "string",
          "name": "_origin",
          "type": "string"
        },
        {
          "internalType": "uint256",
          "name": "_price",
          "type": "uint256"
        },
        {
          "internalType": "string",
          "name": "_description",
          "type": "string"
        },
        {
          "internalType": "uint256",
          "name": "_stock",
          "type": "uint256"
        }
      ],
      "name": "updateProduct",
      "outputs": [],
      "stateMutability": "nonpayable",
      "type": "function"
    },
    {
      "inputs": [
        {
          "internalType": "uint256",
          "name": "_productType",
          "type": "uint256"
        }
      ],
      "name": "removeProduct",
      "outputs": [],
      "stateMutability": "nonpayable",
      "type": "function"
    },
    {
      "inputs": [
        {
          "internalType": "uint256",
          "name": "_productType",
          "type": "uint256"
        }
      ],
      "name": "viewProduct",
      "outputs": [
        {
          "components": [
            {
              "internalType": "uint256",
              "name": "productType",
              "type": "uint256"
            },
            {
              "internalType": "string",
              "name": "milkType",
              "type": "string"
            },
            {
              "internalType": "string",
              "name": "brand",
              "type": "string"
            },
            {
              "internalType": "string",
              "name": "origin",
              "type": "string"
            },
            {
              "internalType": "uint256",
              "name": "price",
              "type": "uint256"
            },
            {
              "internalType": "string",
              "name": "description",
              "type": "string"
            },
            {
              "internalType": "uint256",
              "name": "stock",
              "type": "uint256"
            },
            {
              "internalType": "address",
              "name": "retailer",
              "type": "address"
            }
          ],
          "internalType": "struct RetailerCustomer.MilkProduct[]",
          "name": "",
          "type": "tuple[]"
        }
      ],
      "stateMutability": "view",
      "type": "function"
    },
    {
      "inputs": [
        {
          "internalType": "uint256",
          "name": "_productType",
          "type": "uint256"
        },
        {
          "internalType": "uint256",
          "name": "_quantity",
          "type": "uint256"
        }
      ],
      "name": "buyProduct",
      "outputs": [],
      "stateMutability": "nonpayable",
      "type": "function"
    },
    {
      "inputs": [
        {
          "internalType": "uint256",
          "name": "_transactionId",
          "type": "uint256"
        },
        {
          "internalType": "uint256[]",
          "name": "_offerIds",
          "type": "uint256[]"
        }
      ],
      "name": "updateTransaction",
      "outputs": [],
      "stateMutability": "nonpayable",
      "type": "function"
    },
    {
      "inputs": [],
      "name": "getAllTransactions",
      "outputs": [
        {
          "components": [
            {
              "internalType": "uint256",
              "name": "productType",
              "type": "uint256"
            },
            {
              "internalType": "uint256",
              "name": "quantity",
              "type": "uint256"
            },
            {
              "internalType": "uint256[]",
              "name": "offerIds",
              "type": "uint256[]"
            },
            {
              "internalType": "string",
              "name": "status",
              "type": "string"
            },
            {
              "internalType": "address",
              "name": "customer",
              "type": "address"
            },
            {
              "internalType": "address",
              "name": "retailer",
              "type": "address"
            }
          ],
          "internalType": "struct RetailerCustomer.Transaction[]",
          "name": "",
          "type": "tuple[]"
        }
      ],
      "stateMutability": "view",
      "type": "function"
    }
  ],
  "bytecode": "0x60806040526001600355348015610014575f80fd5b50612ce3806100225f395ff3fe608060405234801561000f575f80fd5b50600436106100a7575f3560e01c80637acc0b201161006f5780637acc0b20146101395780637c09b0bb146101705780639ace38c2146101a0578063abf0ebc6146101d4578063d7ca38f3146101f0578063eafd4bbd1461020e576100a7565b806327506f53146100ab5780633597b2fe146100c957806353b62866146100e55780635ee95cae146101015780636732c3e71461011d575b5f80fd5b6100b361023e565b6040516100c09190611da1565b60405180910390f35b6100e360048036038101906100de9190611f28565b6104ad565b005b6100ff60048036038101906100fa9190612035565b610644565b005b61011b60048036038101906101169190612073565b61096d565b005b61013760048036038101906101329190612162565b610a99565b005b610153600480360381019061014e9190612073565b610c6f565b604051610167989796959493929190612222565b60405180910390f35b61018a60048036038101906101859190612073565b610ee9565b60405161019791906122ba565b60405180910390f35b6101ba60048036038101906101b59190612073565b610f09565b6040516101cb9594939291906122d3565b60405180910390f35b6101ee60048036038101906101e99190611f28565b610fff565b005b6101f86111eb565b60405161020591906122ba565b60405180910390f35b61022860048036038101906102239190612073565b6111f1565b60405161023591906124a8565b60405180910390f35b60605f60035467ffffffffffffffff81111561025d5761025c611e04565b5b60405190808252806020026020018201604052801561029657816020015b610283611978565b81526020019060019003908161027b5790505b5090505f600190505b6003548110156104a55760025f8281526020019081526020015f206040518060c00160405290815f8201548152602001600182015481526020016002820180548060200260200160405190810160405280929190818152602001828054801561032557602002820191905f5260205f20905b815481526020019060010190808311610311575b5050505050815260200160038201805461033e906124f5565b80601f016020809104026020016040519081016040528092919081815260200182805461036a906124f5565b80156103b55780601f1061038c576101008083540402835291602001916103b5565b820191905f5260205f20905b81548152906001019060200180831161039857829003601f168201915b50505050508152602001600482015f9054906101000a900473ffffffffffffffffffffffffffffffffffffffff1673ffffffffffffffffffffffffffffffffffffffff1673ffffffffffffffffffffffffffffffffffffffff168152602001600582015f9054906101000a900473ffffffffffffffffffffffffffffffffffffffff1673ffffffffffffffffffffffffffffffffffffffff1673ffffffffffffffffffffffffffffffffffffffff1681525050826001836104769190612552565b8151811061048757610486612585565b5b6020026020010181905250808061049d906125b2565b91505061029f565b508091505090565b3373ffffffffffffffffffffffffffffffffffffffff165f808981526020019081526020015f206007015f9054906101000a900473ffffffffffffffffffffffffffffffffffffffff1673ffffffffffffffffffffffffffffffffffffffff161461054d576040517f08c379a000000000000000000000000000000000000000000000000000000000815260040161054490612669565b60405180910390fd5b5f8651111561057857855f808981526020019081526020015f2060010190816105769190612824565b505b5f855111156105a357845f808981526020019081526020015f2060020190816105a19190612824565b505b5f845111156105ce57835f808981526020019081526020015f2060030190816105cc9190612824565b505b5f8311156105ef57825f808981526020019081526020015f20600401819055505b5f8251111561061a57815f808981526020019081526020015f2060050190816106189190612824565b505b5f81111561063b57805f808981526020019081526020015f20600601819055505b50505050505050565b5f73ffffffffffffffffffffffffffffffffffffffff165f808481526020019081526020015f206007015f9054906101000a900473ffffffffffffffffffffffffffffffffffffffff1673ffffffffffffffffffffffffffffffffffffffff16036106e4576040517f08c379a00000000000000000000000000000000000000000000000000000000081526004016106db9061293d565b60405180910390fd5b805f808481526020019081526020015f2060060154101561073a576040517f08c379a0000000000000000000000000000000000000000000000000000000008152600401610731906129a5565b60405180910390fd5b805f808481526020019081526020015f206006015f82825461075c9190612552565b925050819055506040518060c001604052808381526020018281526020015f67ffffffffffffffff81111561079457610793611e04565b5b6040519080825280602002602001820160405280156107c25781602001602082028036833780820191505090505b5081526020016040518060400160405280600a81526020017f496e636f6d706c6574650000000000000000000000000000000000000000000081525081526020013373ffffffffffffffffffffffffffffffffffffffff1681526020015f808581526020019081526020015f206007015f9054906101000a900473ffffffffffffffffffffffffffffffffffffffff1673ffffffffffffffffffffffffffffffffffffffff1681525060025f60035481526020019081526020015f205f820151815f01556020820151816001015560408201518160020190805190602001906108ac9291906119d6565b5060608201518160030190816108c29190612824565b506080820151816004015f6101000a81548173ffffffffffffffffffffffffffffffffffffffff021916908373ffffffffffffffffffffffffffffffffffffffff16021790555060a0820151816005015f6101000a81548173ffffffffffffffffffffffffffffffffffffffff021916908373ffffffffffffffffffffffffffffffffffffffff16021790555090505060035f815480929190610964906125b2565b91905055505050565b3373ffffffffffffffffffffffffffffffffffffffff165f808381526020019081526020015f206007015f9054906101000a900473ffffffffffffffffffffffffffffffffffffffff1673ffffffffffffffffffffffffffffffffffffffff1614610a0d576040517f08c379a0000000000000000000000000000000000000000000000000000000008152600401610a0490612a33565b60405180910390fd5b5f808281526020019081526020015f205f8082015f9055600182015f610a339190611a21565b600282015f610a429190611a21565b600382015f610a519190611a21565b600482015f9055600582015f610a679190611a21565b600682015f9055600782015f6101000a81549073ffffffffffffffffffffffffffffffffffffffff0219169055505050565b604051602001610aa890612aa5565b6040516020818303038152906040528051906020012060025f8481526020019081526020015f20600301604051602001610ae29190612b39565b6040516020818303038152906040528051906020012014610b38576040517f08c379a0000000000000000000000000000000000000000000000000000000008152600401610b2f90612b99565b60405180910390fd5b3373ffffffffffffffffffffffffffffffffffffffff165f8060025f8681526020019081526020015f205f015481526020019081526020015f206007015f9054906101000a900473ffffffffffffffffffffffffffffffffffffffff1673ffffffffffffffffffffffffffffffffffffffff1614610beb576040517f08c379a0000000000000000000000000000000000000000000000000000000008152600401610be290612c27565b60405180910390fd5b8060025f8481526020019081526020015f206002019080519060200190610c139291906119d6565b506040518060400160405280600881526020017f436f6d706c65746500000000000000000000000000000000000000000000000081525060025f8481526020019081526020015f206003019081610c6a9190612824565b505050565b5f602052805f5260405f205f91509050805f015490806001018054610c93906124f5565b80601f0160208091040260200160405190810160405280929190818152602001828054610cbf906124f5565b8015610d0a5780601f10610ce157610100808354040283529160200191610d0a565b820191905f5260205f20905b815481529060010190602001808311610ced57829003601f168201915b505050505090806002018054610d1f906124f5565b80601f0160208091040260200160405190810160405280929190818152602001828054610d4b906124f5565b8015610d965780601f10610d6d57610100808354040283529160200191610d96565b820191905f5260205f20905b815481529060010190602001808311610d7957829003601f168201915b505050505090806003018054610dab906124f5565b80601f0160208091040260200160405190810160405280929190818152602001828054610dd7906124f5565b8015610e225780601f10610df957610100808354040283529160200191610e22565b820191905f5260205f20905b815481529060010190602001808311610e0557829003601f168201915b505050505090806004015490806005018054610e3d906124f5565b80601f0160208091040260200160405190810160405280929190818152602001828054610e69906124f5565b8015610eb45780601f10610e8b57610100808354040283529160200191610eb4565b820191905f5260205f20905b815481529060010190602001808311610e9757829003601f168201915b505050505090806006015490806007015f9054906101000a900473ffffffffffffffffffffffffffffffffffffffff16905088565b60018181548110610ef8575f80fd5b905f5260205f20015f915090505481565b6002602052805f5260405f205f91509050805f015490806001015490806003018054610f34906124f5565b80601f0160208091040260200160405190810160405280929190818152602001828054610f60906124f5565b8015610fab5780601f10610f8257610100808354040283529160200191610fab565b820191905f5260205f20905b815481529060010190602001808311610f8e57829003601f168201915b505050505090806004015f9054906101000a900473ffffffffffffffffffffffffffffffffffffffff1690806005015f9054906101000a900473ffffffffffffffffffffffffffffffffffffffff16905085565b5f73ffffffffffffffffffffffffffffffffffffffff165f808981526020019081526020015f206007015f9054906101000a900473ffffffffffffffffffffffffffffffffffffffff1673ffffffffffffffffffffffffffffffffffffffff161461109f576040517f08c379a000000000000000000000000000000000000000000000000000000000815260040161109690612c8f565b60405180910390fd5b6040518061010001604052808881526020018781526020018681526020018581526020018481526020018381526020018281526020013373ffffffffffffffffffffffffffffffffffffffff168152505f808981526020019081526020015f205f820151815f0155602082015181600101908161111c9190612824565b5060408201518160020190816111329190612824565b5060608201518160030190816111489190612824565b506080820151816004015560a08201518160050190816111689190612824565b5060c0820151816006015560e0820151816007015f6101000a81548173ffffffffffffffffffffffffffffffffffffffff021916908373ffffffffffffffffffffffffffffffffffffffff160217905550905050600187908060018154018082558091505060019003905f5260205f20015f909190919091505550505050505050565b60035481565b60605f820361158a575f60018054905090505f8167ffffffffffffffff81111561121e5761121d611e04565b5b60405190808252806020026020018201604052801561125757816020015b611244611a5e565b81526020019060019003908161123c5790505b5090505f5b8281101561157f575f806001838154811061127a57611279612585565b5b905f5260205f20015481526020019081526020015f20604051806101000160405290815f82015481526020016001820180546112b5906124f5565b80601f01602080910402602001604051908101604052809291908181526020018280546112e1906124f5565b801561132c5780601f106113035761010080835404028352916020019161132c565b820191905f5260205f20905b81548152906001019060200180831161130f57829003601f168201915b50505050508152602001600282018054611345906124f5565b80601f0160208091040260200160405190810160405280929190818152602001828054611371906124f5565b80156113bc5780601f10611393576101008083540402835291602001916113bc565b820191905f5260205f20905b81548152906001019060200180831161139f57829003601f168201915b505050505081526020016003820180546113d5906124f5565b80601f0160208091040260200160405190810160405280929190818152602001828054611401906124f5565b801561144c5780601f106114235761010080835404028352916020019161144c565b820191905f5260205f20905b81548152906001019060200180831161142f57829003601f168201915b505050505081526020016004820154815260200160058201805461146f906124f5565b80601f016020809104026020016040519081016040528092919081815260200182805461149b906124f5565b80156114e65780601f106114bd576101008083540402835291602001916114e6565b820191905f5260205f20905b8154815290600101906020018083116114c957829003601f168201915b5050505050815260200160068201548152602001600782015f9054906101000a900473ffffffffffffffffffffffffffffffffffffffff1673ffffffffffffffffffffffffffffffffffffffff1673ffffffffffffffffffffffffffffffffffffffff168152505082828151811061156157611560612585565b5b60200260200101819052508080611577906125b2565b91505061125c565b508092505050611973565b5f73ffffffffffffffffffffffffffffffffffffffff165f808481526020019081526020015f206007015f9054906101000a900473ffffffffffffffffffffffffffffffffffffffff1673ffffffffffffffffffffffffffffffffffffffff160361162a576040517f08c379a00000000000000000000000000000000000000000000000000000000081526004016116219061293d565b60405180910390fd5b5f600167ffffffffffffffff81111561164657611645611e04565b5b60405190808252806020026020018201604052801561167f57816020015b61166c611a5e565b8152602001906001900390816116645790505b5090505f808481526020019081526020015f20604051806101000160405290815f82015481526020016001820180546116b7906124f5565b80601f01602080910402602001604051908101604052809291908181526020018280546116e3906124f5565b801561172e5780601f106117055761010080835404028352916020019161172e565b820191905f5260205f20905b81548152906001019060200180831161171157829003601f168201915b50505050508152602001600282018054611747906124f5565b80601f0160208091040260200160405190810160405280929190818152602001828054611773906124f5565b80156117be5780601f10611795576101008083540402835291602001916117be565b820191905f5260205f20905b8154815290600101906020018083116117a157829003601f168201915b505050505081526020016003820180546117d7906124f5565b80601f0160208091040260200160405190810160405280929190818152602001828054611803906124f5565b801561184e5780601f106118255761010080835404028352916020019161184e565b820191905f5260205f20905b81548152906001019060200180831161183157829003601f168201915b5050505050815260200160048201548152602001600582018054611871906124f5565b80601f016020809104026020016040519081016040528092919081815260200182805461189d906124f5565b80156118e85780601f106118bf576101008083540402835291602001916118e8565b820191905f5260205f20905b8154815290600101906020018083116118cb57829003601f168201915b5050505050815260200160068201548152602001600782015f9054906101000a900473ffffffffffffffffffffffffffffffffffffffff1673ffffffffffffffffffffffffffffffffffffffff1673ffffffffffffffffffffffffffffffffffffffff1681525050815f8151811061196357611962612585565b5b6020026020010181905250809150505b919050565b6040518060c001604052805f81526020015f815260200160608152602001606081526020015f73ffffffffffffffffffffffffffffffffffffffff1681526020015f73ffffffffffffffffffffffffffffffffffffffff1681525090565b828054828255905f5260205f20908101928215611a10579160200282015b82811115611a0f5782518255916020019190600101906119f4565b5b509050611a1d9190611ab5565b5090565b508054611a2d906124f5565b5f825580601f10611a3e5750611a5b565b601f0160209004905f5260205f2090810190611a5a9190611ab5565b5b50565b6040518061010001604052805f81526020016060815260200160608152602001606081526020015f8152602001606081526020015f81526020015f73ffffffffffffffffffffffffffffffffffffffff1681525090565b5b80821115611acc575f815f905550600101611ab6565b5090565b5f81519050919050565b5f82825260208201905092915050565b5f819050602082019050919050565b5f819050919050565b611b0b81611af9565b82525050565b5f81519050919050565b5f82825260208201905092915050565b5f819050602082019050919050565b5f611b458383611b02565b60208301905092915050565b5f602082019050919050565b5f611b6782611b11565b611b718185611b1b565b9350611b7c83611b2b565b805f5b83811015611bac578151611b938882611b3a565b9750611b9e83611b51565b925050600181019050611b7f565b5085935050505092915050565b5f81519050919050565b5f82825260208201905092915050565b5f5b83811015611bf0578082015181840152602081019050611bd5565b5f8484015250505050565b5f601f19601f8301169050919050565b5f611c1582611bb9565b611c1f8185611bc3565b9350611c2f818560208601611bd3565b611c3881611bfb565b840191505092915050565b5f73ffffffffffffffffffffffffffffffffffffffff82169050919050565b5f611c6c82611c43565b9050919050565b611c7c81611c62565b82525050565b5f60c083015f830151611c975f860182611b02565b506020830151611caa6020860182611b02565b5060408301518482036040860152611cc28282611b5d565b91505060608301518482036060860152611cdc8282611c0b565b9150506080830151611cf16080860182611c73565b5060a0830151611d0460a0860182611c73565b508091505092915050565b5f611d1a8383611c82565b905092915050565b5f602082019050919050565b5f611d3882611ad0565b611d428185611ada565b935083602082028501611d5485611aea565b805f5b85811015611d8f5784840389528151611d708582611d0f565b9450611d7b83611d22565b925060208a01995050600181019050611d57565b50829750879550505050505092915050565b5f6020820190508181035f830152611db98184611d2e565b905092915050565b5f604051905090565b5f80fd5b5f80fd5b611ddb81611af9565b8114611de5575f80fd5b50565b5f81359050611df681611dd2565b92915050565b5f80fd5b5f80fd5b7f4e487b71000000000000000000000000000000000000000000000000000000005f52604160045260245ffd5b611e3a82611bfb565b810181811067ffffffffffffffff82111715611e5957611e58611e04565b5b80604052505050565b5f611e6b611dc1565b9050611e778282611e31565b919050565b5f67ffffffffffffffff821115611e9657611e95611e04565b5b611e9f82611bfb565b9050602081019050919050565b828183375f83830152505050565b5f611ecc611ec784611e7c565b611e62565b905082815260208101848484011115611ee857611ee7611e00565b5b611ef3848285611eac565b509392505050565b5f82601f830112611f0f57611f0e611dfc565b5b8135611f1f848260208601611eba565b91505092915050565b5f805f805f805f60e0888a031215611f4357611f42611dca565b5b5f611f508a828b01611de8565b975050602088013567ffffffffffffffff811115611f7157611f70611dce565b5b611f7d8a828b01611efb565b965050604088013567ffffffffffffffff811115611f9e57611f9d611dce565b5b611faa8a828b01611efb565b955050606088013567ffffffffffffffff811115611fcb57611fca611dce565b5b611fd78a828b01611efb565b9450506080611fe88a828b01611de8565b93505060a088013567ffffffffffffffff81111561200957612008611dce565b5b6120158a828b01611efb565b92505060c06120268a828b01611de8565b91505092959891949750929550565b5f806040838503121561204b5761204a611dca565b5b5f61205885828601611de8565b925050602061206985828601611de8565b9150509250929050565b5f6020828403121561208857612087611dca565b5b5f61209584828501611de8565b91505092915050565b5f67ffffffffffffffff8211156120b8576120b7611e04565b5b602082029050602081019050919050565b5f80fd5b5f6120df6120da8461209e565b611e62565b90508083825260208201905060208402830185811115612102576121016120c9565b5b835b8181101561212b57806121178882611de8565b845260208401935050602081019050612104565b5050509392505050565b5f82601f83011261214957612148611dfc565b5b81356121598482602086016120cd565b91505092915050565b5f806040838503121561217857612177611dca565b5b5f61218585828601611de8565b925050602083013567ffffffffffffffff8111156121a6576121a5611dce565b5b6121b285828601612135565b9150509250929050565b6121c581611af9565b82525050565b5f82825260208201905092915050565b5f6121e582611bb9565b6121ef81856121cb565b93506121ff818560208601611bd3565b61220881611bfb565b840191505092915050565b61221c81611c62565b82525050565b5f610100820190506122365f83018b6121bc565b8181036020830152612248818a6121db565b9050818103604083015261225c81896121db565b9050818103606083015261227081886121db565b905061227f60808301876121bc565b81810360a083015261229181866121db565b90506122a060c08301856121bc565b6122ad60e0830184612213565b9998505050505050505050565b5f6020820190506122cd5f8301846121bc565b92915050565b5f60a0820190506122e65f8301886121bc565b6122f360208301876121bc565b818103604083015261230581866121db565b90506123146060830185612213565b6123216080830184612213565b9695505050505050565b5f81519050919050565b5f82825260208201905092915050565b5f819050602082019050919050565b5f61010083015f83015161236a5f860182611b02565b50602083015184820360208601526123828282611c0b565b9150506040830151848203604086015261239c8282611c0b565b915050606083015184820360608601526123b68282611c0b565b91505060808301516123cb6080860182611b02565b5060a083015184820360a08601526123e38282611c0b565b91505060c08301516123f860c0860182611b02565b5060e083015161240b60e0860182611c73565b508091505092915050565b5f6124218383612354565b905092915050565b5f602082019050919050565b5f61243f8261232b565b6124498185612335565b93508360208202850161245b85612345565b805f5b8581101561249657848403895281516124778582612416565b945061248283612429565b925060208a0199505060018101905061245e565b50829750879550505050505092915050565b5f6020820190508181035f8301526124c08184612435565b905092915050565b7f4e487b71000000000000000000000000000000000000000000000000000000005f52602260045260245ffd5b5f600282049050600182168061250c57607f821691505b60208210810361251f5761251e6124c8565b5b50919050565b7f4e487b71000000000000000000000000000000000000000000000000000000005f52601160045260245ffd5b5f61255c82611af9565b915061256783611af9565b925082820390508181111561257f5761257e612525565b5b92915050565b7f4e487b71000000000000000000000000000000000000000000000000000000005f52603260045260245ffd5b5f6125bc82611af9565b91507fffffffffffffffffffffffffffffffffffffffffffffffffffffffffffffffff82036125ee576125ed612525565b5b600182019050919050565b7f4f6e6c79207468652072657461696c65722077686f20637265617465642074685f8201527f652070726f647563742063616e20757064617465206974000000000000000000602082015250565b5f6126536037836121cb565b915061265e826125f9565b604082019050919050565b5f6020820190508181035f83015261268081612647565b9050919050565b5f819050815f5260205f209050919050565b5f6020601f8301049050919050565b5f82821b905092915050565b5f600883026126e37fffffffffffffffffffffffffffffffffffffffffffffffffffffffffffffffff826126a8565b6126ed86836126a8565b95508019841693508086168417925050509392505050565b5f819050919050565b5f61272861272361271e84611af9565b612705565b611af9565b9050919050565b5f819050919050565b6127418361270e565b61275561274d8261272f565b8484546126b4565b825550505050565b5f90565b61276961275d565b612774818484612738565b505050565b5b818110156127975761278c5f82612761565b60018101905061277a565b5050565b601f8211156127dc576127ad81612687565b6127b684612699565b810160208510156127c5578190505b6127d96127d185612699565b830182612779565b50505b505050565b5f82821c905092915050565b5f6127fc5f19846008026127e1565b1980831691505092915050565b5f61281483836127ed565b9150826002028217905092915050565b61282d82611bb9565b67ffffffffffffffff81111561284657612845611e04565b5b61285082546124f5565b61285b82828561279b565b5f60209050601f83116001811461288c575f841561287a578287015190505b6128848582612809565b8655506128eb565b601f19841661289a86612687565b5f5b828110156128c15784890151825560018201915060208501945060208101905061289c565b868310156128de57848901516128da601f8916826127ed565b8355505b6001600288020188555050505b505050505050565b7f50726f6475637420646f6573206e6f74206578697374000000000000000000005f82015250565b5f6129276016836121cb565b9150612932826128f3565b602082019050919050565b5f6020820190508181035f8301526129548161291b565b9050919050565b7f4e6f7420656e6f7567682073746f636b000000000000000000000000000000005f82015250565b5f61298f6010836121cb565b915061299a8261295b565b602082019050919050565b5f6020820190508181035f8301526129bc81612983565b9050919050565b7f4f6e6c79207468652072657461696c65722077686f20637265617465642074685f8201527f652070726f647563742063616e2072656d6f7665206974000000000000000000602082015250565b5f612a1d6037836121cb565b9150612a28826129c3565b604082019050919050565b5f6020820190508181035f830152612a4a81612a11565b9050919050565b5f81905092915050565b7f496e636f6d706c657465000000000000000000000000000000000000000000005f82015250565b5f612a8f600a83612a51565b9150612a9a82612a5b565b600a82019050919050565b5f612aaf82612a83565b9150819050919050565b5f8154612ac5816124f5565b612acf8186612a51565b9450600182165f8114612ae95760018114612afe57612b30565b60ff1983168652811515820286019350612b30565b612b0785612687565b5f5b83811015612b2857815481890152600182019150602081019050612b09565b838801955050505b50505092915050565b5f612b448284612ab9565b915081905092915050565b7f5472616e73616374696f6e206973206e6f7420696e636f6d706c6574650000005f82015250565b5f612b83601d836121cb565b9150612b8e82612b4f565b602082019050919050565b5f6020820190508181035f830152612bb081612b77565b9050919050565b7f4f6e6c79207468652072657461696c6572206f66207468652070726f647563745f8201527f2063616e2075706461746520746865207472616e73616374696f6e0000000000602082015250565b5f612c11603b836121cb565b9150612c1c82612bb7565b604082019050919050565b5f6020820190508181035f830152612c3e81612c05565b9050919050565b7f50726f6475637420616c726561647920657869737473000000000000000000005f82015250565b5f612c796016836121cb565b9150612c8482612c45565b602082019050919050565b5f6020820190508181035f830152612ca681612c6d565b905091905056fea26469706673582212201540f3a69f0bf7f4488261113c2724716f5f2fabd36425905aa034f67218834264736f6c63430008140033",
  "immutableReferences": {},
  "source": "// SPDX-License-Identifier: MIT\r\npragma solidity ^0.8.0;\r\n\r\n\r\ncontract RetailerCustomer {\r\n\r\n    struct MilkProduct {\r\n        uint productType;\r\n        string milkType;\r\n        string brand;\r\n        string origin;\r\n        uint price;\r\n        string description;\r\n        uint stock;\r\n        address retailer;\r\n    }\r\n\r\n    struct Transaction {\r\n        uint productType;\r\n        uint quantity;\r\n        uint[] offerIds;\r\n        string status;\r\n        address customer;\r\n        address retailer;\r\n    }\r\n\r\n\r\n    mapping(uint => MilkProduct) public products;\r\n    uint[] public productTypes;  // Array to store all productTypes\r\n\r\n    mapping(uint => Transaction) public transactions;\r\n    uint public nextTransactionId = 1;\r\n\r\n    /**\r\n     * @dev Retailer can create a new product\r\n     * @param _productType The product id(Universal Product Code) of the product\r\n     * @param _milkType The milk type\r\n     * @param _brand The brand of the milk product\r\n     * @param _origin The origin of the milk product\r\n     * @param _price The price of the milk product\r\n     * @param _description The description of the milk product\r\n     * @param _stock The stock of the milk product\r\n     */\r\n    function createProduct(\r\n        uint _productType, \r\n        string memory _milkType, \r\n        string memory _brand, \r\n        string memory _origin, \r\n        uint _price, \r\n        string memory _description, \r\n        uint _stock\r\n    ) public {\r\n        require(products[_productType].retailer == address(0), \"Product already exists\");\r\n        products[_productType] = MilkProduct(_productType, _milkType, _brand, _origin, _price, _description, _stock, msg.sender);\r\n        productTypes.push(_productType);  // Add productType to the array when creating a product\r\n    }\r\n\r\n    /**\r\n     * @dev Retailer can update an existing product, if the parameter is empty (0 or \"\"), then means this information will not be modified\r\n     * @param _productType The product id(Universal Product Code) of the product\r\n     * @param _milkType The milk type\r\n     * @param _brand The brand of the milk product\r\n     * @param _origin The origin of the milk product\r\n     * @param _price The price of the milk product\r\n     * @param _description The description of the milk product\r\n     * @param _stock The stock of the milk product\r\n     */    \r\n    function updateProduct(\r\n        uint _productType, \r\n        string memory _milkType, \r\n        string memory _brand, \r\n        string memory _origin, \r\n        uint _price, \r\n        string memory _description, \r\n        uint _stock\r\n    ) public {\r\n        require(products[_productType].retailer == msg.sender, \"Only the retailer who created the product can update it\");\r\n\r\n        if (bytes(_milkType).length > 0) {\r\n            products[_productType].milkType = _milkType;\r\n        }\r\n        if (bytes(_brand).length > 0) {\r\n            products[_productType].brand = _brand;\r\n        }\r\n        if (bytes(_origin).length > 0) {\r\n            products[_productType].origin = _origin;\r\n        }\r\n        if (_price > 0) {\r\n            products[_productType].price = _price;\r\n        }\r\n        if (bytes(_description).length > 0) {\r\n            products[_productType].description = _description;\r\n        }\r\n        if (_stock > 0) {\r\n            products[_productType].stock = _stock;\r\n        }\r\n    }\r\n\r\n    /**\r\n     * @dev Retailer can remove an existing product\r\n     * @param _productType The product id(Universal Product Code) of the product to remove\r\n     */\r\n    function removeProduct(uint _productType) public {\r\n        require(products[_productType].retailer == msg.sender, \"Only the retailer who created the product can remove it\");\r\n        delete products[_productType];\r\n    }\r\n\r\n    /**\r\n     * @dev Customer can view a specific product or all products\r\n     * @param _productType The  product id(Universal Product Code) of the product to view, if 0 view all products\r\n     * @return An array of MilkProduct structs\r\n     */\r\n    function viewProduct(uint _productType) public view returns (MilkProduct[] memory) {\r\n        // If _productType is 0, return all products\r\n        if (_productType == 0) {\r\n            uint productCount = productTypes.length;\r\n\r\n            MilkProduct[] memory allProducts = new MilkProduct[](productCount);\r\n            for (uint i = 0; i < productCount; i++) {\r\n                allProducts[i] = products[productTypes[i]];\r\n            }\r\n\r\n            return allProducts;\r\n        } else { // If _productType is not 0, return the product of _productType\r\n            require(products[_productType].retailer != address(0), \"Product does not exist\");\r\n\r\n            MilkProduct[] memory product = new MilkProduct[](1);\r\n            product[0] = products[_productType];\r\n\r\n            return product;\r\n        }\r\n    }\r\n\r\n    /**\r\n     * @dev Customer can buy milk product\r\n     * @param _productType The type of the product to buy\r\n     * @param _quantity The quantity of the product to buy\r\n     */\r\n    function buyProduct(uint _productType, uint _quantity) public {\r\n        require(products[_productType].retailer != address(0), \"Product does not exist\");\r\n        require(products[_productType].stock >= _quantity, \"Not enough stock\");\r\n\r\n        products[_productType].stock -= _quantity;\r\n        transactions[nextTransactionId] = Transaction(_productType, _quantity, new uint[](0), \"Incomplete\", msg.sender, products[_productType].retailer);\r\n        nextTransactionId++;\r\n    }\r\n\r\n    /**\r\n     * @dev Retailer will add the farmer's offer_ids to transaction record\r\n     * @param _transactionId The id of the transaction to update\r\n     * @param _offerIds The array of farmer's offer_ids\r\n     */\r\n    function updateTransaction(uint _transactionId, uint[] memory _offerIds) public {\r\n        require(keccak256(abi.encodePacked(transactions[_transactionId].status)) == keccak256(abi.encodePacked(\"Incomplete\")), \"Transaction is not incomplete\");\r\n        require(products[transactions[_transactionId].productType].retailer == msg.sender, \"Only the retailer of the product can update the transaction\");\r\n\r\n        transactions[_transactionId].offerIds = _offerIds;\r\n        transactions[_transactionId].status = \"Complete\";\r\n    }\r\n\r\n    /**\r\n     * @dev Returns all the transactions\r\n     * @return An array of all Transaction structs\r\n     */\r\n    function getAllTransactions() public view returns (Transaction[] memory) {\r\n        Transaction[] memory transactionsArray = new Transaction[](nextTransactionId);\r\n        for (uint i = 1; i < nextTransactionId; i++) {\r\n            transactionsArray[i - 1] = transactions[i];\r\n        }\r\n        return transactionsArray;\r\n    }\r\n\r\n}\r\n",
  "sourcePath": "/Users/kathysmbp/Desktop/comp6452Project2Final/contracts/RetailerCustomer.sol",
  "compiler": {
    "name": "solc",
    "version": "0.8.20+commit.a1b79de6.Emscripten.clang"
  },
  "schemaVersion": "3.4.14",
  "updatedAt": "2023-07-24T12:47:15.405Z",
  "devdoc": {
    "kind": "dev",
    "methods": {
      "buyProduct(uint256,uint256)": {
        "details": "Customer can buy milk product",
        "params": {
          "_productType": "The type of the product to buy",
          "_quantity": "The quantity of the product to buy"
        }
      },
      "createProduct(uint256,string,string,string,uint256,string,uint256)": {
        "details": "Retailer can create a new product",
        "params": {
          "_brand": "The brand of the milk product",
          "_description": "The description of the milk product",
          "_milkType": "The milk type",
          "_origin": "The origin of the milk product",
          "_price": "The price of the milk product",
          "_productType": "The product id(Universal Product Code) of the product",
          "_stock": "The stock of the milk product"
        }
      },
      "getAllTransactions()": {
        "details": "Returns all the transactions",
        "returns": {
          "_0": "An array of all Transaction structs"
        }
      },
      "removeProduct(uint256)": {
        "details": "Retailer can remove an existing product",
        "params": {
          "_productType": "The product id(Universal Product Code) of the product to remove"
        }
      },
      "updateProduct(uint256,string,string,string,uint256,string,uint256)": {
        "details": "Retailer can update an existing product, if the parameter is empty (0 or \"\"), then means this information will not be modified",
        "params": {
          "_brand": "The brand of the milk product",
          "_description": "The description of the milk product",
          "_milkType": "The milk type",
          "_origin": "The origin of the milk product",
          "_price": "The price of the milk product",
          "_productType": "The product id(Universal Product Code) of the product",
          "_stock": "The stock of the milk product"
        }
      },
      "updateTransaction(uint256,uint256[])": {
        "details": "Retailer will add the farmer's offer_ids to transaction record",
        "params": {
          "_offerIds": "The array of farmer's offer_ids",
          "_transactionId": "The id of the transaction to update"
        }
      },
      "viewProduct(uint256)": {
        "details": "Customer can view a specific product or all products",
        "params": {
          "_productType": "The  product id(Universal Product Code) of the product to view, if 0 view all products"
        },
        "returns": {
          "_0": "An array of MilkProduct structs"
        }
      }
    },
    "version": 1
  },
  "userdoc": {
    "kind": "user",
    "methods": {},
    "version": 1
  }
}